:020000040800F2
:100000000850002011030008A12000086D1F0008FF
:100010009D2000082D1E0008773500080000000014
:10002000000000000000000000000000790200084D
:10003000311E000800000000BD0200085930000811
:100040002B0300082B0300082B0300082B030008D8
:100050002B0300082B0300082B0300082B030008C8
:100060002B0300082B0300082B0300082B030008B8
:100070002B0300082B0300082B0300082B030008A8
:100080002B0300082B0300082B0300082B03000898
:100090002B0300082B0300082B0300082B03000888
:1000A0002B0300082B0300082B0300082B03000878
:1000B0002B0300082B0300082B0300082B03000868
:1000C0002B0300082B0300082B0300082B03000858
:1000D0002B030008ED3000082B0300082B03000859
:1000E0002B0300082B0300082B0300082B03000838
:1000F0002B0300082B0300082B0300082B03000828
:100100002B0300082B0300082B0300082B03000817
:100110002B0300082B0300082B0300082B03000807
:100120002B0300082B0300082B0300082B030008F7
:1001300000F002F800F090F80AA090E8000C824469
:100140008344AAF10107DA4501D100F085F8AFF246
:10015000090EBAE80F0013F0010F18BFFB1A43F0A5
:1001600001031847B8530000D8530000103A24BFC9
:1001700078C878C1FAD8520724BF30C830C144BF0C
:1001800004680C607047000000230024002500264E
:10019000103A28BF78C1FBD8520728BF30C148BFEA
:1001A0000B6070476E2900F05782702900F0998328
:1001B000662904F07984652904F07684672904F0BF
:1001C0007384612904F0728403681B0A28BF41F01C
:1001D0008001692900F00482642900F001827529F8
:1001E00000F0FE816F2900F02683782900F06583F6
:1001F000E92900F0C182E42900F0BE82F52900F06F
:10020000BB82EF2900F02383F82900F064830368A0
:10021000DB0928BF41F08001632901F0998073292F
:1002200001F09E80E32901F0A980F32901F0AE805E
:10023000002070471FB501F0FFF8040000200021E6
:1002400004F01CFC401C60600020002104F000FC55
:10025000E0601FBD10B510BD01F0C0F81146FFF7FA
:10026000E9FF03F007FB01F09DF903B4FFF7F2FF8C
:1002700003BC01F0A1F90000224B19680868B0E83E
:10028000F00F80F30988BFF36F8F4FF0000080F309
:1002900011884EF00D0E70470000000006480068FF
:1002A000006880F3088862B661B6BFF34F8FBFF372
:1002B0006F8F00DF00BF00BF08ED00E0EFF30980A3
:1002C000BFF36F8F0F4B1A6820E9F00F106008B56D
:1002D0004FF0BF0080F31188BFF34F8FBFF36F8FD4
:1002E00004F030F84FF0000080F31188BDE80840BA
:1002F00019680868B0E8F00F80F30988BFF36F8FC2
:10030000704700BF78000020EFF3058070470000C1
:100310000948804709480047FEE7FEE7FEE7FEE799
:10032000FEE7FEE7FEE7FEE7FEE7FEE704480549D5
:10033000054A064B704700008D3000083101000867
:10034000084A002008500020084C0020084C0020DB
:100350001CB50C46064B7B4469460090204600F0D5
:1003600094F904460020694600F0A2F920461CBD1D
:100370005703000040EA0103024630B59B0710D145
:100380004FF0013400E008C208C91D1B9D4315EA67
:10039000C41FF8D013F0FF0102F8011B0DD01B0A97
:1003A000F8E711F8013B002B02F8013B05D011F8EA
:1003B000013B002B02F8013BF3D130BD032A40F290
:1003C000308010F0030C00F0158011F8013BBCF1F7
:1003D000020F624498BF11F801CB00F8013B38BF0F
:1003E00011F8013BA2F1040298BF00F801CB38BF1D
:1003F00000F8013B11F0030300F04283083AC0F01B
:10040000088051F8043B083A51F804CBA0E80810E2
:10041000F5E7121D5CBF51F8043B40F8043BAFF315
:100420000080D20724BF11F8013B11F801CB48BF6F
:1004300011F8012B24BF00F8013B00F801CB48BFA5
:1004400000F8012B70474FF0000200B513469446A8
:100450009646203922BFA0E80C50A0E80C50B1F11C
:100460002001BFF4F7AF090728BFA0E80C5048BF30
:100470000CC05DF804EB890028BF40F8042B08BFCE
:10048000704748BF20F8022B11F0804F18BF00F8CA
:10049000012B70474FF0013C50F8042B51F8043BFE
:1004A0009A4221D1A2EB0C03934313EACC1317D148
:1004B00050F8042B51F8043B9A4215D1A2EB0C03DF
:1004C000934313EACC130BD150F8042B51F8043B9F
:1004D0009A4209D1A2EB0C03934313EACC13DBD06D
:1004E0004FF00000704700BFD01A01BAB1FA81F195
:1004F00001F0180122FA01F0CB40C1F12001DBB27A
:10050000C0B2C01A2CFA01F3D11A914311EAC311F7
:10051000E6D1704770477047704770B504468569EB
:100520000068C10601D5302600E02026C00707D0AC
:1005300070BDD4E9012130469047206A401C2062FA
:100540006D1EF6D570BD70B5044685690078C0078C
:1005500007D170BDD4E9012120209047206A401CBA
:1005600020626D1EF6D570BD09684A0501D540B2FE
:100570007047C905FCD500B2704709684A0501D526
:10058000C0B27047C905FCD580B2704770B50C4643
:100590000546012A05D02878800600D5EA6900239F
:1005A00002E0012305E05B1C934202D2E05C0028DC
:1005B000F9D1A869E618C01AA861286A1844286207
:1005C0002846FFF7AAFF04E0D5E9012114F8010B42
:1005D0009047B442F8D32846FFF7B5FF70BD00003E
:1005E0002DE9F0410646002410687529314616A50C
:1005F00010D0FFF7B9FF002802DA404213A507E048
:1006000031688A0701D512A502E0490704D511A572
:10061000012401E0FFF7B1FF00210A2206F12407BF
:1006200009E0B0FBF2FCB0FBF2F302FB1C0030303F
:1006300078541846491C0028F3D123462A463046F0
:10064000BDE8F04100F093BA000000002D0000006A
:100650002B0000002000000011680268006A5305AA
:1006600001D508700AE0D30501D5088006E013061D
:1006700003D5C217C1E9000200E0086001207047FD
:1006800001694A1C02610878704700B58FB0CDE956
:1006900001310021059105497944CDE90310114646
:1006A000684600F029F90FB000BD0000E5FFFFFF2C
:1006B0000A6802F8010B0A60704700002DE9FF5F2D
:1006C00015468A460446DFF8AC80F8440027D8E98E
:1006D00000103E46CDE9001010E03AF816106A46C8
:1006E00002A800F057FE411C07D02178890603D5E7
:1006F000E269391891420DD80744761C20788006AB
:1007000002D5E069B84205DDAE42E6DB3AF81600F4
:100710000028E2D1A069C01BA0612046FFF7FDFEC2
:10072000D8E90010CDE90010002017E03AF81810C1
:100730006A4602A800F02EFEB0F1FF3F81460BD0C2
:1007400000250DF1080B05E0D4E901211BF8050097
:1007500090476D1C4D45F7D308F10100B04280462B
:10076000E4DB206A384420622046FFF7ECFEBDE857
:10077000FF9F0000324D00002DE9F0418046D21D60
:1007800022F007020025D2E90002F52915A614D0AF
:10079000011E72F1000106DA0023D0EB030063EBC7
:1007A000020211A608E0D8F800108B0701D50FA6A9
:1007B00002E0490701D50EA601251146002408F1E3
:1007C000240704E000F08EF930323A55641C50EAF8
:1007D0000102F7D12B46324621464046BDE8F041A2
:1007E00000F0C5B9000000002D0000002B00000043
:1007F0002000000030B4002100F1240408E002F0E1
:100800000705D208303542EA4372DB086554491CBB
:1008100052EA0305F3D10468002310A2250707D587
:10082000A40600D421B1C46901230DA2641EC461D1
:1008300030BC00F09CB910B5044621461068FFF7A3
:100840009CFE02462046BDE810400023D2E7D21DA0
:1008500022F00701D1E90023CCE7000000000000EE
:1008600030000000F0B40D460188090502D5214C86
:100870007C4402E01F4C7C440E34002100F124062D
:1008800008E002F00F071209E75D42EA03721B0954
:100890007754491C52EA0307F3D102780023120768
:1008A00004D5702D06D009B1022311342246F0BCC4
:1008B00000F05DB901231034F8E770B504460D4629
:1008C00021461068FFF759FE024629462046BDE83A
:1008D00070400023C6E7D21D22F00703D3E90023AE
:1008E000C0E70368126843F0200303600823C36174
:1008F0000023B7E7944B00002DE9F05F89460446DA
:100900004FF0000ADFF874B1FB44C0F820A0204685
:10091000E1688847002874D0252806D0D4E9012151
:100920009047206A401C2062F1E700265F4620467F
:10093000E16888472028054607DB312D05D2781964
:1009400010F8200C08B10643F1E7B00701D526F0F6
:100950000406C4F81CA00027C4F818A02A2D09D04A
:10096000284602F026FF38B304EB8708303DC8F86C
:10097000185019E059F8041B204604EB87029161D6
:10098000E1688847012F054618D1E069002820DA80
:1009900026F020061DE0D8F8180000EB800005EBDB
:1009A00040003038C8F818002046E16888470546FE
:1009B00002F0FFFE0028EED1012F0AD02E2D08D123
:1009C0002046E16888477F1C0546022F46F0200636
:1009D000C4DBA069002803DA404246F00106A061AA
:1009E000F00701D026F010066C2D0BD0682D09D031
:1009F0004C2D39D06A2D35D0742D35D07A2D33D089
:100A000016E038E0E1682F4620468847B8420546A0
:100A100009D16C2F26D04FF48060E1680643204650
:100A20008847054604E06C2F1AD04FF480700643C7
:100A30000DB3A5F14100192802D8203546F400660F
:100A40004A462946204626604E46FFF7ABFB80B15A
:100A500001280BD0F61D26F0070000F1080956E723
:100A60004020E4E78020D8E70020D6E706F104091B
:100A70004DE7284652E7206ABDE8F09F244B00006E
:100A800010B5203AC0F00B80B1E81850203AA0E829
:100A90001850B1E81850A0E81850BFF4F5AF5FEA5D
:100AA000027C24BFB1E81850A0E8185044BF18C910
:100AB00018C0BDE810405FEA827C24BF51F8043BB7
:100AC00040F8043B08BF7047D20728BF31F8023B0B
:100AD00048BF11F8012B28BF20F8023B48BF00F89F
:100AE000012B704730B5B0F10A024FEA900E71F158
:100AF00000034EEA817EB0EB0E0061EB91014FEAFC
:100B0000101E4EEA017E10EB0E0041EB11114FEA70
:100B1000102E4EEA016E10EB0E0041EB11214FEA50
:100B2000104E4EEA014E10EB0E0041EB1141401801
:100B300041F100014FEAD00040EA41704FEAD10193
:100B400010EB80054FEA810444EA907444EB010401
:100B50006D1944EB0404521BA3414FF0000348BF3E
:100B60000A3200D530BD401C41F1000130BD2DE9F5
:100B7000F0470D4699469246044600F12408016864
:100B8000880604D5E06921F01001216000E0012011
:100B9000A84201DD471B00E00027A1697A1902EB9A
:100BA0000900081AA0612078C00602D42046FFF789
:100BB000B4FC002608E0D4E901211AF806009047A9
:100BC000206A401C761C20624E45F4DB2078C0066B
:100BD0000AD52046FFF7A1FC06E0D4E90121302028
:100BE0009047206A401C2062381EA7F10107F4DC00
:100BF00007E0D4E9012118F805009047206A401C5D
:100C00002062281EA5F10105F3DC2046FFF79BFCBE
:100C10002078000602D50220BDE8F0870120FBE71E
:100C200070472DE9FF4F0C461E464FF0FF378BB043
:100C3000D2E90001DDF860800A908A46C1F30A55C6
:100C400005B93D46002108464FF00000BAF1000FFB
:100C500000F4400005DA00EB80004FF4400101EAA7
:100C600050004FEA9059B9F1010F00DDB9460A98DA
:100C700050EA4A000ED044F61050A5F2FF35454325
:100C80002F14B8F1000F1ED07542291E1EDDC9F1C8
:100C900000021CE0B8F1010F4FF0000001D030213C
:100CA00003E0F24305E02154401CB042FBDB304638
:100CB0000022002121540B99C1F80880C1E90020CD
:100CC0000FB0BDE8F08FBD1B6D1CDEE74A4600DAB1
:100CD000694206A800F0F4FB06AB93E8070003ABFB
:100CE00083E8070050460A9900F06DFC8DE8070084
:100CF000A0F500501F3800900398002D0ADD42F245
:100D00001F014A460844002303A90390684600F0E7
:100D1000D6FE09E0A0F500504A461F38002303A97B
:100D20000390684600F0E0FE8DE807000004000C28
:100D300003D04FF0FF30410800E01046B8F1000F3B
:100D400003D00022009215461EE0751E05D4FFF761
:100D5000C9FE303262556D1EF9D5B34601220843F3
:100D600002D000227F1C04E02078302801D100222C
:100D70007F1E002A099784D01DE0112D07DAFFF7A6
:100D8000B1FE303262556D1C50EA0102F5D10843C4
:100D900002D00098C8B10EE00021681E05E0235C77
:100DA000625C63542254401E491C8142F7DBAB460F
:100DB000A81B401E0990002004F80B000B98099A0C
:100DC000C0F80880C0E9002B7AE711264FF0000830
:100DD00057E72DE9F04F88460446D21D22F007015F
:100DE00091B0D1E90001CDE90A0102F0CEFC024642
:100DF0000B98C00F01D02D2007E02068810701D596
:100E00002B2002E0202101EAC000032A099001D032
:100E1000072A05DB03464146204600F011FB0BE1A3
:100E20002078800601D5E06900E00620B8F1650F62
:100E3000814606D0B8F1660F18D0B8F1670F70D1AF
:100E400031E00020B9F1110F009001DB112301E026
:100E500009F101030AAA01A90CA8FFF7E2FEDDE9E6
:100E60000C70002609F10105834647E001204B463E
:100E700000904FF000470AAA01A90CA8FFF7D1FE85
:100E8000DDE90DB00C995D46002610B909F10100AD
:100E90000D18B9EB050003D4C0F1FF3609F10105C7
:100EA000A5EB09002BE0B9F1010F01DA4FF00109C0
:100EB0000020B9F1110F0090484601DD112300E038
:100EC00003460AAA01A90CA8FFF7ABFEDDE90C70E6
:100ED0004D4600268346207800070AD4AB4500DA49
:100EE0005D4601A8012D04DD411911F8011C3029CE
:100EF00007D04F4502DA17F1040F04DA01208246C9
:100F00000FE06D1EEEE7002F02DCED1B3E4403E018
:100F1000781CA84200DD7D1CB81B00F1010A4FF0CF
:100F200000472078000703D4AA4501DB4FF0FF3AC1
:100F30000021B7F1004F0DF143088DF8431024D084
:100F400002202B23002F01DA7F422D230A21021ECB
:100F5000A0F1010000DC5FB197FBF1FC97FBF1F21F
:100F600001FB1C7C17460CF1300C08F801CDEEE7B4
:100F7000A8F1010003702188090501D5452100E091
:100F80006521A0F1010800F8011C09980FA9A1EB47
:100F90000807FF1D00B10120411901EBEA70A169AA
:100FA0003844081A401EA0612078C00602D42046AA
:100FB000FFF7B3FA099828B1D4E901219047206AD4
:100FC000401C20622078C00622D52046FFF7A5FAF3
:100FD0001EE0002E04DBB34502DD01A8805D00E0C9
:100FE0003020D4E901219047206A401C2062761C01
:100FF000AAF101005FEA000A0AD100F01DFAC068F8
:101000000168405CD4E901219047206A401C2062BD
:10101000281EA5F10105DCDC07E0D4E9012118F860
:10102000010B9047206A401C2062381EA7F101077F
:10103000F3DC2046FFF787FA032011B041E60000F9
:101040002DE9F04F04460D46D21D22F0070089B06D
:10105000D0E900974846394602F097FB0246F80F60
:1010600001D02D2307E02068810701D52B2302E062
:10107000202101EAC0038DF820300BB1012000E0EF
:101080000020032A824601D0072A04DB2946204695
:1010900000F0D6F93FE12078800601D40D2500E06C
:1010A000E569C7F30A560D2D49DA00214FEA175BAF
:1010B00008464FF00000002F00F4400007DA00EB74
:1010C00080004FF4400100EBD07001EA6000811510
:1010D000012901DD4FF0FF3100224FEA850CBCF100
:1010E000180F06D31346ACF118004FF08052C240DF
:1010F00003E04FF4801323FA0CF30CF10C0CBCF159
:10110000200F04D3ACF1200C09FA0CF001E007FA2F
:101110000CF000294FF0004801DD18B90FE00ED1A6
:1011200040450CD319EB02095F4121B9404502D17A
:101130009F4329EA0209BBEB175F00D0761C208889
:10114000000502D57B48784402E07A487844193893
:1011500008AA302302F80A30037C0AF10101002EAC
:101160000AF1020A53546A4602DC4FF0300101E0F2
:101170004FF031014FF001088DF8001002D0A6F2B7
:10118000FF3603E059EA470100D06B4E002D02DC28
:101190002178090704D54FF002082E218DF801109F
:1011A000C44600210BE0C7F303433F01C35C491C65
:1011B0006D1E02F80830052908F1010801DA002D3A
:1011C000F1DC00210CE000EB1973491C1B786D1E4B
:1011D000082902F808304FEA091908F1010801DA74
:1011E000002DF0DC21688B0602D516E0A8F101087D
:1011F000E04505DD02EB080313F8013C302BF5D088
:10120000B8F1000F09DD02EB080313F8013C2E2BA7
:1012100003D1090701D4A8F10108002D05DD3E2105
:1012200002F808106D1E08F10108407C002E02F83B
:10123000080008F1010804DA2D20764202F80800BF
:1012400002E02B2002F808000A214FF47A7086424F
:1012500008F101080BDB96FBF0F3303302F808309D
:1012600096FBF0F308F1010800FB136601E0642E21
:101270000CDB642096FBF0F3303302F8083096FB69
:10128000F0F308F1010800FB136601E00A2E06DB0B
:1012900096FBF1F0303002F8080008F1010896FBE7
:1012A000F1F001FB1060303002F80800A16908F18C
:1012B000010808EB050202EB0A00081AA061207879
:1012C000C00602D42046FFF728F9216A08AE01EBD8
:1012D0000A00206204E0D4E9012116F8010B9047CE
:1012E000BAF1010AF7D22078C00602D52046FFF7EE
:1012F00014F96E4609E016F8010B3E280FD0D4E928
:1013000001219047206A401C2062B8F10108F2D206
:101310002046FFF718F909B00320BDE8F08F206AD6
:101320002844206203E0D4E90121302090476D1E5B
:10133000EBD3F8E70A43000002FCFFFF10B5436956
:1013400013B1AFF3008001E0FFF720F9012010BDD9
:10135000127800F124010A7000224A700122EDE7A0
:1013600011684FF0FF32E9E710B5436913B1AFF3ED
:10137000008001E0FFF7A2F9012010BD128800F102
:10138000240182840022C2840122EDE711684FF01B
:10139000FF32E9E770B516460C46054600F044F802
:1013A000036893F80101012806D0FF2C0FD8185DBF
:1013B00068B101202C7070BDD3F807013246214678
:1013C00003F2071303442846BDE8704018474FF066
:1013D000FF3070BD00487047A44900207546FFF7F4
:1013E000F9FFAE4605006946534620F007008546E2
:1013F00018B020B5FEF79AFFBDE820404FF0000678
:101400004FF000074FF000084FF0000B21F00701EC
:10141000AC46ACE8C009ACE8C009ACE8C009ACE82F
:10142000C0098D467047000010B500F005F8001D9A
:1014300010BD00BF4936000000487047C449002075
:101440002DE9F0411F46044603260168072A01F4EE
:10145000006004DB08B116A505E016A503E008B19D
:1014600015A500E015A521F010002060A069C01EA0
:10147000A0610FB1401EA0612046FFF74EF84FB1AA
:10148000D4E9012138469047206A401C2062C01CE4
:10149000206206E0206AFAE7D4E9012115F8010B81
:1014A0009047761EF8D22046FFF74DF8BDE8F08150
:1014B0004E414E006E616E00494E4600696E6600F8
:1014C0002DE9F047814616468AB0354878440DC864
:1014D0008DE80D0032487844801C03AC0DC884E8C8
:1014E0000D0041F69B300844372190FBF1F290FB50
:1014F000F1F5A5F1800501FB12041B3C02D5644205
:10150000012000E00020DFF898A080460027FA4480
:10151000AAF1BE0A0EE0E0070AD03246684607EBA1
:10152000470101230AEB810100F0DEFA8DE8070094
:1015300064107F1C002CEED1194F7F44AE3F19E0A0
:10154000E80715D007EB04100DF1180A90E80E001B
:101550008AE80E00C068F04201D19819089032461E
:10156000012306A903A800F0BFFA03AB83E8070034
:101570006D10641C002DE3D14FF001033246694623
:10158000B8F1000F03A802D000F099FA01E000F0D2
:10159000ABFAC9E90001C9F808200AB0BDE8F08734
:1015A0001440000010B50446AFF300802046BDE8AB
:1015B0001040FEF75ABE000001491820ABBEFEE7FE
:1015C0002600020070475FEA400C08BF91F0000F50
:1015D0004FEA8C234FEAC12243EA51514FEA1C5093
:1015E00018BF00F5F0404FEA300018BF41F000414D
:1015F0005FEA6C5C00F02980BCF1FF3F08BF40F05F
:1016000080407047130C06BF12044FF0100C4FF0CF
:10161000000C130E04BF12020CF1080C130F04BFD0
:1016200012010CF1040C930F04BF92000CF1020C98
:10163000D30F04BF52000CF1010C11464FF0000211
:10164000A0F11F00A0EB0C00704711F0004F08BF85
:10165000704731F000413FF4D5AF0B0C06BF0904D1
:101660004FF0100C4FF0000C0B0E04BF09020CF1F0
:10167000080C0B0F04BF09010CF1040C8B0F04BF05
:1016800089000CF1020CCB0F04BF49000CF1010CD6
:10169000CCF12003A0EB0C0022FA03F302FA0CF2C7
:1016A00041EA030100F10100704720F07F4C80EA1D
:1016B000030023F07F47ACEB070303F57C5300F0F6
:1016C000004003F1FF032DE980494FEA154B09B4AF
:1016D0004FEA144325EA0B4E24EA03480FF204268E
:1016E00006EB132749083E785FEA320203FB0667E0
:1016F000C7F5000707FB06F64FEA54374FEAD64610
:1017000006F1020607FB066CCCF1005C4FEA1C47B1
:101710002CEA074C07FB06F40CFB06F504EB154618
:101720004FEA961634BF00204FF000404FEAD13701
:1017300006FB07FC4FEA1C4C0CFB0BF7D21B03FB10
:101740000CF761EB07010CFB0EF7B0EB074072EBF7
:1017500017420CFB08F734BFA2EB0742B2EB07427B
:1017600061EB17414FEA0C444FEA910706FB07FC77
:101770004FEA1C4C0CFB0BF7B0EBC74072EB573237
:1017800003FB0CF734BFA2EBC742B2EBC74261EBDD
:1017900057310CFB0EF7B0EBC70072EB57720CFB26
:1017A00008F734BFA2EBC702B2EBC70261EB577177
:1017B000039F4FEA816141EA921104EBCC044FEAA6
:1017C000D1374FEA826206FB07FC42EA90124FEAE9
:1017D00080604FEA1C4C0CFB0BF7D21B03FB0CF791
:1017E00061EB07010CFB0EF7B0EB074072EB174201
:1017F0000CFB08F734BFA2EB0742B2EB074261EBE8
:1018000017414FEA8C554FEA910704EB9C2406FBE5
:1018100007FC4FEA1C4C0CFB0BF7B0EBC74072EB1C
:10182000573203FB0CF734BFA2EBC742B2EBC742FF
:1018300061EB57310CFB0EF7B0EBC70072EB577240
:101840000CFB08F734BFA2EBC702B2EBC70261EB97
:10185000577115EB4C254FEA816141EA92114FEA2D
:1018600082624FEAD13742EA901206FB07FC44F14C
:1018700000044FEA80604FEA1C4C0CFB0BF7D21BB4
:1018800003FB0CF761EB07010CFB0EF7B0EB074015
:1018900072EB17420CFB08F734BFA2EB0742B2EB26
:1018A000074261EB174115EB1C154FEA813141EA04
:1018B00092414FEA823242EA90424FEA80304FEA48
:1018C0000C7644F1000448EA03434EEA0B484FF01B
:1018D000000EB2EB080C71EB030724BF62463946D9
:1018E0004EEB0E0E4FF0000B0018524149414BEBEE
:1018F0000B0BB2EB080C71EB03077BF1000B24BF61
:10190000624639464EEB0E0E4FF0000B0018524166
:1019100049414BEB0B0BB2EB080C71EB03077BF16E
:10192000000B24BF624639464EEB0E0E51EA020709
:1019300018BF46F0010616EB0E7655F1000254F181
:10194000000103D5BDE88901BDE80088BDE8890133
:10195000BDE80048B619524141EB0101A3F1010372
:10196000704780807F7E7D7C7B7A7978777676750C
:101970007473727171706F6E6E6D6C6C6B6A6A6984
:101980006868676666656464636362616160605F1E
:101990005F5E5E5D5D5C5C5B5B5A5A595958585797
:1019A00057565655555554545353525252515150FF
:1019B00050504F4F4F4E4E4D4D4D4C4C4C4B4B4B52
:1019C0004A4A4A4949494848484747474746464698
:1019D00045454544444444434343434242424241D3
:1019E0004141002B9C4630D477002BD01CB54FEAE8
:1019F000370703B44FF010004FF01001BAF1000F99
:101A000006D0BCF1000FDCBF40F0080040F0080138
:101A10004FF000000FBCBDE810400BF1010BBBF113
:101A2000010F08BF5FEA170722BF12F1010211F18F
:101A300001014FF0004143F1000300F0004043EA90
:101A400000007047F9D35708D0E746EA064613F17D
:101A5000400F4FEA16461FDD13F1200FDFBF16437C
:101A60000A46002120335B42BED0C3F1200746EA7C
:101A7000064602FA07F74FEA164646EA0706C3F19A
:101A8000200722FA03F201FA07F721FA03F14FF0D7
:101A9000000342EA0702A7E746EA020646EA0646CC
:101AA0004FEA164646EA0106BCBF46EA0646360C31
:101AB0004FF000034FF000024FF0000194E72DE9D2
:101AC000804C9A46934670B491E8380007C831EAD2
:101AD000400C48BF34EA430C03D5FFF7E6FDFFF79F
:101AE00080FFF0BCBDE8008C2DE9804C9A469346FF
:101AF00070B491E8380007C810F0804F08BF13F0A9
:101B0000804F03D100F005F8FFF76BFFF0BCBDE894
:101B1000008C20F07F4780EA030023F07F4C07EB26
:101B20000C03A3F57C5300F00040A3F1FE0392F0F8
:101B3000000F00F0B38095F0000F00F077802DE9E2
:101B400001494FEA11404FEA144621EA004800FBE0
:101B500006FC24EA064708FB06F607FB08F800FB2C
:101B600007F718EB06484CEB164C4FEA124B18EBF4
:101B700007484FEA15464CEB174022EA0B4E0BFB89
:101B800006FC25EA06470EFB06F607FB0EFE0BFBDE
:101B900007F71EEB064E4CEB164C4FF000061EEB03
:101BA000074E4CEB174B18EB0B0840F1000018EBFD
:101BB0000E0B58EB000840F100008F1A4FF00001A7
:101BC0003CBFC943661B14BFB5EB040C00213CBFEE
:101BD000C943F61B4FEA17444EEA8E0E27EA044526
:101BE0004FEA1C4704FB07622CEA074C05FB07F78A
:101BF0000CFB05F604FB0CFC16EB074642EB174208
:101C000016EB0C4642EB1C421BEB060658EB02029D
:101C1000414146EA9E0601D5BDE80189B619524107
:101C200041EB0101A3F10103BDE801894FEA14452D
:101C30004FEA114724EA054621EA074C05FB07F461
:101C400006FB07F70CFB06F105FB0CFC11EB07414B
:101C500044EB17444FEA124711EB0C4144EB1C4490
:101C600022EA074C05FB07F206FB07F70CFB06F61A
:101C700005FB0CFC16EB074642EB174216EB0C4635
:101C800042EB1C456A1854F1000148BF7047B61971
:101C9000524141EB0101A3F10103704795F0000FA0
:101CA00037D04FEA11424FEA144721EA024624EAAC
:101CB000074C02FB07F106FB07F70CFB06F402FBDF
:101CC0000CFC14EB074441EB17414FEA154714EBAA
:101CD0000C4441EB1C4125EA074C02FB07F506FBCF
:101CE00007F70CFB06F602FB0CFC16EB074645EB70
:101CF000174516EB0C4645EB1C42121951F1000139
:101D000048BF7047B619524141EB0101A3F10103ED
:101D100070474FEA14454FEA114724EA054621EA85
:101D2000074C05FB07F106FB07F70CFB06F24FF02B
:101D3000000605FB0CFC12EB074241EB174112EBCE
:101D40000C4251EB1C4148BF7047921841EB010116
:101D5000A3F101037047000008B534E000BF00BFE5
:101D600030E00023642269461748006802F050FB07
:101D7000012827D19DF80000012823D102F020FD81
:101D8000044616E000231A4669460F48006802F030
:101D90003FFB012803D19DF8000000B910E000F0DE
:101DA0003BF8C82002F0F2F900F02CF8C82002F04D
:101DB000EDF902F005FD001B41F288318842E1D3C4
:101DC00000BF00BFCDE7C9E76800002008B50121CA
:101DD000082000F081FF10208DF803000001ADF80D
:101DE000000003208DF802006946054800F021F844
:101DF00000224FF48071024800F0B3F808BD0000E3
:101E0000000C014010B54FF48071024800F0A5F8B5
:101E100010BD0000000C014010B54FF48071024865
:101E200000F09DF810BD0000000C014000BFFEE76F
:101E300070472DE9F04102460025002600200023CE
:101E40000024002791F803C00CF00F0591F803C09F
:101E50000CF0100CBCF1000F03D091F802C04CEA5A
:101E6000050591F800C0BCF1000F31D014680020C6
:101E70002BE04FF0010C0CFA00F3B1F800C00CEAB3
:101E800003069E4220D183004FF00F0C0CFA03F79B
:101E9000BC4305FA03FC4CEA040491F803C0BCF10E
:101EA000280F06D14FF0010C0CFA00FCC2F814C048
:101EB0000AE091F803C0BCF1480F05D14FF0010CC6
:101EC0000CFA00FCC2F810C0401C0828D1D31460E2
:101ED000B1F800C0BCF1FF0F34DD546800202EE0E3
:101EE00000F1080C4FF0010808FA0CF3B1F800C03B
:101EF0000CEA03069E4221D183004FF00F0C0CFA2E
:101F000003F7BC4305FA03FC4CEA040491F803C050
:101F1000BCF1280F05D100F1080C08FA0CF8C2F842
:101F2000148091F803C0BCF1480F07D100F1080CF0
:101F30004FF0010808FA0CF8C2F81080401C08287D
:101F4000CED35460BDE8F0810246002093680B4078
:101F50000BB1012000E00020704741617047016132
:101F600070470AB1016100E04161704700BFFEE7C0
:101F700008B50121402000F0AFFE48208DF8030095
:101F80001820ADF8000003208DF8020069460248D1
:101F9000FFF74FFF08BD00000018014010B52021D9
:101FA0000148FFF7DCFF10BD000C014010B52021F7
:101FB0000148FFF7D2FF10BD000C014010B52021F1
:101FC0000148FFF7CCFF10BD0018014010B52021DB
:101FD0000148FFF7C2FF10BD0018014008B50121FC
:101FE000082000F079FE0121402000F075FE10204D
:101FF0008DF803002020ADF8000003208DF80200CA
:1020000069460C48FFF715FF10208DF803002020CB
:10201000ADF8000003208DF8020069460648FFF77E
:1020200008FF20210348FFF79AFF20210248FFF70D
:1020300096FF08BD000C01400018014008B50024BF
:1020400000BF28E000235A1E69461348006802F0CA
:10205000DFF901281FD19DF80000012802D00228D5
:1020600012D108E0601CC4B2032C03DBFFF79EFF13
:10207000FFF7A4FF0EE0601CC4B2032C03DBFFF7E4
:10208000A5FFFFF78BFF05E00024FFF797FFFFF7A1
:1020900085FF00BF00BFD5E76C00002000BFFEE752
:1020A000704710B5002000F095F9E22000F0F8F834
:1020B000012000F08FF910BD10B5002000F08AF962
:1020C000E12000F0EDF8012000F084F910BD0000DF
:1020D00008B50121402000F0FFFD10208DF803001D
:1020E0004FF4F050ADF8000003208DF8020069466F
:1020F0000E48FFF79EFE48208DF803004FF48070D5
:10210000ADF8000003208DF8020069460748FFF78C
:1021100090FE002000F052F9012000F05BF9002051
:1021200000F070F9002000F061F908BD00180140CE
:1021300010B5FFF7CDFF0821002000F06FF93F2117
:10214000012000F06BF90121022000F067F9032162
:10215000084600F063F90321042000F05FF9022132
:10216000052000F05BF90E21062000F057F903214D
:10217000112000F053F9052207490A2000F05FF909
:10218000FFF79AFFFFF78DFF7021072000F046F957
:1021900000F070F810BD00001C00002010B54FF4D6
:1021A00080710248FFF7D0FE10BD0000001801400A
:1021B00070B50446002000F00DF9204600F070F8DC
:1021C000FF2000F06DF80546012000F003F92846D5
:1021D00070BD70B505460E46002000F0FBF861208A
:1021E00000F05EF8002405E0FF2000F059F82855C3
:1021F000601CC4B2B442F7DB012000F0EBF870BD04
:1022000010B5002000F0E6F8FF2000F049F8044681
:10221000012000F0DFF8204610BD000070B5FFF788
:10222000EFFF05460020FFF7C3FF064606F0020059
:1022300018B90324FFF77CFF18E005F030003028C0
:1022400003D10224FFF774FF10E005F0400040289E
:102250000BD1012403210648FFF7BBFF40210720D3
:1022600000F0DCF8FFF71DFF00E00024204670BD01
:102270002100002010B5002000F0A0F80020FFF79A
:1022800097FF0446FF2C00D110BD44F00304214603
:10229000002000F0C3F8012000F090F800BFF3E741
:1022A00070B50446002518E004F0800018B1012044
:1022B00000F09CF802E0002000F098F86006040EA0
:1022C000012000F09FF8FFF769FF08B144F0010416
:1022D000002000F097F8681CC5B2082DE4DB20460A
:1022E00070BD00008EB056E0FFF798FF01284FD177
:1022F000294800788DF83400274840788DF835005B
:102300009DF83400782803DD02208DF836000AE0BD
:102310009DF83400142803DA01208DF8360002E01D
:1023200000208DF836009DF83600079000231A46ED
:1023300007A91A48006802F049F900235A1E08A9A3
:102340001748006802F042F9012814D015A30822AA
:102350001121002000F0E3F900231A4601A91048DA
:10236000006802F055F800231A4608A90C480068D6
:1023700002F02CF900BF9DF83500012808D1069025
:1023800000231A4606A90C48006802F01FF900BF96
:10239000322001F0FBFEA7E7210000206C000020A6
:1023A0006000002053656E64206461746120657272
:1023B000726F7221000000006800002010B5044612
:1023C00022464FF400610248FFF7CBFD10BD00002C
:1023D0000018014010B5044622464FF480510248CF
:1023E000FFF7BFFD10BD00000018014010B5044606
:1023F00022464FF480610248FFF7B3FD10BD000094
:102400000018014010B5044622464FF400710248FE
:10241000FFF7A7FD10BD00000018014070B504468D
:102420000D460020FFF7D6FF44F02000FFF738FFED
:102430002846FFF735FF0120FFF7CCFF70BD2DE9DF
:10244000F04105460E4617460020FFF7C3FF45F052
:102450002000FFF725FF002404E0305DFFF720FF98
:10246000601CC4B2BC42F8DB0120FFF7B3FFBDE83B
:10247000F081000070B5002100230F22C47804B35E
:10248000154C246804F4E064C4F5E064210AC1F149
:102490000403CA40447804FA03F1847814402143C9
:1024A00009010E4C0678A155047804F01F0501249B
:1024B000AC4005786D11AD0005F1E025C5F800418F
:1024C00009E0047804F01F050124AC40044D0678AF
:1024D000761145F8264070BD0CED00E000E400E008
:1024E00080E100E002490143024A116070470000A8
:1024F0000000FA050CED00E000200CE0002106E0F1
:102500000022064B03EBC0135A544A1CD1B2802957
:10251000F6DB421CD0B20828F0DB7047D000002068
:102520002DE9F04304460D4616461F46284638E07E
:10253000224631E0002A2DDB7F2A2BDC002829DB14
:102540003F2827DC4FEAE07C00EB5C7C4FEAEC0C98
:10255000DFF8588008EBCC1C1CF802C003464FEA99
:10256000E07800EB58784FEAE808A0EBC8094FF094
:10257000010808FA09F82CEA080C01464FEAE0784D
:1025800000EB58784FEAE808DFF8209009EBC8180C
:1025900008F802C0511C0AB2A1199142CADC411CC0
:1025A00008B2E9198142C3DCBDE8F083D000002005
:1025B00038B5002406E0002500E06D1CB5F57A7FF3
:1025C000FBD3641CB4F57A7FF5D30121402000F0E1
:1025D00083FB14208DF8030003208DF802000620F1
:1025E000ADF8000069460548FFF723FC012000F024
:1025F00037FB012000F03EFB38BD00000018014011
:1026000070B50546002411E080212141294009B11F
:10261000012100E00021084600F02CFB012000F021
:102620001FFB002000F01CFB601CC4B2082CEBDB7D
:10263000012000F015FB002000F012FB70BD10B56A
:10264000012000F017FB012000F00AFB002000F041
:1026500011FB002000F004FB10BD10B5002000F0BD
:1026600009FB012000F0FCFA012000F003FB10BD83
:1026700010B5FFF79DFFAE2000F006FBD52000F05F
:1026800003FB802000F000FBA82000F0FDFA3F20B3
:1026900000F0FAFAD32000F0F7FA002000F0F4FA84
:1026A000402000F0F1FAA12000F0EEFAC82000F07E
:1026B000EBFADA2000F0E8FA122000F0E5FA8120C7
:1026C00000F0E2FACF2000F0DFFAD92000F0DCFAC7
:1026D000F12000F0D9FADB2000F0D6FA302000F02B
:1026E000D3FAA42000F0D0FAA62000F0CDFA8D2075
:1026F00000F0CAFA142000F0C7FAAF2000F0C4FAC4
:10270000FFF7FAFE00F098FA10BD10B5024601205E
:1027100000E050430B1EA1F10101FAD110BD0FB42E
:1027200070B5C2B005460E4614464AA8019002A8EC
:10273000019A4999FDF70CFE00200190234602AA58
:102740003146284600F0E6F842B070BC5DF814FB54
:1027500070B505460C46A01CC4B245F0B00000F0B0
:1027600093FA102141EA141000F08EFA04F00F00E1
:1027700000F08AFA70BD0000F8B506460F46144610
:102780001D46082D0CD1A4F120000E4901EB0010CC
:102790001023082239460090304600F017F80FE069
:1027A000062D0DD1A4F1200000EB4000064901EBFD
:1027B00040000823062239460090304600F006F813
:1027C000F8BD0000B04A0008A05000082DE9FF4FF6
:1027D00080460E469146DDF834B0002500244A4676
:1027E00031464046039BFFF79BFE00BF5EE000259D
:1027F00058E008EB0500002852DB08EB05007F28B5
:102800004EDC3046F11706EB5171C9100FB2F117CB
:1028100006EB5171C910A6EBC10A002E05DA781E2D
:1028200007B20AF108000FFA80FA3819002817DBFE
:102830003819072814DC3819224901EBC01008EBBD
:102840000501405C04FB09511BF8011001FA0AF173
:10285000084339191B4A02EBC11108EB05028854E1
:102860003819401C00281BDB3819401C072817DCCE
:102870003819401C134901EBC01008EB0501405CFE
:1028800004FB09511BF80110CAF108021141084369
:102890003919491C0B4A02EBC11108EB0502885497
:1028A000681CC5B24D45A4DB601CC4B20399481E28
:1028B000C11700EB5171012202EBE101A14296DC4C
:1028C000BDE8FF8FD00000202DE9F047064689467D
:1028D00017461D46DDF82080002417E0281B411E06
:1028E0000A20FFF712FFB7FBF0F00A21B0FBF1F26C
:1028F00001FB120000F1300A04FB086108B24346F4
:1029000052464946FFF738FF601CC4B2AC42E5DBD3
:10291000BDE8F0872DE9FE4F07468A4614469846E3
:102920000025AB460026CBE0605D00F0800058B982
:102930004FF0010B2846691C8DB2205C8DF8040015
:1029400000208DF805006BE0605D00F0E000C0281D
:1029500014D14FF0020B2846691C8DB2205C8DF813
:102960000400605D00B9AFE02846691C8DB2205CB0
:102970008DF8050000208DF8060051E0605D00F044
:10298000F000E0281DD14FF0030B2846691C8DB2E2
:10299000205C8DF80400605D00B995E02846691C54
:1029A0008DB2205C8DF80500605D00B98CE0284692
:1029B000691C8DB2205C8DF8060000208DF80700A0
:1029C0002EE0605D00F0F800F02826D14FF0040BF7
:1029D0002846691C8DB2205C8DF80400605D00B94A
:1029E00072E02846691C8DB2205C8DF80500605DA0
:1029F00000B969E02846691C8DB2205C8DF806009C
:102A0000605D00B960E02846691C8DB2205C8DF8DD
:102A1000070000208DF8080002E0681C85B24FE036
:102A2000BBF1010F0BD19DF80420B91908B2434640
:102A30005146FFF7A1FE06EB080086B23FE04FF0DB
:102A400000090EE009EB890101EB4911204A8818C1
:102A500001A9FDF71FFD00B90EE009F101001FFA01
:102A600080F909EB890101EB4911194A881819A16C
:102A7000FDF710FD0028E5D100BFB8F1080F12D115
:102A800009EB890000EB491011490844401DB919B0
:102A9000009008B210231A465146FFF797FE06F140
:102AA000100086B20BE0B8F1060F08D1B91908B2D0
:102AB00006233F225146FFF75FFEB01D86B200BFDE
:102AC000605D00287FF430AF00BFBDE8FE8F0000DE
:102AD000DA520008000000008EB000BF002400BFE2
:102AE00039A3062200210846FFF719FE38A3062263
:102AF0000A210020FFF713FE37A30622142100202D
:102B0000FFF70DFE36A306221E210020FFF707FE69
:102B100036A3062228210020FFF701FE00BF51E066
:102B200000231A4608A93448006801F071FC012806
:102B300036D1062000909DF83420032328213E2022
:102B4000FFF7C2FE9DF8340078280CDD2BA3062287
:102B500032210020FFF7E3FD2DA3062232210020C1
:102B6000FFF7DDFD1CE09DF8340014280CDA23A3E8
:102B7000062232210020FFF7D2FD28A306223221AF
:102B80000020FFF7CCFD0BE01CA306223221002021
:102B9000FFF7C5FD24A3062232210020FFF7BFFD69
:102BA000172202A9284600F049FD01F009FE001B8A
:102BB000642804D300F040F801F002FE04460A2025
:102BC00001F0E4FAACE700004E616D653A000000E8
:102BD0004167653A000000005365783A0000000044
:102BE000426564206E756D3A0000000044726970A1
:102BF00020526174653A00006000002020202020EF
:102C00002020202020202020202020200000000044
:102C1000414C41524D3A204849474800414C4152AD
:102C20004D3A204C4F5700004E6F726D616C20730F
:102C3000706565640000000010B500240BE0002101
:102C40002046FFF785FD054901EBC410802100F007
:102C50002BF8601CC4B2082CF1DB10BDD0000020A2
:102C600010B50446224602210148FFF77AF910BD4B
:102C70000018014010B50446224604210148FFF720
:102C800070F910BD0018014010B50446FFF7D7FCDD
:102C90007820FFF7B5FC0020FFF7B2FC2046FFF7D5
:102CA000AFFCFFF7DAFC10BD70B505460E46FFF726
:102CB000C6FC7820FFF7A4FC4020FFF7A1FC00240D
:102CC00004E0285DFFF79CFC601CC4B2B442F8DB52
:102CD000FFF7C3FC70BD000029B1064A92690243A8
:102CE000044B9A6104E0034A92698243014B9A6162
:102CF000704700000010024030B50021002200247F
:102D000000232D4D6D6805F00C0121B1042905D07B
:102D1000082923D105E0294D056022E0274D0560F3
:102D20001FE0254D6D6805F47012234D6D6805F4A4
:102D30008034022505EB92421CB9214D55430560B4
:102D40000BE01D4D6D6805F400351DB11C4D55435C
:102D5000056002E0194D5543056002E0174D05601E
:102D600000BF00BF144D6D6805F0F0010909154D55
:102D70006B5C0568DD4045600F4D6D6805F4E061F2
:102D8000090A104D6B5C4568DD4085600A4D6D6831
:102D900005F46051C90A0B4D6B5C4568DD40C560A8
:102DA000054D6D6805F44041890B074D6B5CC568A6
:102DB000B5FBF3F5056130BD0010024000127A004A
:102DC00000093D000000002010000020C6B0E821EE
:102DD0006846FDF738FB61E03148007801285AD198
:102DE00030480478C4EBC40101EB04116A4688182A
:102DF0002D49FDF7BFFA2D480078C4EBC40101EB63
:102E000004116A4611448872C4EBC40101EB041139
:102E1000114401F10B002649FDF7ACFAC4EBC400E4
:102E200000EB041069460844C474601EC0EBC00186
:102E300001EB0015284600F043FCC4EBC40000EB96
:102E400004106A4681181722284600F0C5FBC4EB1F
:102E5000C40000EB04106A468118172240A8FDF751
:102E6000ADFA00235A1E40A91248006801F0AEFBDB
:102E700001280DD000231A463AA90E48006801F037
:102E8000C7FA00231A4640A90A48006801F09EFBD1
:102E9000002003490870322001F078F99CE7000017
:102EA0002400002036000020D00400202D00002047
:102EB0002E0000206400002000B587B001218803A7
:102EC000FFF70AFF01210420FFF706FF18208DF805
:102ED0001B004FF40070ADF8180003208DF81A00A5
:102EE00006A92148FEF7A5FF48208DF81B004FF4E6
:102EF0008060ADF8180003208DF81A0006A91A4862
:102F0000FEF797FF4FF4165002900020ADF8140022
:102F10000C20ADF812000020ADF81000ADF80E0046
:102F2000ADF80C0002A9114800F0B4FA012240F2F9
:102F300025510E4800F089FA4FF4A060FFF7D2FA4D
:102F400025208DF8040001208DF807008DF805007C
:102F50008DF8060001A8FFF78DFA0121034800F063
:102F60003EFA07B000BD00000008014000380140F3
:102F700010B500F001F810BD0CB5002001900090D4
:102F80003348006840F480303149086000BF304861
:102F9000006800F4003000900198401C01900098F7
:102FA00018B90198B0F5A06FF1D12948006800F474
:102FB000003010B10120009001E000200090009846
:102FC000012843D12348006840F0100021490860DF
:102FD0000846006820F0030008600846006840F0DA
:102FE000020008601A48406819494860084640686D
:102FF00048600846406840F4806048600846406881
:1030000020F47C1048600846406840F4E8104860AE
:103010000846006840F08070086000BF0C480068F7
:1030200000F000700028F9D00948406820F0030043
:10303000074948600846406840F00200486000BF09
:103040000348406800F00C000828F9D10CBD0000CE
:10305000001002400020024010B500BFBF2080F3E6
:103060001188BFF34F8FBFF36F8F00BF01F0AEFB2E
:1030700018B14FF080500449086000BF002080F371
:10308000118800BF10BD000004ED00E010B513482A
:10309000006840F001001149086008464068104986
:1030A00008400E494860084600680E4908400B4930
:1030B00008600846006820F48020086008464068E0
:1030C00020F4FE0048604FF41F008860FFF750FFB7
:1030D0004FF000600449086010BD0000001002407D
:1030E0000000FFF8FFFFF6FE08ED00E010B540F22B
:1030F0002551A44800F07FF901286ED1A14800F0C5
:1031000035FAC4B2A048007807282FD2DFE800F0D3
:10311000042F4B6A86A4F0004E2C07D100209B4957
:10312000087001209A49087097490870412C07D10E
:10313000012096490870964908700220924908704B
:10314000532C08D102209149087001209049087041
:1031500003208D490870422C08D103208B49087048
:1031600001208B49087004208749087002E18948D2
:10317000006887490978405CA04210D184480078F3
:10318000401C83490870834800680978405C48B94E
:1031900005207D49087000207F49087002E000206A
:1031A00079490870E6E07D48006879490978405C13
:1031B000A04213D176480078401C754908707748C2
:1031C00000680978405C60B905206F4908700020EC
:1031D000714908707249087003E0D2E000206A4922
:1031E0000870C7E06F48006869490978405CA042F0
:1031F00010D167480078401C65490870694800682C
:103200000978405C48B905205F4908700020624990
:10321000087002E000205C490870ABE0624800687A
:103220005B490978405CA04212D159480078401CA3
:10323000574908705C4800680978405C58B9052017
:10324000514908700020544908705549087002E03F
:1032500000204D4908708DE00D2C31D106204A49DF
:1032600008704A48007830B101280AD0022813D0EB
:10327000032824D116E000204C49474A127888548C
:103280001DE0474800784A4908700020424A1278F9
:1032900088544349087012E0002046493E4A12789B
:1032A00088540CE03E4800784349087000214248A9
:1032B000394A1278815400203949087000BF4FE024
:1032C0003248007830B1012813D0022825D00328D5
:1032D00045D130E030480078092808D233482E49DB
:1032E000097844542C480078401C2B49087036E07B
:1032F00037E0302C0BDB392C09DCA4F130002849F5
:10330000097801EB810100EB410025490870224852
:103310000078401C2049087021E01F4800780728E9
:1033200008D224481C49097844541B480078401CA2
:103330001949087013E0302C0BDB392C09DCA4F19F
:1033400030001749097801EB810100EB4100144975
:10335000087011480078401C0F49087000BF00BF7A
:1033600008E00A2C05D10120144908700020064904
:10337000087000BF00BF40F22551024800F020F85D
:1033800000BF10BD00380140700000207300002015
:103390007200002038000020710000203C00002056
:1033A000740000204000002044000020D0040020D1
:1033B0002D0000202E0000203600002024000020D8
:1033C00010B50022002340F66A14A14200D100BFCC
:1033D0000A1201249440A3B2DC43048010BD21B141
:1033E000828942F40052828104E082894DF6FF73A3
:1033F0001A408281704770B50246002400230025E0
:10340000002040F66A16B14200D100BFC1F3421558
:1034100001F01F03012606FA03F3012D02D196895C
:10342000334006E0022D02D1168A334001E0968A2D
:1034300033400C12012606FA04F41688344013B106
:103440000CB1012000E0002070BDF0B5034600245F
:1034500000260025002040F66A17B94200D100BFBF
:103460001846C1F3421401F01F06012707FA06F5BA
:10347000012C01D10C3004E0022C01D1103000E00D
:1034800014301AB107682F43076002E00768AF43A2
:103490000760F0BD2DE9F04786B005460E460024D2
:1034A000A24600BFA1460027B08900B100BF2F4649
:1034B0002C8A4CF6FF700440F08804432C82AC89BF
:1034C0004EF6F3100440B0883189084371890843EF
:1034D0000443AC81AC8A4FF6FF400440B0890443FA
:1034E000AC8201A8FFF708FC1F48874202D1DDF833
:1034F00010A001E0DDF80CA0A88900F4004040B164
:103500000AEBCA0000EB0A1031684900B0FBF1F881
:1035100007E00AEBCA0000EB0A1031688900B0FB33
:10352000F1F86420B8FBF0F004012009642101FBEC
:103530001089A88900F4004040B1322000EBC90096
:10354000B0FBF1F000F00700044308E0322000EB8C
:1035500009106421B0FBF1F000F00F0004432C814E
:1035600006B0BDE8F08700000038014001468888B9
:10357000C0F30800704700BFFEE7000008B5012156
:103580008020FFF7A9FB10208DF803004FF4E040E6
:10359000ADF8000003208DF8020069460D48FEF7E3
:1035A00048FC48208DF803004FF40040ADF80000BF
:1035B00003208DF8020069460648FEF73AFC012018
:1035C00000F09AF8002000F0AFF8002000F0A0F81A
:1035D00008BD0000001C01402DE9F04104460E46E4
:1035E000174600F0C7F8002000F086F8022000F02F
:1035F00049F8C4F3074000F045F8C4F3072000F091
:1036000041F8E0B200F03EF8002504E0705D00F003
:1036100039F8681C85B2BD42F8DB012000F06CF877
:1036200000F08EF8BDE8F08110B54FF4004102487B
:10363000FEF78AFC10BD0000001C01402DE9F0419E
:1036400004460E461746002000F056F8032000F00E
:1036500019F8C4F3074000F015F8C4F3072000F090
:1036600011F8E0B200F00EF8002504E0FF2000F0B1
:1036700009F870556D1CBD42F8D3012000F03CF8EC
:10368000BDE8F08170B505460026002414E08021D5
:10369000214101EA050000F03BF8012000F044F868
:1036A000FFF7C2FF012802D18020204106430020FD
:1036B00000F03AF8601CC4B2082CE8DB304670BD5C
:1036C00010B5044600F056F8002000F015F8202050
:1036D000FFF7D8FFC4F30740FFF7D4FFC4F3072078
:1036E000FFF7D0FFE0B2FFF7CDFF012000F004F8B4
:1036F00000F026F810BD000010B5044622464FF435
:1037000080410248FEF72DFC10BD0000001C014066
:1037100010B5044622464FF400510248FEF721FC42
:1037200010BD0000001C014010B5044622464FF4B5
:1037300080510248FEF715FC10BD0000001C01403E
:1037400010B50020FFF7D8FF0520FFF79BFF084CBE
:1037500002E0641E04B906E0FF20FFF793FF00F0CB
:1037600001000028F5D100BF0120FFF7C5FF10BD03
:10377000A086010010B50020FFF7BEFF0620FFF76E
:1037800081FF0120FFF7B8FF10BD490050EAC120BA
:1037900018BF04204A0D18BF40F0010040F2FF722C
:1037A000B2EB515F08BF40F00200012808BF0520BE
:1037B000704730380A2801D2012070470020704736
:1037C0001CB500221721052000F006FE1B490860E9
:1037D00000221721052000F0FFFD19490860002292
:1037E0000121084600F0F8FD164908600022012179
:1037F000084600F0F1FD144908601048006840B127
:103800000F48006828B10F48006810B108460068EA
:1038100038B9FEF771FE0DA3082200210846FEF715
:103820007EFF0F48012100238022CDE900100DA169
:103830000F4800F095FF00F04BFD1CBD600000201C
:1038400064000020680000206C0000204372656165
:103850007465207175657565206572726F722100DF
:103860004800002073746172745F7461736B0000B0
:103870006D3F0008FEF77CFBFEF7B0FBFEF7F8FE9D
:10388000FEF7A4FAFEF754FCFFF716FBFFF776FEEF
:10389000FFF796FF00BFFEE72DE9F04105460E4613
:1038A0001C4807681C480068001D00F0D5FB50B993
:1038B0001948006890F82C100120884017490968C1
:1038C000814316480160681C38B936B11248016856
:1038D000091D134800F0FEFB1AE07C190E48006831
:1038E0004460BC4207D20C480168091D0D480068BD
:1038F00000F0D6FB0CE008480168091D0A48006882
:1039000000F0CEFB09480068844201D207480460F9
:10391000BDE8F0818C00002078000020900000209D
:1039200090050020800000207C000020A8000020DE
:1039300010B5044600F0DAFB23480068401C224919
:1039400008602248006840B92048046008460068C2
:1039500001280DD100F074F90AE01D48006838B95B
:103960001A480068C06AE16A884201D817480460B2
:1039700018480068401C1749086094F82C10012072
:10398000884015490968084313490860E16A01EB5A
:103990008101124A02EB8100211D00F09BFB00F027
:1039A000B7FB0B48006868B108480068C06AE16A64
:1039B000884207D24FF0805009490860BFF34F8F0B
:1039C000BFF36F8F10BD000088000020780000203A
:1039D00094000020A400002090000020DC040020BF
:1039E00004ED00E070B523E000F0A4FC134800688B
:1039F00008B9012000E00020054600F0B5FFBDB980
:103A000000F074FB0D48C068C468201D00F024FB62
:103A10000B480068401E0A4908600A480068401EBA
:103A20000849086000F074FB204600F057F800BF1A
:103A3000044800680028D7D170BD00007C05002034
:103A4000880000208400002070B504460D46206CDC
:103A500070B1216CE0680844E0606168E068884209
:103A600001D32068E0602846226CE168FCF7A6FCE0
:103A700070BD2DE9F04104460F4615464FF0000891
:103A8000A66B206C28B37DB93946226CA068FCF780
:103A900095FC216CA0680844A060D4E9011088421C
:103AA00017D32068A06014E03946226CE068FCF768
:103AB00085FC216CE068401AE0602168E06888427B
:103AC00003D2216C6068401AE060022D01D106B17A
:103AD000761E701CA0634046BDE8F08110B5044618
:103AE000206B00F025FB204600F022FB10BD0000FB
:103AF00030B54FF48843174800F007042CB1C01DBF
:103B000020F00700134C041B1B1B0246124C2260C2
:103B10000024114D6C60D018083820F007000F4CBD
:103B2000206000240D4D2D686C600C4D2D682C60BC
:103B30001146441A4C60094C24680C60084D4C68CE
:103B40002C60084D4C682C604FF00044064D2C60F2
:103B500030BD0000A4050020B8000020C0000020F7
:103B6000C8000020C4000020CC00002000BFFFF7E8
:103B700039FF064800680128F9D94FF08050044900
:103B80000860BFF34F8FBFF36F8FF0E7DC040020B6
:103B900004ED00E02DE9F04106460D461746984633
:103BA000069C0DB9246000E02760E66325640121CE
:103BB000204600F0CBFC0020A064BDE8F0812DE998
:103BC000FF5F80460E469146DDE90E7A109CA9F112
:103BD0000100216B01EB800B2BF0070B002507E0A8
:103BE000715D04F134004155705D00B902E06D1C57
:103BF000102DF5D300BF002143200155052F00D320
:103C00000427E762201D00F048FA04F1180000F0D4
:103C100044FA2461C7F10500A06164620020606479
:103C200084F8480041465846039A00F08DF9206018
:103C3000BAF1000F01D0CAF80040BDE8FF9F0000B4
:103C400010B5002407E004EB84010F4A02EB810069
:103C500000F016FA641C052CF5D30C4800F010FA9D
:103C60000B4800F00DFA0B4800F00AFA0A4800F081
:103C700007FA0A4800F004FA0448094908600448B1
:103C80000849086010BD0000DC0400204005002049
:103C900054050020680500207C05002090050020C8
:103CA0007C0000208000002010B50146164800E08E
:103CB000006803688B42FBD30246436813448B427F
:103CC00004D143684C682344436001460A464B686C
:103CD00013440468A34211D10C4C03682468A34226
:103CE00008D04B680468646823444B6003681B6811
:103CF0000B6005E0054B1B680B6001E003680B607F
:103D0000884200D0016010BDB8000020C000002033
:103D100070B5054600F0EAF9A86B08B9012400E087
:103D2000002400F0F5F9204670BD70B5054600F09E
:103D3000DDF9A86BE96B884201D1012400E0002481
:103D400000F0E6F9204670BD2DE9F3410D460098DC
:103D5000846C0027A06BE16B88421BD294F945600C
:103D60002A4669462046FFF784FE0746701C60B964
:103D7000606A08B9012000E0002050B904F1240075
:103D800000F0B2FD28B1012703E0701C40B284F8B6
:103D9000450000BF3846BDE8FC8100000A490968BB
:103DA000096809B9012100E0002121B14FF0FF317C
:103DB000064A116006E004490968C968C868034AF0
:103DC00041681160704700007C000020A8000020BE
:103DD00000BFBF2080F31188BFF34F8FBFF36F8FF9
:103DE00000BF00BFFEE770B5044600F07FF994F90C
:103DF00045501AE0A06C38B100212046FFF7A4FF1F
:103E000088B100F043FA0EE0606A08B9012000E0D2
:103E1000002038B904F1240000F066FD18B100F06C
:103E200035FA00E003E0681E45B2002DE2DC00BF79
:103E3000FF2084F8450000F06BF900F057F994F981
:103E4000445010E0206908B9012000E0002048B982
:103E500004F1100000F048FD08B100F017FA681EE8
:103E600045B200E001E0002DECDC00BFFF2084F84B
:103E7000440000F04DF970BD2DE9F04105464FF0CA
:103E8000000800F057FA2B48006808B9FFF730FE29
:103E9000294800682840002847D145B1083505F079
:103EA000070020B105F00700C0F108000544002D0F
:103EB0003BD022480068854237D8214E30460468FE
:103EC00001E0264624686068A84202D220680028E3
:103ED000F7D118480068844227D0306800F10808FC
:103EE000206830606068401B102807D96719606837
:103EF000401B786065603846FFF7D6FE0F49606862
:103F00000968081A0D490860084600680D490968E3
:103F1000884203D2094800680A4908600649606877
:103F20000968084360600020206000F01DFD4046E5
:103F3000BDE8F081C0000020CC000020C4000020BB
:103F4000B8000020C8000020001F4FF080730360FD
:103F5000001F21F001030360001F034B03601438AE
:103F60000260203870470000D13D00081CB50446AF
:103F700000F0BCF81C4802210023CA01CDE9001062
:103F80001AA11E4800F0ECFB1D48012100230A0283
:103F9000CDE900101BA11E4800F0E2FB1D480121E5
:103FA00000238022CDE900101BA11E4800F0D8FBA1
:103FB0001D48012100238022CDE900101BA11F48CC
:103FC00000F0CEFB1E48012100238022CDE9001025
:103FD0001CA11F4800F0C4FB1E48006800F0F0F868
:103FE00000F096F81CBD00004C0000204E524632F6
:103FF000344C30315F5441534B000000E52200083F
:10400000500000204F4C45445F5441534B0000008A
:10401000D92A000854000020424545505F544153BE
:104020004B000000591D0008580000204D4F4E491C
:10403000544F525F5441534B000000003D20000894
:104040005C00002053455249414C5F5441534B00A2
:10405000CD2D00084800002001460A69D1E9013051
:104060009860D1E9010358605068884201D188689E
:104070005060002008611068401E10601068704792
:1040800000F1080141604FF0FF31816000F108014B
:10409000C16001610021016070470021016170472A
:1040A00010B502460B685C1C0CB9106907E002F100
:1040B000080000E04068446824689C42FAD94468DB
:1040C0004C604C68A160886041600A611468641C9F
:1040D000146010BD42684A6093688B6093685960B1
:1040E0009160086103685B1C0360704700BFBF20DC
:1040F00080F31188BFF34F8FBFF36F8F00BF03486A
:104100000068401C0149086070470000B4000020AE
:1041100006480068401E054908600846006820B946
:10412000002080F3118800BF00BF7047B40000205A
:1041300070B506463546D6B1083D2C460C49606838
:104140000968084098B1206888B909496068096819
:104150008843606000F0EEF806496068096808442A
:10416000044908602046FFF79FFD00F0FDFB70BD8D
:10417000CC000020C400002003484FF0E02148613B
:1041800007200861704700003F19010070B5044620
:10419000002544B100F0CEF800212046FFF77CFB5B
:1041A00000F0E2FB05463DB94FF08050034908603E
:1041B000BFF34F8FBFF36F8F70BD000004ED00E0C1
:1041C00070B50546FFF792FF15B92748006800E073
:1041D00028460446201DFFF73FFF78B9E06A00EB50
:1041E0008000224951F8200040B994F82C10012099
:1041F00088401F49096881431D480160A06A18B1C1
:1042000004F11800FFF728FF1A480068401C1949FC
:10421000086015480068844209D1211D1648FFF73F
:1042200059FF16480068401C1449086009E014480A
:104230000068401E124908602046FFF74FFCFFF758
:10424000ADFDFFF765FF0F48006858B106480068EC
:10425000844207D14FF080500B490860BFF34F8F65
:10426000BFF36F8F70BD000078000020DC040020D9
:1042700090000020A40000207C0500208400002085
:10428000880000209400002004ED00E00120014996
:10429000086070479C00002070B505460C46054834
:1042A000016818312846FFF7FBFE01212046FFF781
:1042B000F3FA70BD780000200349096801600349E2
:1042C0000968416070470000A00000208C000020B9
:1042D0001CB5114800210B468022CDE900100FA12A
:1042E000104800F03DFA0446012C14D100BFBF2055
:1042F00080F31188BFF34F8FBFF36F8F00BF4FF074
:10430000FF30094908600120084908600020084979
:10431000086000F047F81CBDAC00002049444C4543
:10432000000000006D3B0008A80000209400002061
:104330008C00002002480068401C0149086070475A
:10434000B00000201248006818B10120114908602F
:104350001DE000200F4908600F480068B0FA80F0A7
:10436000C0F11F0101EB81020C4B03EB820042689C
:104370005268426000F108024368934202D14268E9
:10438000526842604268D268054B1A6000BF7047AD
:10439000B00000209C00002090000020DC040020E1
:1043A0007800002010B50A48006840F47F000849F2
:1043B00008600846006840F07F400860FFF7DCFEB8
:1043C000002004490860FBF769FF002010BD0000D1
:1043D00020ED00E0B40000202DE9F84307460D462B
:1043E00090460DB9002601E007FB05F606F14C00EA
:1043F000FFF742FD044644B104F14C0943464A46E6
:10440000294638460094FFF7C5FB2046BDE8F883EF
:104410002DE9FF4782B0054689461E464FF0000A47
:104420002C4600BFFFF762FED4F83880B8F1000FC9
:1044300036D0E76849462046FFF706FBB6B9A8F133
:104440000100A063206908B9012000E0002008BB3A
:1044500004F1100000F048FAE0B14FF080503A4902
:104460000860BFF34F8FBFF36F8F13E0E760606AA0
:1044700008B9012000E0002060B904F1240000F038
:1044800033FA38B14FF080502F490860BFF34F8F97
:10449000BFF36F8FFFF73CFE012006B0BDE8F08749
:1044A000049818B9FFF734FE0020F6E7BAF1000FC0
:1044B00004D16846FFF700FF4FF0010AFFF728FE1E
:1044C000FFF738FFFFF712FE94F94400401C10B9C3
:1044D000002084F8440094F94500401C10B90020E5
:1044E00084F84500FFF714FE04A9684600F00AF9B5
:1044F000F0B92046FFF70CFCA0B104F124000499A8
:10450000FFF7CAFE2046FFF76EFC00F02DFA0028E8
:1045100088D14FF080500C490860BFF34F8FBFF334
:104520006F8F7FE72046FFF75EFC00F01DFA79E70A
:104530002046FFF758FC00F017FA2046FFF7E8FB8B
:104540000028EED00020A8E704ED00E070B5054695
:104550000E462C46FFF7CAFDD4E90F12206801FB76
:10456000020060600020A0632068A060E06B401E35
:10457000226C216800FB0210E060FF2084F84400F8
:1045800084F845009EB9206908B9012000E00020A8
:10459000A8B904F1100000F0A7F980B14FF08050E5
:1045A00009490860BFF34F8FBFF36F8F07E004F135
:1045B0001000FFF765FD04F12400FFF761FDFFF730
:1045C000A7FD012070BD000004ED00E02DE9FF43D0
:1045D00083B0074688461D464FF000093C4600BFA1
:1045E000FFF784FDA06BE16B884201D3022D38D127
:1045F0002A4641462046FFF73CFA0646A06C68B1C1
:1046000029462046FFF7A0FB28B34FF080503C49D5
:104610000860BFF34F8FBFF36F8F1CE0606A08B96B
:10462000012000E0002068B904F1240000F05CF9EA
:1046300088B14FF0805032490860BFF34F8FBFF30D
:104640006F8F08E03EB14FF080502D490860BFF3F6
:104650004F8FBFF36F8FFFF75BFD012007B0BDE801
:10466000F083059818B9FFF753FD0020F6E7B9F17C
:10467000000F04D101A8FFF71FFE4FF00109FFF75B
:1046800047FDFFF757FEFFF731FD94F94400401C4A
:1046900010B9002084F8440094F94500401C10B97A
:1046A000002084F84500FFF733FD05A901A800F0BC
:1046B00029F8F0B92046FFF738FBA0B104F110004B
:1046C0000599FFF7E9FD2046FFF78DFB00F04CF957
:1046D000002885D14FF0805009490860BFF34F8F03
:1046E000BFF36F8F7CE72046FFF77DFB00F03CF9BE
:1046F00076E72046FFF777FB00F036F90020ADE7BC
:1047000004ED00E070B504460D46FFF7EFFC1248DB
:1047100002682868401C08B9002619E00F49206883
:104720000968884204D06068904201D801260FE0F1
:104730006068101A2968884209D228686168511A8D
:10474000401A28602046FFF7B7FD002600E001264A
:10475000FFF7DEFC304670BD8C000020A00000207A
:104760002DE9FF4F85B0804689461746DDE912AB3B
:10477000B800FFF781FB064656B14C20FFF77CFBE3
:1047800004460CB1266304E03046FFF7D1FC00E09C
:1047900000247CB10020CDE900ABCDE902403A46CF
:1047A00049464046089BFFF70AFA2046FFF7C0F843
:1047B000012501E04FF0FF35284609B0BDE8F08F34
:1047C00001490868704700008C0000202DE9F04185
:1047D00000273A480068002863D139480068451C22
:1047E000374805608DB93748D0F8008036480068F2
:1047F000344908603448C0F8008034480068401CE0
:1048000032490860FFF7CAFA00BF314800688542A4
:104810003BD300BF2B480068006808B9012000E0C6
:10482000002020B14FF0FF30294908602CE02548D6
:104830000068C068C4686668B54202D22448066051
:1048400022E0201DFFF708FCA06A18B104F118004F
:10485000FFF702FC94F82C10012088401D490968DC
:1048600008431C490860E16A01EB81011A4A02EB26
:104870008100211DFFF72EFC1849E06A0968C96A0A
:104880008842C7D30127C5E700BF14480068C06A43
:1048900000EB8000104951F82000012800D90127C1
:1048A00004E00F480068401C0D4908600D4800688E
:1048B00000B101273846BDE8F0810000B0000020BB
:1048C0008C0000207C00002080000020A000002040
:1048D000A800002090000020DC04002078000020C8
:1048E000980000209C00002070B50646F068C4685F
:1048F00004F11800FFF7B0FB15480068A8B9201DA7
:10490000FFF7AAFB94F82C10012088401149096890
:10491000084310490860E16A01EB81010E4A02EB8D
:104920008100211DFFF7D6FB04E004F118010B48BC
:10493000FFF7D0FB0A49E06A0968C96A884204D9CE
:10494000012501200749086000E00025284670BDC8
:10495000B000002090000020DC040020680500204A
:10496000780000209C00002070B500240026FFF78E
:10497000BDFB2E480068401E2C49086008460068B0
:1049800000284FD12A48006800284BD024E029484D
:10499000C068C46804F11800FFF75EFB201DFFF734
:1049A0005BFB94F82C1001208840234909680843D8
:1049B00021490860E16A01EB8101204A02EB810094
:1049C000211DFFF787FB1E49E06A0968C96A884212
:1049D00002D301201B4908601648006808B901206D
:1049E00000E000200028D2D00CB1FFF7D7F916481C
:1049F000056865B100BFFFF7E9FE10B1012011495C
:104A000008606D1E002DF6D100200F4908600D488A
:104A1000006838B1012630070C490860BFF34F8F9A
:104A2000BFF36F8FFFF774FB304670BDB0000020FE
:104A3000880000206805002090000020DC04002091
:104A4000780000209C0000209800002004ED00E089
:104A500010B500290AD00878002807D00548784406
:104A6000FBF718FD002801D0002010BD0248784453
:104A700010BD0000DE0A0000D60A000010B50029B3
:104A80000AD00878002807D005487844FBF702FDD3
:104A9000002801D0002010BD0248784410BD00005D
:104AA000CE0A0000C60A0000FCF793B9FCF7C8BAAA
:104AB00000000000000000000000000000000000F6
:104AC000000000F80000000000000033300000008B
:104AD00000160E00160E000000000000000000008E
:104AE00040C07840C0784000043F04043F04040004
:104AF000007088FC08300000001820FF211E000014
:104B0000F008F000E018000000211C031E211E0028
:104B100000F00888700000001E21232419272110AE
:104B2000000000160E000000000000000000000061
:104B3000000000E0180402000000000718204000F8
:104B400000020418E00000000040201807000000E8
:104B5000404080F0804040000202010F010202004C
:104B6000000000F0000000000101011F0101010030
:104B7000000000000000000000B070000000000015
:104B8000000000000000000000010101010101011E
:104B900000000000000000000030300000000000B5
:104BA000000000008060180400601806010000008A
:104BB00000E010080810E000000F102020100F0087
:104BC000001010F8000000000020203F202000000E
:104BD0000070080808887000003028242221300066
:104BE00000300888884830000018202020110E006E
:104BF0000000C02010F8000000070424243F240017
:104C000000F80888880808000019212020110E00EB
:104C100000E0108888180000000F112020110E00FD
:104C200000380808C83808000000003F00000000F5
:104C30000070880808887000001C222121221C00B6
:104C400000E010080810E0000000312222110F00DF
:104C5000000000C0C0000000000000303000000074
:104C6000000000C0C0000000000080B07000000024
:104C700000008040201008000001020408102000FD
:104C80004040404040404000040404040404040048
:104C900000081020408000000020100804020100DD
:104CA000007048080808F0000000003036010000DD
:104CB000C030C828E810E0000718272423140B0090
:104CC0000000C038E0000000203C2302022738200A
:104CD00008F8888888700000203F202020110E00EE
:104CE000C0300808080838000718202020100800E5
:104CF00008F808080810E000203F202020100F00CE
:104D000008F88888E8081000203F20202320180099
:104D100008F88888E8081000203F20000300000001
:104D2000C03008080838000007182020221E0200A2
:104D300008F808000008F808203F210101213F2061
:104D4000000808F8080800000020203F202000008C
:104D500000000808F8080800C08080807F0000007C
:104D600008F888C028180800203F200126382000B5
:104D700008F8080000000000203F2020202030001C
:104D800008F8F800F8F80800203F003F003F200036
:104D900008F830C00008F808203F200007183F003E
:104DA000E01008080810E0000F10202020100F006D
:104DB00008F808080808F000203F21010101000060
:104DC000E01008080810E0000F18242438504F00A5
:104DD00008F8888888887000203F2000030C302065
:104DE00000708808080838000038202121221C00A3
:104DF000180808F8080818000000203F20000000EC
:104E000008F808000008F808001F202020201F00D4
:104E10000878880000C83808000007380E01000034
:104E2000F80800F80008F800033C0700073C0300FE
:104E3000081868808068180820302C03032C302064
:104E40000838C800C83808000000203F20000000D3
:104E500010080808C838080020382621202018002B
:104E6000000000FE020202000000007F40404000FF
:104E7000000C30C000000000000000010638C00037
:104E800000020202FE000000004040407F000000DF
:104E9000002010080408102000000000000000009E
:104EA0000000000000000000808080808080808002
:104EB00000020408000000000000000000000000E4
:104EC00000008080808000000019242222223F20E0
:104ED00008F8008080000000003F112020110E0023
:104EE0000000008080800000000E112020201100B2
:104EF000000000808088F800000E112020103F2064
:104F00000000808080800000001F222222221300E7
:104F1000008080F0888888180020203F2020000032
:104F20000000808080808000006B949494936000E7
:104F300008F8008080800000203F210000203F20F2
:104F400000809898000000000020203F20200000F2
:104F5000000000809898000000C08080807F0000E2
:104F600008F8000080808000203F24022D302000BF
:104F7000000808F8000000000020203F202000006A
:104F80008080808080808000203F20003F20003F84
:104F9000008080008080000000203F2100203F2012
:104FA0000000808080800000001F202020201F0043
:104FB000808000808000000080FFA12020110E0072
:104FC0000000008080808000000E112020A0FF8063
:104FD000808080008080800020203F212000010010
:104FE0000000808080808000003324242424190065
:104FF000008080E0808000000000001F2020000072
:105000008080000000808000001F202020103F20B2
:10501000808080000080808000010E300806010042
:1050200080800080008080800F300C030C300F00E7
:1050300000808000808080000020312E0E31200012
:10504000808080000080808080818E701806010042
:1050500000808080808080000021302C2221300060
:1050600000000000807C020200000000003F404081
:1050700000000000FF00000000000000FF00000032
:105080000002027C800000000040403F0000000061
:10509000008040408000008000000000000101000E
:1050A0000000000000000000002F000000000700CA
:1050B000070000147F147F1400242A7F2A12002383
:1050C00013086462003649552250000000070000B2
:1050D00000001C224100000041221C000014083E78
:1050E00008140008083E0808000000A0600000083E
:1050F0000808080800006060000000201008040292
:10510000003E5149453E0000427F4000004261514F
:105110004946002141454B31001814127F100027E9
:1051200045454539003C4A494930000171090503AC
:1051300000364949493600064949291E00003636DD
:105140000000000056360000000814224100001440
:10515000141414140000412214080002015109061D
:10516000003E4955592E007C1211127C007F49499E
:105170004936003E41414122007F4141221C007FCF
:1051800049494941007F09090901003E4149497ADD
:10519000007F0808087F0000417F41000020404157
:1051A0003F01007F08142241007F40404040007FC3
:1051B000020C027F007F0408107F003E4141413E07
:1051C000007F09090906003E4151215E007F09194F
:1051D00029460046494949310001017F0101003F4C
:1051E0004040403F001F2040201F003F4038403FCC
:1051F0000063140814630007087008070061514930
:10520000454300007F4141000002040810200000D7
:1052100041417F0000040201020400404040404040
:10522000000001020400002054545478007F4844D8
:10523000443800384444442000384444487F00380F
:105240005454541800087E0901020018A4A4A47C38
:10525000007F080404780000447D40000040808402
:105260007D00007F102844000000417F4000007C4A
:1052700004180478007C0804047800384444443856
:1052800000FC242424180018242418FC007C0804A2
:10529000040800485454542000043F444020003C7B
:1052A0004040207C001C2040201C003C4030403C02
:1052B000004428102844001CA0A0A07C0044645492
:1052C0004C440000087F41000000007F0000000007
:1052D000417F0800000804081008EFBC8C000000A3
:1052E00000000000000000000000000000000000BE
:1052F000005838000000000000000000000000E33B
:10530000808200000000000000000000000000009B
:105310000000000000001824241800000000000015
:1053200000000000E4BDA00000008060F8074020FD
:10533000180F08C80808281800010000FF00100C0A
:105340000340807F0001061800E5A5BD0000101095
:10535000F01F10F000808282E2928A868000402254
:1053600015081661000040807F0000000000E4B8CE
:10537000960000202020FE2020FF202020FF20205B
:105380002020000000007F40404744444447404004
:10539000400000E7958C0000000000FE929292FE13
:1053A000929292FE0000000008080484621E010030
:1053B00001FE0204040808000000000000FF0101D3
:1053C000013109090909897101010101FFFF80808B
:1053D000808080809681808080808080FFFF018136
:1053E0008181FD8991A1C1FD81818101FFFF8080C3
:1053F00080809F888482819F80808080FF00000061
:105400000000000000000000303132333435363700
:1054100038394142434445464030580030313233F8
:1054200034353637383961626364656640307800F8
:10543000040000080000000000000002000100005D
:105440001030313233343536373839616263646550
:10545000667870003031323334353637383941426E
:10546000434445465850000002400000000000A0A0
:105470000000000005400000000000C8000000001F
:105480000C4000000000409C00000000194000009B
:105490000020BCBE0000000034400000BFC91B8ECD
:1054A00000000004B5400000504BCFD06607E2CFAB
:1054B000010000006C4100003E8251AADFEEA734DB
:1054C00001000000D9420000DCB5A0E23A301F978D
:1054D000FFFFFFFFB4450000FD25A0C8E9A3C14FB1
:1054E000FFFFFFFFFF3F0000000000800000000002
:1054F000FF3F000000000080000000004245443AE9
:10550000000000004147453A000000004E414D4573
:105510003A0000005345583A000000006856000861
:1055200000000020D00000006C010008385700087F
:10553000D0000020384F0000880100081C00000047
:1055400043000000F8FFFFFF0C0000000E00000009
:105550000F0000002E0000001001000043000000BA
:10556000F8FFFFFF00404040404040404040414184
:105570004141414040404040404040404040404028
:1055800040404040400502020202020202020202C2
:1055900002020202022020202020202020202002BF
:1055A000020202020202909090909090101010104F
:1055B00010101010101010101010101010101010EB
:1055C000020202020202888888888888080808087F
:1055D000080808080808080808080808080808084B
:1055E0000202020240000000000000000000000073
:1055F00000000000000000000000000000000000AB
:10560000000000000000000000000000000000009A
:10561000000000000000000000000000000000008A
:10562000000000000000000000000000000000007A
:10563000000000000000000000000000000000006A
:10564000000000000000000000000000000000005A
:10565000000000000000000000000000000000004A
:105660000000000000000000000000000102030430
:105670000102030406070809020406081122334444
:1056800055000000112233445500000000000000C6
:10569000000000000000000000000000000000000A
:1056A0000C5500080455000814550008FC54000867
:1056B00000000000000000000000000000000000EA
:1056C00000000000000000000000000000000000DA
:1056D00000000000000000000000000000000000CA
:1056E00000000000000000000000000000000000BA
:1056F00000000000000000000000000000000000AA
:105700000000000000000000000000000000000099
:10571000000000000000000000000000AAAAAAAAE1
:105720000000000000000000000000000000000079
:08573000000000000000000071
:0400000508000131BD
:00000001FF
