:020000040800F2
:10000000F05000201103000839210008AD1F00083E
:10001000352100086D1E0008EB36000800000000C6
:10002000000000000000000000000000790200084D
:10003000711E000800000000BD020008DD3100084C
:100040002B0300082B0300082B0300082B030008D8
:100050002B0300082B0300082B0300082B030008C8
:100060002B0300082B0300082B0300082B030008B8
:100070002B0300082B0300082B0300082B030008A8
:100080002B0300082B0300082B0300082B03000898
:100090002B0300082B0300082B0300082B03000888
:1000A0002B0300082B0300082B0300082B03000878
:1000B0002B0300082B0300082B0300082B03000868
:1000C0002B0300082B0300082B0300082B03000858
:1000D0002B030008713200082B0300082B030008D3
:1000E0002B0300082B0300082B0300082B03000838
:1000F0002B0300082B0300082B0300082B03000828
:100100002B0300082B0300082B0300082B03000817
:100110002B0300082B0300082B0300082B03000807
:100120002B0300082B0300082B0300082B030008F7
:1001300000F002F800F090F80AA090E8000C824469
:100140008344AAF10107DA4501D100F085F8AFF246
:10015000090EBAE80F0013F0010F18BFFB1A43F0A5
:10016000010318477C5500009C550000103A24BF3D
:1001700078C878C1FAD8520724BF30C830C144BF0C
:1001800004680C607047000000230024002500264E
:10019000103A28BF78C1FBD8520728BF30C148BFEA
:1001A0000B6070476E2900F05382702900F0958330
:1001B000662904F05B85652904F05885672904F0F9
:1001C0005585612904F0548503681B0A28BF41F056
:1001D0008001692900F00082642900F0FD81752901
:1001E00000F0FA816F2900F02283782900F0618302
:1001F000E92900F0BD82E42900F0BA82F52900F077
:10020000B782EF2900F01F83F82900F060830368AC
:10021000DB0928BF41F08001632901F0BB8073290D
:1002200001F0C080E32901F0CB80F32901F0D080F8
:10023000002070471FB501F021F9040000200021C3
:1002400004F0FEFC401C60600020002104F0E2FC91
:10025000E0601FBD10B510BD01F0E2F81146FFF7D8
:10026000E9FF03F0DFFB01F0BFF903B4FFF7F2FF92
:1002700003BC01F0C3F90000224B19680868B0E81C
:10028000F00F80F30988BFF36F8F4FF0000080F309
:1002900011884EF00D0E70470000000006480068FF
:1002A000006880F3088862B661B6BFF34F8FBFF372
:1002B0006F8F00DF00BF00BF08ED00E0EFF30980A3
:1002C000BFF36F8F0F4B1A6820E9F00F106008B56D
:1002D0004FF0BF0080F31188BFF34F8FBFF36F8FD4
:1002E00004F008F94FF0000080F31188BDE80840E1
:1002F00019680868B0E8F00F80F30988BFF36F8FC2
:10030000704700BF7C000020EFF3058070470000BD
:100310000948804709480047FEE7FEE7FEE7FEE799
:10032000FEE7FEE7FEE7FEE7FEE7FEE704480549D5
:10033000054A064B704700001132000831010008E1
:10034000F04A0020F0500020F04C0020F04C00203B
:100350001CB50C46064B7B4469460090204600F0D5
:1003600090F904460020694600F09EF920461CBD25
:100370004F03000040EA0103024630B59B0710D14D
:100380004FF0013400E008C208C91D1B9D4315EA67
:10039000C41FF8D013F0FF0102F8011B0DD01B0A97
:1003A000F8E711F8013B002B02F8013B05D011F8EA
:1003B000013B002B02F8013BF3D130BD032A40F290
:1003C000308010F0030C00F0158011F8013BBCF1F7
:1003D000020F624498BF11F801CB00F8013B38BF0F
:1003E00011F8013BA2F1040298BF00F801CB38BF1D
:1003F00000F8013B11F0030300F03E83083AC0F01F
:10040000088051F8043B083A51F804CBA0E80810E2
:10041000F5E7121D5CBF51F8043B40F8043BAFF315
:100420000080D20724BF11F8013B11F801CB48BF6F
:1004300011F8012B24BF00F8013B00F801CB48BFA5
:1004400000F8012B70474FF000020429C0F0128021
:1004500010F0030C00F04483CCF1040CBCF1020F4B
:1004600018BF00F8012BA8BF20F8022BA1EB0C014C
:1004700000F036BB5FEAC17C24BF00F8012B00F816
:10048000012B48BF00F8012B704700004FF0013CE2
:1004900050F8042B51F8043B9A4221D1A2EB0C03F3
:1004A000934313EACC1317D150F8042B51F8043BB3
:1004B0009A4215D1A2EB0C03934313EACC130BD150
:1004C00050F8042B51F8043B9A4209D1A2EB0C03DB
:1004D000934313EACC13DBD04FF00000704700BF0A
:1004E000D01A01BAB1FA81F101F0180122FA01F033
:1004F000CB40C1F12001DBB2C0B2C01A2CFA01F32B
:10050000D11A914311EAC311E6D170477047704781
:10051000704770B5044685690068C10601D530266C
:1005200000E02026C00707D070BDD4E90121304685
:100530009047206A401C20626D1EF6D570BD70B5D4
:10054000044685690078C00707D170BDD4E9012150
:1005500020209047206A401C20626D1EF6D570BD99
:1005600009684A0501D540B27047C905FCD500B2FB
:10057000704709684A0501D5C0B27047C905FCD566
:1005800080B2704770B50C460546012A05D0287820
:10059000800600D5EA69002302E0012305E05B1C28
:1005A000934202D2E05C0028F9D1A869E618C01A8B
:1005B000A861286A184428622846FFF7AAFF04E0C9
:1005C000D5E9012114F8010B9047B442F8D328462D
:1005D000FFF7B5FF70BD00002DE9F041064600248D
:1005E00010687529314616A510D0FFF7B9FF00280D
:1005F00002DA404213A507E031688A0701D512A547
:1006000002E0490704D511A5012401E0FFF7B1FF7D
:1006100000210A2206F1240709E0B0FBF2FCB0FB3E
:10062000F2F302FB1C00303078541846491C0028B5
:10063000F3D123462A463046BDE8F04100F0BABA6D
:10064000000000002D0000002B0000002000000032
:1006500011680268006A530501D508700AE0D305E5
:1006600001D5088006E0130603D5C217C1E90002D0
:1006700000E008600120704701694A1C02610878A7
:10068000704700B58FB0CDE90131002105910549D2
:100690007944CDE903101146684600F029F90FB0FE
:1006A00000BD0000E5FFFFFF0A6802F8010B0A60C9
:1006B000704700002DE9FF5F15468A460446DFF8C3
:1006C000AC80F8440027D8E900103E46CDE9001080
:1006D00010E03AF816106A4602A800F07DFE411CB0
:1006E00007D02178890603D5E269391891420DD8DF
:1006F0000744761C2078800602D5E069B84205DD03
:10070000AE42E6DB3AF816000028E2D1A069C01B31
:10071000A0612046FFF7FDFED8E90010CDE90010EA
:10072000002017E03AF818106A4602A800F054FEBC
:10073000B0F1FF3F81460BD000250DF1080B05E01D
:10074000D4E901211BF8050090476D1C4D45F7D3F6
:1007500008F10100B0428046E4DB206A38442062A0
:100760002046FFF7ECFEBDE8FF9F0000FE4E0000B4
:100770002DE9F0418046D21D22F007020025D2E982
:100780000002F52915A614D0011E72F1000106DA47
:100790000023D0EB030063EB020211A608E0D8F8B7
:1007A00000108B0701D50FA602E0490701D50EA660
:1007B00001251146002408F1240704E000F0B5F9F2
:1007C00030323A55641C50EA0102F7D12B463246CA
:1007D00021464046BDE8F04100F0ECB900000000C1
:1007E0002D0000002B0000002000000030B400218C
:1007F00000F1240408E002F00705D208303542EA8F
:100800004372DB086554491C52EA0305F3D10468BE
:10081000002310A2250707D5A40600D421B1C4697E
:1008200001230DA2641EC46130BC00F0C3B910B531
:10083000044621461068FFF79CFE02462046BDE8AC
:1008400010400023D2E7D21D22F00701D1E9002396
:10085000CCE700000000000030000000F0B40D46BE
:100860000188090502D5214C7C4402E01F4C7C44E0
:100870000E34002100F1240608E002F00F071209EF
:10088000E75D42EA03721B097754491C52EA0307E9
:10089000F3D102780023120704D5702D06D009B1D8
:1008A000022311342246F0BC00F084B90123103435
:1008B000F8E770B504460D4621461068FFF759FE6B
:1008C000024629462046BDE870400023C6E7D21DF7
:1008D00022F00703D3E90023C0E70368126843F05E
:1008E000200303600823C3610023B7E7604D0000C5
:1008F0002DE9F05F894604464FF0000ADFF874B135
:10090000FB44C0F820A02046E1688847002874D046
:10091000252806D0D4E901219047206A401C206296
:10092000F1E700265F462046E16888472028054613
:1009300007DB312D05D2781910F8200C08B10643D9
:10094000F1E7B00701D526F00406C4F81CA0002783
:10095000C4F818A02A2D09D0284602F0E4FF38B3C5
:1009600004EB8708303DC8F8185019E059F8041B0B
:10097000204604EB87029161E1688847012F054614
:1009800018D1E069002820DA26F020061DE0D8F80A
:10099000180000EB800005EB40003038C8F8180064
:1009A0002046E1688847054602F0BDFF0028EED1E9
:1009B000012F0AD02E2D08D12046E16888477F1CE0
:1009C0000546022F46F02006C4DBA069002803DAA2
:1009D000404246F00106A061F00701D026F0100663
:1009E0006C2D0BD0682D09D04C2D39D06A2D35D007
:1009F000742D35D07A2D33D016E038E0E1682F46DB
:100A000020468847B842054609D16C2F26D04FF4BE
:100A10008060E168064320468847054604E06C2F65
:100A20001AD04FF4807006430DB3A5F14100192888
:100A300002D8203546F400664A46294620462660FC
:100A40004E46FFF7AFFB80B101280BD0F61D26F014
:100A5000070000F1080956E74020E4E78020D8E7C6
:100A60000020D6E706F104094DE7284652E7206A40
:100A7000BDE8F09FF04C000010B5203AC0F00B80AC
:100A8000B1E81850203AA0E81850B1E81850A0E892
:100A90001850BFF4F5AF5FEA027C24BFB1E81850EC
:100AA000A0E8185044BF18C918C0BDE810405FEA5C
:100AB000827C24BF51F8043B40F8043B08BF7047D8
:100AC000D20728BF31F8023B48BF11F8012B28BFDD
:100AD00020F8023B48BF00F8012B70474FF000029E
:100AE00000B5134694469646203922BFA0E80C5024
:100AF000A0E80C50B1F12001BFF4F7AF090728BFFF
:100B0000A0E80C5048BF0CC05DF804EB890028BF7A
:100B100040F8042B08BF704748BF20F8022B11F0A3
:100B2000804F18BF00F8012B704730B5B0F10A02B2
:100B30004FEA900E71F100034EEA817EB0EB0E0099
:100B400061EB91014FEA101E4EEA017E10EB0E00A0
:100B500041EB11114FEA102E4EEA016E10EB0E0020
:100B600041EB11214FEA104E4EEA014E10EB0E0000
:100B700041EB1141401841F100014FEAD00040EA39
:100B800041704FEAD10110EB80054FEA810444EA3D
:100B9000907444EB01046D1944EB0404521BA3410F
:100BA0004FF0000348BF0A3200D530BD401C41F170
:100BB000000130BD2DE9F0470D46994692460446A6
:100BC00000F124080168880604D5E06921F01001CD
:100BD000216000E00120A84201DD471B00E0002762
:100BE000A1697A1902EB0900081AA0612078C006F1
:100BF00002D42046FFF78DFC002608E0D4E901214D
:100C00001AF806009047206A401C761C20624E4568
:100C1000F4DB2078C0060AD52046FFF77AFC06E010
:100C2000D4E9012130209047206A401C2062381E00
:100C3000A7F10107F4DC07E0D4E9012118F8050069
:100C40009047206A401C2062281EA5F10105F3DCB4
:100C50002046FFF774FC2078000602D50220BDE88C
:100C6000F0870120FBE770472DE9FF4F0C461E4639
:100C70004FF0FF378BB0D2E90001DDF860800A90B9
:100C80008A46C1F30A5505B93D46002108464FF092
:100C90000000BAF1000F00F4400005DA00EB80001C
:100CA0004FF4400101EA50004FEA9059B9F1010FA9
:100CB00000DDB9460A9850EA4A000ED044F61050BA
:100CC000A5F2FF3545432F14B8F1000F1ED0754231
:100CD000291E1EDDC9F100021CE0B8F1010F4FF022
:100CE000000001D0302103E0F24305E02154401C14
:100CF000B042FBDB30460022002121540B99C1F8A1
:100D00000880C1E900200FB0BDE8F08FBD1B6D1C4D
:100D1000DEE74A4600DA694206A800F0F3FB06ABBC
:100D200093E8070003AB83E8070050460A9900F0F8
:100D30006CFC8DE80700A0F500501F380090039868
:100D4000002D0ADD42F21F014A460844002303A990
:100D50000390684600F0D5FE09E0A0F500504A4631
:100D60001F38002303A90390684600F0DFFE8DE8DA
:100D700007000004000C03D04FF0FF30410800E0F2
:100D80001046B8F1000F03D00022009215461EE075
:100D9000751E05D4FFF7C9FE303262556D1EF9D5B8
:100DA000B3460122084302D000227F1C04E02078D1
:100DB000302801D100227F1E002A099784D01DE02F
:100DC000112D07DAFFF7B1FE303262556D1C50EA83
:100DD0000102F5D1084302D00098C8B10EE000210D
:100DE000681E05E0235C625C63542254401E491C6B
:100DF0008142F7DBAB46A81B401E0990002004F897
:100E00000B000B98099AC0F80880C0E9002B7AE71C
:100E100011264FF0000857E72DE9F04F88460446A9
:100E2000D21D22F0070191B0D1E90001CDE90A01FC
:100E300002F065FD02460B98C00F01D02D2007E09F
:100E40002068810701D52B2002E0202101EAC000A3
:100E5000032A099001D0072A05DB034641462046B4
:100E600000F010FB0BE12078800601D5E06900E07E
:100E70000620B8F1650F814606D0B8F1660F18D08C
:100E8000B8F1670F70D131E00020B9F1110F009077
:100E900001DB112301E009F101030AAA01A90CA851
:100EA000FFF7E2FEDDE90C70002609F1010583463B
:100EB00047E001204B4600904FF000470AAA01A9E5
:100EC0000CA8FFF7D1FEDDE90DB00C995D460026B8
:100ED00010B909F101000D18B9EB050003D4C0F1F8
:100EE000FF3609F10105A5EB09002BE0B9F1010F6F
:100EF00001DA4FF001090020B9F1110F00904846C6
:100F000001DD112300E003460AAA01A90CA8FFF79E
:100F1000ABFEDDE90C704D460026834620780007C5
:100F20000AD4AB4500DA5D4601A8012D04DD411964
:100F300011F8011C302907D04F4502DA17F1040FD0
:100F400004DA012082460FE06D1EEEE7002F02DC7E
:100F5000ED1B3E4403E0781CA84200DD7D1CB81B5D
:100F600000F1010A4FF000472078000703D4AA459A
:100F700001DB4FF0FF3A0021B7F1004F0DF14308BC
:100F80008DF8431024D002202B23002F01DA7F425A
:100F90002D230A21021EA0F1010000DC5FB197FBA6
:100FA000F1FC97FBF1F201FB1C7C17460CF1300CB5
:100FB00008F801CDEEE7A8F10100037021880905CA
:100FC00001D5452100E06521A0F1010800F8011CD0
:100FD00009980FA9A1EB0807FF1D00B101204119D5
:100FE00001EBEA70A1693844081A401EA06120781C
:100FF000C00602D42046FFF78CFA099828B1D4E93C
:1010000001219047206A401C20622078C00622D52A
:101010002046FFF77EFA1EE0002E04DBB34502DD1A
:1010200001A8805D00E03020D4E901219047206ACA
:10103000401C2062761CAAF101005FEA000A0AD176
:1010400000F01CFAC0680168405CD4E901219047B7
:10105000206A401C2062281EA5F10105DCDC07E0A7
:10106000D4E9012118F8010B9047206A401C206246
:10107000381EA7F10107F3DC2046FFF760FA0320D2
:1010800011B041E62DE9F04F04460D46D21D22F085
:10109000070089B0D0E900974846394602F02FFC96
:1010A0000246F80F01D02D2307E02068810701D503
:1010B0002B2302E0202101EAC0038DF820300BB180
:1010C000012000E00020032A824601D0072A04DB29
:1010D0002946204600F0D6F93FE12078800601D469
:1010E0000D2500E0E569C7F30A560D2D49DA002108
:1010F0004FEA175B08464FF00000002F00F4400055
:1011000007DA00EB80004FF4400100EBD07001EAF9
:1011100060008115012901DD4FF0FF3100224FEA07
:10112000850CBCF1180F06D31346ACF118004FF034
:101130008052C24003E04FF4801323FA0CF30CF109
:101140000C0CBCF1200F04D3ACF1200C09FA0CF00C
:1011500001E007FA0CF000294FF0004801DD18B952
:101160000FE00ED140450CD319EB02095F4121B9C4
:10117000404502D19F4329EA0209BBEB175F00D02B
:10118000761C2088000502D57B48784402E07A4826
:101190007844193808AA302302F80A30037C0AF18F
:1011A0000101002E0AF1020A53546A4602DC4FF094
:1011B000300101E04FF031014FF001088DF80010CF
:1011C00002D0A6F2FF3603E059EA470100D06B4E89
:1011D000002D02DC2178090704D54FF002082E21EA
:1011E0008DF80110C44600210BE0C7F303433F0113
:1011F000C35C491C6D1E02F80830052908F101087E
:1012000001DA002DF1DC00210CE000EB1973491C20
:101210001B786D1E082902F808304FEA091908F1F9
:10122000010801DA002DF0DC21688B0602D516E0FA
:10123000A8F10108E04505DD02EB080313F8013CC5
:10124000302BF5D0B8F1000F09DD02EB080313F8DD
:10125000013C2E2B03D1090701D4A8F10108002D70
:1012600005DD3E2102F808106D1E08F10108407CE2
:10127000002E02F8080008F1010804DA2D20764259
:1012800002F8080002E02B2002F808000A214FF4BF
:101290007A70864208F101080BDB96FBF0F33033DD
:1012A00002F8083096FBF0F308F1010800FB136622
:1012B00001E0642E0CDB642096FBF0F3303302F87F
:1012C000083096FBF0F308F1010800FB136601E01B
:1012D0000A2E06DB96FBF1F0303002F8080008F128
:1012E000010896FBF1F001FB1060303002F80800B5
:1012F000A16908F1010808EB050202EB0A00081ACF
:10130000A0612078C00602D42046FFF702F9216AC6
:1013100008AE01EB0A00206204E0D4E9012116F8CE
:10132000010B9047BAF1010AF7D22078C00602D526
:101330002046FFF7EEF86E4609E016F8010B3E284E
:101340000FD0D4E901219047206A401C2062B8F1F7
:101350000108F2D22046FFF7F2F809B00320BDE8F9
:10136000F08F206A2844206203E0D4E90121302074
:1013700090476D1EEBD3F8E78A44000002FCFFFFA4
:1013800010B5436913B1AFF3008001E0FFF7FAF83D
:10139000012010BD127800F124010A7000224A7069
:1013A0000122EDE711684FF0FF32E9E710B543691C
:1013B00013B1AFF3008001E0FFF77CF9012010BD0D
:1013C000128800F1240182840022C2840122EDE708
:1013D00011684FF0FF32E9E770B516460C46054636
:1013E00000F044F8036893F80101012806D0FF2CAF
:1013F0000FD8185D68B101202C7070BDD3F80701BB
:101400003246214603F2071303442846BDE87040E4
:1014100018474FF0FF3070BD004870478C4A0020DD
:101420007546FFF7F9FFAE4605006946534620F0C2
:101430000700854618B020B5FEF778FFBDE82040CC
:101440004FF000064FF000074FF000084FF0000B80
:1014500021F00701AC46ACE8C009ACE8C009ACE833
:10146000C009ACE8C0098D467047000010B500F017
:1014700005F8001D10BD00BFC937000000487047C7
:10148000AC4A00202DE9F0411F46044603260168BE
:10149000072A01F4006004DB08B116A505E016A5D3
:1014A00003E008B115A500E015A521F010002060AB
:1014B000A069C01EA0610FB1401EA0612046FFF7C9
:1014C00028F84FB1D4E9012138469047206A401CE2
:1014D0002062C01C206206E0206AFAE7D4E90121FC
:1014E00015F8010B9047761EF8D22046FFF727F833
:1014F000BDE8F0814E414E006E616E00494E4600DF
:10150000696E66002DE9F047814616468AB0354877
:1015100078440DC88DE80D0032487844801C03AC37
:101520000DC884E80D0041F69B300844372190FB3C
:10153000F1F290FBF1F5A5F1800501FB12041B3CD3
:1015400002D56442012000E00020DFF898A0804628
:101550000027FA44AAF1BE0A0EE0E0070AD032469C
:10156000684607EB470101230AEB810100F0DEFA30
:101570008DE8070064107F1C002CEED1194F7F44CA
:10158000AE3F19E0E80715D007EB04100DF1180A7B
:1015900090E80E008AE80E00C068F04201D1981968
:1015A00008903246012306A903A800F0BFFA03AB56
:1015B00083E807006D10641C002DE3D14FF0010398
:1015C00032466946B8F1000F03A802D000F099FA3C
:1015D00001E000F0ABFAC9E90001C9F808200AB03F
:1015E000BDE8F0879441000010B50446AFF30080D9
:1015F0002046BDE81040FEF738BE00000149182023
:10160000ABBEFEE72600020070475FEA400C08BF51
:1016100091F0000F4FEA8C234FEAC12243EA515167
:101620004FEA1C5018BF00F5F0404FEA300018BFD9
:1016300041F000415FEA6C5C00F02980BCF1FF3FA3
:1016400008BF40F080407047130C06BF12044FF0F3
:10165000100C4FF0000C130E04BF12020CF1080C1A
:10166000130F04BF12010CF1040C930F04BF92007E
:101670000CF1020CD30F04BF52000CF1010C114607
:101680004FF00002A0F11F00A0EB0C00704711F01A
:10169000004F08BF704731F000413FF4D5AF0B0C4D
:1016A00006BF09044FF0100C4FF0000C0B0E04BFE6
:1016B00009020CF1080C0B0F04BF09010CF1040C1A
:1016C0008B0F04BF89000CF1020CCB0F04BF490043
:1016D0000CF1010CCCF12003A0EB0C0022FA03F377
:1016E00002FA0CF241EA030100F10100704720F018
:1016F0007F4C80EA030023F07F47ACEB070303F540
:101700007C5300F0004003F1FF032DE980494FEACC
:10171000154B09B44FEA144325EA0B4E24EA03485B
:101720000FF2042606EB132749083E785FEA3202DF
:1017300003FB0667C7F5000707FB06F64FEA5437B9
:101740004FEAD64606F1020607FB066CCCF1005CB8
:101750004FEA1C472CEA074C07FB06F40CFB06F586
:1017600004EB15464FEA961634BF00204FF00040B8
:101770004FEAD13706FB07FC4FEA1C4C0CFB0BF77A
:10178000D21B03FB0CF761EB07010CFB0EF7B0EB70
:10179000074072EB17420CFB08F734BFA2EB07427D
:1017A000B2EB074261EB17414FEA0C444FEA910755
:1017B00006FB07FC4FEA1C4C0CFB0BF7B0EBC740D9
:1017C00072EB573203FB0CF734BFA2EBC742B2EB0C
:1017D000C74261EB57310CFB0EF7B0EBC70072EB61
:1017E00057720CFB08F734BFA2EBC702B2EBC7027B
:1017F00061EB5771039F4FEA816141EA921104EB5B
:10180000CC044FEAD1374FEA826206FB07FC42EA7A
:1018100090124FEA80604FEA1C4C0CFB0BF7D21B76
:1018200003FB0CF761EB07010CFB0EF7B0EB074075
:1018300072EB17420CFB08F734BFA2EB0742B2EB86
:10184000074261EB17414FEA8C554FEA910704EBD1
:101850009C2406FB07FC4FEA1C4C0CFB0BF7B0EB7F
:10186000C74072EB573203FB0CF734BFA2EBC74201
:10187000B2EBC74261EB57310CFB0EF7B0EBC70080
:1018800072EB57720CFB08F734BFA2EBC702B2EB46
:10189000C70261EB577115EB4C254FEA816141EAB4
:1018A00092114FEA82624FEAD13742EA901206FB68
:1018B00007FC44F100044FEA80604FEA1C4C0CFB2B
:1018C0000BF7D21B03FB0CF761EB07010CFB0EF7C8
:1018D000B0EB074072EB17420CFB08F734BFA2EBEA
:1018E0000742B2EB074261EB174115EB1C154FEABB
:1018F000813141EA92414FEA823242EA90424FEA14
:1019000080304FEA0C7644F1000448EA03434EEA83
:101910000B484FF0000EB2EB080C71EB030724BF2D
:10192000624639464EEB0E0E4FF0000B0018524146
:1019300049414BEB0B0BB2EB080C71EB03077BF14E
:10194000000B24BF624639464EEB0E0E4FF0000BE3
:101950000018524149414BEB0B0BB2EB080C71EBF9
:1019600003077BF1000B24BF624639464EEB0E0E97
:1019700051EA020718BF46F0010616EB0E7655F144
:10198000000254F1000103D5BDE88901BDE80088DB
:10199000BDE88901BDE80048B619524141EB01019B
:1019A000A3F10103704780807F7E7D7C7B7A79780C
:1019B000777676757473727171706F6E6E6D6C6C14
:1019C0006B6A6A69686867666665646463636261B6
:1019D0006160605F5F5E5E5D5D5C5C5B5B5A5A5937
:1019E00059585857575656555555545453535252A3
:1019F0005251515050504F4F4F4E4E4D4D4D4C4CFB
:101A00004C4B4B4B4A4A4A49494948484847474743
:101A10004746464645454544444444434343434280
:101A2000424242414141002B9C4630D477002BD0AA
:101A30001CB54FEA370703B44FF010004FF0100108
:101A4000BAF1000F06D0BCF1000FDCBF40F0080077
:101A500040F008014FF000000FBCBDE810400BF152
:101A6000010BBBF1010F08BF5FEA170722BF12F19C
:101A7000010211F101014FF0004143F1000300F0B8
:101A8000004043EA00007047F9D35708D0E746EA20
:101A9000064613F1400F4FEA16461FDD13F1200FE3
:101AA000DFBF16430A46002120335B42BED0C3F19C
:101AB000200746EA064602FA07F74FEA164646EAC4
:101AC0000706C3F1200722FA03F201FA07F721FA09
:101AD00003F14FF0000342EA0702A7E746EA0206D5
:101AE00046EA06464FEA164646EA0106BCBF46EA03
:101AF0000646360C4FF000034FF000024FF0000195
:101B000094E72DE9804C9A46934670B491E83800EA
:101B100007C831EA400C48BF34EA430C03D5FFF74D
:101B2000E6FDFFF780FFF0BCBDE8008C2DE9804C9E
:101B30009A46934670B491E8380007C810F0804F79
:101B400008BF13F0804F03D100F005F8FFF76BFFDB
:101B5000F0BCBDE8008C20F07F4780EA030023F052
:101B60007F4C07EB0C03A3F57C5300F00040A3F17E
:101B7000FE0392F0000F00F0B38095F0000F00F02C
:101B800077802DE901494FEA11404FEA144621EAD6
:101B9000004800FB06FC24EA064708FB06F607FBA4
:101BA00008F800FB07F718EB06484CEB164C4FEA19
:101BB000124B18EB07484FEA15464CEB174022EA48
:101BC0000B4E0BFB06FC25EA06470EFB06F607FB51
:101BD0000EFE0BFB07F71EEB064E4CEB164C4FF0C0
:101BE00000061EEB074E4CEB174B18EB0B0840F1B1
:101BF000000018EB0E0B58EB000840F100008F1AA4
:101C00004FF000013CBFC943661B14BFB5EB040C89
:101C100000213CBFC943F61B4FEA17444EEA8E0E23
:101C200027EA04454FEA1C4704FB07622CEA074CED
:101C300005FB07F70CFB05F604FB0CFC16EB07464F
:101C400042EB174216EB0C4642EB1C421BEB06061E
:101C500058EB0202414146EA9E0601D5BDE80189E2
:101C6000B619524141EB0101A3F10103BDE801891D
:101C70004FEA14454FEA114724EA054621EA074C8A
:101C800005FB07F406FB07F70CFB06F105FB0CFC54
:101C900011EB074144EB17444FEA124711EB0C419B
:101CA00044EB1C4422EA074C05FB07F206FB07F74E
:101CB0000CFB06F605FB0CFC16EB074642EB174245
:101CC00016EB0C4642EB1C456A1854F1000148BF64
:101CD0007047B619524141EB0101A3F1010370476E
:101CE00095F0000F37D04FEA11424FEA144721EA2E
:101CF000024624EA074C02FB07F106FB07F70CFB40
:101D000006F402FB0CFC14EB074441EB17414FEACD
:101D1000154714EB0C4441EB1C4125EA074C02FB30
:101D200007F506FB07F70CFB06F602FB0CFC16EBAF
:101D3000074645EB174516EB0C4645EB1C421219BE
:101D400051F1000148BF7047B619524141EB010102
:101D5000A3F1010370474FEA14454FEA114724EA03
:101D6000054621EA074C05FB07F106FB07F70CFBCC
:101D700006F24FF0000605FB0CFC12EB074241EBAC
:101D8000174112EB0C4251EB1C4148BF70479218AF
:101D900041EB0101A3F101037047000008B500BF4A
:101DA00000BF30E00023642269461748006802F053
:101DB00011FC012827D19DF80000012823D102F051
:101DC000E1FD044616E000231A4669460E48006805
:101DD00002F000FC012803D19DF8000000B910E0DA
:101DE00000F03AF8C82002F0A9FA00F02BF8C82059
:101DF00002F0A4FA02F0C6FD001B41F288318842CD
:101E0000E1D300BF00BFCDE76C00002008B5012181
:101E1000082001F03BF810208DF803000001ADF818
:101E2000000003208DF802006946054800F021F803
:101E300000224FF48071024800F0B3F808BD0000A2
:101E4000000C014010B54FF48071024800F0A5F875
:101E500010BD0000000C014010B54FF48071024825
:101E600000F09DF810BD0000000C014000BFFEE72F
:101E700070472DE9F041024600250026002000238E
:101E80000024002791F803C00CF00F0591F803C05F
:101E90000CF0100CBCF1000F03D091F802C04CEA1A
:101EA000050591F800C0BCF1000F31D01468002086
:101EB0002BE04FF0010C0CFA00F3B1F800C00CEA73
:101EC00003069E4220D183004FF00F0C0CFA03F75B
:101ED000BC4305FA03FC4CEA040491F803C0BCF1CE
:101EE000280F06D14FF0010C0CFA00FCC2F814C008
:101EF0000AE091F803C0BCF1480F05D14FF0010C86
:101F00000CFA00FCC2F810C0401C0828D1D31460A1
:101F1000B1F800C0BCF1FF0F34DD546800202EE0A2
:101F200000F1080C4FF0010808FA0CF3B1F800C0FA
:101F30000CEA03069E4221D183004FF00F0C0CFAED
:101F400003F7BC4305FA03FC4CEA040491F803C010
:101F5000BCF1280F05D100F1080C08FA0CF8C2F802
:101F6000148091F803C0BCF1480F07D100F1080CB0
:101F70004FF0010808FA0CF8C2F81080401C08283D
:101F8000CED35460BDE8F0810246002093680B4038
:101F90000BB1012000E000207047416170470161F2
:101FA00070470AB1016100E04161704700BFFEE780
:101FB00010B5002408211348FFF7E6FF68B9142084
:101FC00002F0BCF900BF08210E48FFF7DDFF002832
:101FD000F9D0142002F0B2F9012410210948FFF7CA
:101FE000D3FF68B9142002F0A9F900BF10210548F9
:101FF000FFF7CAFF0028F9D0142002F09FF902244D
:10200000204610BD0018014008B50121402000F015
:102010003DFF48208DF803001820ADF80000032094
:102020008DF8020069460248FFF723FF08BD000053
:102030000018014010B520210148FFF7B0FF10BD86
:10204000000C014010B520210148FFF7A6FF10BD8C
:10205000000C014010B520210148FFF7A0FF10BD82
:102060000018014010B520210148FFF796FF10BD70
:102070000018014008B50121082000F007FF0121E8
:10208000402000F003FF10208DF803002020ADF861
:10209000000003208DF8020069460C48FFF7E9FEB6
:1020A00010208DF803002020ADF8000003208DF8EB
:1020B000020069460648FFF7DCFE20210348FFF7CF
:1020C0006EFF20210248FFF76AFF08BD000C0140A7
:1020D0000018014008B5002400BF28E000235A1E64
:1020E00069461348006802F075FA01281FD19DF86F
:1020F0000000012802D0022812D108E0601CC4B2FE
:10210000032C03DBFFF79EFFFFF7A4FF0EE0601C2C
:10211000C4B2032C03DBFFF7A5FFFFF78BFF05E03D
:102120000024FFF797FFFFF785FF00BF00BFD5E74B
:102130007000002000BFFEE7704710B5002000F0DF
:1021400095F9E22000F0F8F8012000F08FF910BDB9
:1021500010B5002000F08AF9E12000F0EDF8012030
:1021600000F084F910BD000008B50121402000F006
:102170008DFE10208DF803004FF4F050ADF80000F4
:1021800003208DF8020069460E48FFF772FE4820D2
:102190008DF803004FF48070ADF8000003208DF837
:1021A000020069460748FFF764FE002000F052F97C
:1021B000012000F05BF9002000F070F9002000F031
:1021C00061F908BD0018014010B5FFF7CDFF0821E7
:1021D000002000F06FF93F21012000F06BF9012190
:1021E000022000F067F90321084600F063F903219B
:1021F000042000F05FF90221052000F05BF90E21B8
:10220000062000F057F90321112000F053F90522B0
:1022100007490A2000F05FF9FFF79AFFFFF78DFFEB
:102220007021072000F046F900F070F810BD0000A2
:102230001C00002010B54FF480710248FFF7A4FE87
:1022400010BD00000018014070B50446002000F0E9
:102250000DF9204600F070F8FF2000F06DF80546FB
:10226000012000F003F9284670BD70B505460E4602
:10227000002000F0FBF8612000F05EF8002405E08B
:10228000FF2000F059F82855601CC4B2B442F7DBB7
:10229000012000F0EBF870BD10B5002000F0E6F86A
:1022A000FF2000F049F80446012000F0DFF8204646
:1022B00010BD000070B5FFF7EFFF05460020FFF7E7
:1022C000C3FF064606F0020018B90324FFF77CFF9F
:1022D00018E005F03000302803D10224FFF774FF26
:1022E00010E005F0400040280BD1012403210648EE
:1022F000FFF7BBFF4021072000F0DCF8FFF71DFFD0
:1023000000E00024204670BD2100002010B5002010
:1023100000F0A0F80020FFF797FF0446FF2C00D143
:1023200010BD44F003042146002000F0C3F8012052
:1023300000F090F800BFF3E770B50446002518E000
:1023400004F0800018B1012000F09CF802E00020A9
:1023500000F098F86006040E012000F09FF8FFF7E7
:1023600069FF08B144F00104002000F097F8681CF0
:10237000C5B2082DE4DB204670BD00008EB056E0EB
:10238000FFF798FF01284FD1294800788DF83400D5
:10239000274840788DF835009DF83400782803DD13
:1023A00002208DF836000AE09DF83400142803DA84
:1023B00001208DF8360002E000208DF836009DF8EF
:1023C0003600079000231A4607A91A48006802F051
:1023D000DFF900235A1E08A91748006802F0D8F94F
:1023E000012814D015A308221121002000F0E3F9E0
:1023F00000231A4601A91048006802F0EBF80023F8
:102400001A4608A90C48006802F0C2F900BF9DF8FE
:102410003500012808D1069000231A4606A90C4869
:10242000006802F0B5F900BF322001F087FFA7E78E
:1024300021000020700000206400002053656E64BD
:102440002064617461206572726F72210000000067
:102450006C00002010B5044622464FF4006102488B
:10246000FFF79FFD10BD00000018014010B50446A5
:1024700022464FF480510248FFF793FD10BD000043
:102480000018014010B5044622464FF4806102480E
:10249000FFF787FD10BD00000018014010B504468D
:1024A00022464FF400710248FFF77BFD10BD00008B
:1024B0000018014070B504460D460020FFF7D6FF16
:1024C00044F02000FFF738FF2846FFF735FF0120D2
:1024D000FFF7CCFF70BD2DE9F04105460E461746CB
:1024E0000020FFF7C3FF45F02000FFF725FF002481
:1024F00004E0305DFFF720FF601CC4B2BC42F8DB93
:102500000120FFF7B3FFBDE8F081000070B50021A6
:1025100000230F22C47804B3154C246804F4E0644B
:10252000C4F5E064210AC1F10403CA40447804FA06
:1025300003F184781440214309010E4C0678A1551B
:10254000047804F01F050124AC4005786D11AD003E
:1025500005F1E025C5F8004109E0047804F01F0505
:102560000124AC40044D0678761145F8264070BD34
:102570000CED00E000E400E080E100E002490143EE
:10258000024A1160704700000000FA050CED00E0FF
:1025900000200CE0002106E00022064B03EBC013F4
:1025A0005A544A1CD1B28029F6DB421CD0B208280A
:1025B000F0DB7047D40000202DE9F04304460D46BF
:1025C00016461F46284638E0224631E0002A2DDB19
:1025D0007F2A2BDC002829DB3F2827DC4FEAE07C20
:1025E00000EB5C7C4FEAEC0CDFF8588008EBCC1C6D
:1025F0001CF802C003464FEAE07800EB58784FEA37
:10260000E808A0EBC8094FF0010808FA09F82CEA1D
:10261000080C01464FEAE07800EB58784FEAE808EA
:10262000DFF8209009EBC81808F802C0511C0AB264
:10263000A1199142CADC411C08B2E9198142C3DCEC
:10264000BDE8F083D400002038B5002406E0002562
:1026500000E06D1CB5F57A7FFBD3641CB4F57A7F7E
:10266000F5D30121402000F011FC14208DF8030067
:1026700003208DF802000620ADF8000069460548E9
:10268000FFF7F7FB012000F0C5FB012000F0CCFBB9
:1026900038BD00000018014070B50546002411E067
:1026A00080212141294009B1012100E00021084693
:1026B00000F0BAFB012000F0ADFB002000F0AAFB07
:1026C000601CC4B2082CEBDB012000F0A3FB00204F
:1026D00000F0A0FB70BD10B5012000F0A5FB0120AB
:1026E00000F098FB002000F09FFB002000F092FB20
:1026F00010BD10B5002000F097FB012000F08AFB10
:10270000012000F091FB10BD10B5FFF79DFFAE203A
:1027100000F094FBD52000F091FB802000F08EFBB0
:10272000A82000F08BFB3F2000F088FBD32000F0B6
:1027300085FB002000F082FB402000F07FFBA12001
:1027400000F07CFBC82000F079FBDA2000F076FB7B
:10275000122000F073FB812000F070FBCF2000F00E
:102760006DFBD92000F06AFBF12000F067FBDB2055
:1027700000F064FB302000F061FBA42000F05EFB61
:10278000A62000F05BFB8D2000F058FB142000F029
:1027900055FBAF2000F052FBFFF7FAFE00F026FBDE
:1027A00010BD10B50246012000E050430B1EA1F100
:1027B0000101FAD110BD0FB470B5C2B005460E4686
:1027C00014464AA8019002A8019A4999FDF7C0FD54
:1027D00000200190234602AA3146284600F0E6F880
:1027E00042B070BC5DF814FB70B505460C46A01CE9
:1027F000C4B245F0B00000F021FB102141EA1410F2
:1028000000F01CFB04F00F0000F018FB70BD00008E
:10281000F8B506460F4614461D46082D0CD1A4F106
:1028200020000E4901EB00101023082239460090C9
:10283000304600F017F80FE0062D0DD1A4F120006E
:1028400000EB4000064901EB400008230622394610
:102850000090304600F006F8F8BD0000744C000807
:10286000645200082DE9FF4F80460E469146DDF880
:1028700034B0002500244A4631464046039BFFF70A
:102880009BFE00BF5EE0002558E008EB0500002835
:1028900052DB08EB05007F284EDC3046F11706EBD3
:1028A0005171C9100FB2F11706EB5171C910A6EBA7
:1028B000C10A002E05DA781E07B20AF108000FFAE5
:1028C00080FA3819002817DB3819072814DC381962
:1028D000224901EBC01008EB0501405C04FB0951E3
:1028E0001BF8011001FA0AF1084339191B4A02EBDF
:1028F000C11108EB050288543819401C00281BDB65
:102900003819401C072817DC3819401C134901EB03
:10291000C01008EB0501405C04FB09511BF80110D5
:10292000CAF10802114108433919491C0B4A02EB4C
:10293000C11108EB05028854681CC5B24D45A4DBE3
:10294000601CC4B20399481EC11700EB51710122EB
:1029500002EBE101A14296DCBDE8FF8FD40000202C
:102960002DE9F0470646894617461D46DDF82080CA
:10297000002417E0281B411E0A20FFF712FFB7FBB7
:10298000F0F00A21B0FBF1F201FB120000F1300A75
:1029900004FB086108B2434652464946FFF738FF38
:1029A000601CC4B2AC42E5DBBDE8F0872DE9FE4F08
:1029B00007468A46144698460025AB460026CBE0DB
:1029C000605D00F0800058B94FF0010B2846691C8B
:1029D0008DB2205C8DF8040000208DF805006BE0BE
:1029E000605D00F0E000C02814D14FF0020B2846D3
:1029F000691C8DB2205C8DF80400605D00B9AFE009
:102A00002846691C8DB2205C8DF8050000208DF8E9
:102A1000060051E0605D00F0F000E0281DD14FF0AD
:102A2000030B2846691C8DB2205C8DF80400605DA4
:102A300000B995E02846691C8DB2205C8DF8050030
:102A4000605D00B98CE02846691C8DB2205C8DF871
:102A5000060000208DF807002EE0605D00F0F80011
:102A6000F02826D14FF0040B2846691C8DB2205C5B
:102A70008DF80400605D00B972E02846691C8DB2D3
:102A8000205C8DF80500605D00B969E02846691C8E
:102A90008DB2205C8DF80600605D00B960E02846CC
:102AA000691C8DB2205C8DF8070000208DF80800AD
:102AB00002E0681C85B24FE0BBF1010F0BD19DF81D
:102AC0000420B91908B243465146FFF7A1FE06EBB0
:102AD000080086B23FE04FF000090EE009EB8901E3
:102AE00001EB4911204A881801A9FDF7CFFC00B974
:102AF0000EE009F101001FFA80F909EB890101EBF1
:102B00004911194A881819A1FDF7C0FC0028E5D120
:102B100000BFB8F1080F12D109EB890000EB491092
:102B200011490844401DB919009008B210231A46F3
:102B30005146FFF797FE06F1100086B20BE0B8F1A0
:102B4000060F08D1B91908B206233F225146FFF7F4
:102B50005FFEB01D86B200BF605D00287FF430AF1D
:102B600000BFBDE8FE8F00009E540008000000007A
:102B70008EB00124002700BF7BA306220021084657
:102B8000FFF719FE7AA306220A210020FFF713FEA1
:102B900079A3062214210020FFF70DFE78A3062258
:102BA0001E210020FFF707FE78A30622282100201F
:102BB000FFF701FED6E0FFF7FBF9054600231A46B2
:102BC00008A97548006801F005FD012836D10620E6
:102BD00000909DF83420032328213E20FFF7C0FEFB
:102BE0009DF8340078280CDD6CA3062232210020E9
:102BF000FFF7E1FD6EA3062232210020FFF7DBFD87
:102C00001CE09DF8340014280CDA64A3062232215B
:102C10000020FFF7D0FD69A3062232210020FFF734
:102C2000CAFD0BE05DA3062232210020FFF7C3FDA1
:102C300065A3062232210020FFF7BDFD012D1FD123
:102C4000601CC4B20A2C00DD012463A3062200210B
:102C50003E20FFF7B0FD60A306220A213E20FFF7C9
:102C6000AAFD5DA3062214213E20FFF7A4FD062045
:102C7000052322461E2100903E20FFF771FE20E032
:102C8000022D1ED1601EC4B2002C00DC092452A308
:102C9000062200213E20FFF78EFD4FA306220A21C7
:102CA0003E20FFF788FD4CA3062214213E20FFF7AB
:102CB00082FD0620052322461E2100903E20FFF7BC
:102CC0004FFE601E0603172202A9304600F070FD79
:102CD0009DF8080038B39DF80800FF2823D09DF820
:102CE0001200FF281FD0062302AA00213E20FFF772
:102CF0005DFE062000909DF8122005230A213E204B
:102D0000FFF72EFE06230DF1130214213E20FFF7DC
:102D10004DFE062000909DF81B2005231E213E201D
:102D2000FFF71EFE11E006232EA200213E20FFF732
:102D30003DFE29A306220A213E20FFF73CFD26A3E3
:102D4000062214213E20FFF736FD01F01BFEC01BBA
:102D5000642804D300F04AF801F014FE07460A2064
:102D600001F0ECFA27E700004E616D653A000000C3
:102D70004167653A000000005365783A00000000A2
:102D8000426564206E756D3A0000000044726970FF
:102D900020526174653A0000640000202020202049
:102DA00020202020202020202020202000000000A3
:102DB000414C41524D3A204849474800414C41520C
:102DC0004D3A204C4F5700004E6F726D616C20736E
:102DD0007065656400000000202020202020202055
:102DE00020202000456D70747900000010B500248B
:102DF0000BE000212046FFF7F7FC054901EBC4106A
:102E0000802100F02BF8601CC4B2082CF1DB10BD4F
:102E1000D400002010B50446224602210148FFF7E5
:102E2000C0F810BD0018014010B504462246042128
:102E30000148FFF7B6F810BD0018014010B5044670
:102E4000FFF749FC7820FFF727FC0020FFF724FC60
:102E50002046FFF721FCFFF74CFC10BD70B505467E
:102E60000E46FFF738FC7820FFF716FC4020FFF7EE
:102E700013FC002404E0285DFFF70EFC601CC4B2C4
:102E8000B442F8DBFFF735FC70BD000029B1064AFB
:102E900092690243044B9A6104E0034A92698243B7
:102EA000014B9A61704700000010024030B50021CC
:102EB0000022002400232D4D6D6805F00C0121B186
:102EC000042905D0082923D105E0294D056022E019
:102ED000274D05601FE0254D6D6805F47012234DE8
:102EE0006D6805F48034022505EB92421CB9214D32
:102EF000554305600BE01D4D6D6805F400351DB1AF
:102F00001C4D5543056002E0194D5543056002E034
:102F1000174D056000BF00BF144D6D6805F0F0014E
:102F20000909154D6B5C0568DD4045600F4D6D6806
:102F300005F4E061090A104D6B5C4568DD40856071
:102F40000A4D6D6805F46051C90A0B4D6B5C45680C
:102F5000DD40C560054D6D6805F44041890B074DA6
:102F60006B5CC568B5FBF3F5056130BD0010024030
:102F700000127A0000093D0000000020100000202F
:102F80004FE028480078012848D127480578681E76
:102F9000C4B2012D3FDB0A2D3DDCC4EBC40101EBC3
:102FA0000411224A88181721FDF74DFAC4EBC40119
:102FB00001EB04111D4A88181D49FDF7DBF91D4876
:102FC0000078C4EBC40101EB0411184A1144887263
:102FD000C4EBC40101EB0411114401F10B001649CB
:102FE000FDF7C8F9C4EBC40000EB04100F49084416
:102FF000C574681E0603304600F01CFC0A2001F070
:103000009DF9C4EBC40000EB0410084A8118172294
:10301000304600F09BFB002002490870322001F08E
:103020008DF9AEE72400002036000020DE040020E9
:10303000D40400202D0000202E00002000B587B011
:1030400001218803FFF722FF01210420FFF71EFF63
:1030500018208DF81B004FF40070ADF81800032005
:103060008DF81A0006A92148FEF703FF48208DF8C5
:103070001B004FF48060ADF8180003208DF81A0093
:1030800006A91A48FEF7F5FE4FF4165002900020EC
:10309000ADF814000C20ADF812000020ADF81000BF
:1030A000ADF80E00ADF80C0002A9114800F0ACFA22
:1030B000012240F225510E4800F081FA4FF4A06041
:1030C000FFF75CFA25208DF8040001208DF8070039
:1030D0008DF805008DF8060001A8FFF717FA012109
:1030E000034800F036FA07B000BD000000080140B8
:1030F0000038014010B500F001F810BD0CB50020FB
:10310000019000903348006840F4803031490860F5
:1031100000BF3048006800F4003000900198401C67
:103120000190009818B90198B0F5A06FF1D1294825
:10313000006800F4003010B10120009001E0002090
:1031400000900098012843D12348006840F0100007
:10315000214908600846006820F00300086008461E
:10316000006840F0020008601A4840681949486049
:103170000846406848600846406840F480604860FF
:103180000846406820F47C1048600846406840F4D7
:10319000E81048600846006840F08070086000BF92
:1031A0000C48006800F000700028F9D00948406819
:1031B00020F00300074948600846406840F00200DC
:1031C000486000BF0348406800F00C000828F9D1AF
:1031D0000CBD0000001002400020024010B500BFEE
:1031E000BF2080F31188BFF34F8FBFF36F8F00BFF5
:1031F00001F0CEFB18B14FF080500449086000BFC9
:10320000002080F3118800BF10BD000004ED00E035
:1032100010B51348006840F00100114908600846E5
:103220004068104908400E494860084600680E4949
:1032300008400B4908600846006820F480200860B8
:103240000846406820F4FE0048604FF41F00886084
:10325000FFF750FF4FF000600449086010BD000008
:10326000001002400000FFF8FFFFF6FE08ED00E04E
:1032700010B540F22551A04800F077F901286ED131
:103280009D4800F02DFAC4B29C48007807282FD240
:10329000DFE800F0042F4B6A86A4FC004E2C07D117
:1032A00000209749087001209649087093490870DA
:1032B000412C07D1012092490870924908700220E0
:1032C0008E490870532C08D102208D4908700120C6
:1032D0008C490870032089490870422C08D10320CA
:1032E00087490870012087490870042083490870C5
:1032F000FAE08548006883490978405CA04210D113
:1033000080480078401C7F4908707F480068097831
:10331000405C48B905207949087000207B49087055
:1033200002E0002075490870DEE0794800687549C0
:103330000978405CA04213D172480078401C714962
:103340000870734800680978405C60B905206B49D3
:10335000087000206D4908706E49087003E0CAE0EB
:10336000002066490870BFE06B480068654909782D
:10337000405CA04210D163480078401C614908704D
:10338000654800680978405C48B905205B490870C9
:1033900000205E49087002E0002058490870A3E050
:1033A0005E48006857490978405CA04212D15548F0
:1033B0000078401C53490870584800680978405C00
:1033C00058B905204D4908700020504908705149EE
:1033D000087002E000204949087085E00D2C29D1D1
:1033E0000620464908704648007830B101280AD0C6
:1033F000022810D003281CD113E000204849434A7A
:103400001278885415E04348007846490870002037
:10341000404908700DE0002043493C4A1278885426
:1034200007E03C480078414908700020394908709D
:1034300000BF4FE03248007830B1012812D0022896
:1034400025D0032845D130E030480078092808D23B
:1034500033482E49097844542C480078401C2B49A5
:10346000087036E0302C0BDB392C09DCA4F130007D
:103470002849097801EB810100EB410025490870DA
:1034800022480078401C2149087022E023E01F48B0
:103490000078072808D224481C49097844541B485E
:1034A0000078401C1949087013E0302C0BDB392CD4
:1034B00009DCA4F130001749097801EB810100EB28
:1034C00041001449087011480078401C0F490870E9
:1034D00000BF00BF08E00A2C05D101201449087084
:1034E00000200649087000BF00BF40F22551024885
:1034F00000F020F800BF10BD00380140740000202B
:1035000077000020760000203800002075000020A1
:103510003C000020780000204000002044000020F3
:10352000D40400202D0000202E00002036000020B2
:103530002400002010B50022002340F66A14A142A6
:1035400000D100BF0A1201249440A3B2DC430480DE
:1035500010BD21B1828942F40052828104E0828947
:103560004DF6FF731A408281704770B50246002401
:1035700000230025002040F66A16B14200D100BFAA
:10358000C1F3421501F01F03012606FA03F3012DD2
:1035900002D19689334006E0022D02D1168A3340CB
:1035A00001E0968A33400C12012606FA04F41688CC
:1035B000344013B10CB1012000E0002070BDF0B523
:1035C0000346002400260025002040F66A17B94271
:1035D00000D100BF1846C1F3421401F01F060127B5
:1035E00007FA06F5012C01D10C3004E0022C01D1C0
:1035F000103000E014301AB107682F43076002E072
:103600000768AF430760F0BD2DE9F04786B0054677
:103610000E460024A24600BFA1460027B08900B193
:1036200000BF2F462C8A4CF6FF700440F0880443FC
:103630002C82AC894EF6F3100440B08831890843DF
:10364000718908430443AC81AC8A4FF6FF400440C3
:10365000B0890443AC8201A8FFF728FC1F488742C9
:1036600002D1DDF810A001E0DDF80CA0A88900F47B
:10367000004040B10AEBCA0000EB0A103168490073
:10368000B0FBF1F807E00AEBCA0000EB0A10316862
:103690008900B0FBF1F86420B8FBF0F004012009C8
:1036A000642101FB1089A88900F4004040B1322058
:1036B00000EBC900B0FBF1F000F00700044308E0A4
:1036C000322000EB09106421B0FBF1F000F00F0094
:1036D00004432C8106B0BDE8F087000000380140AB
:1036E00001468888C0F30800704700BFFEE700006D
:1036F00008B501218020FFF7C9FB10208DF80300D9
:103700004FF4E040ADF8000003208DF80200694658
:103710000D48FEF7AEFB48208DF803004FF4004043
:10372000ADF8000003208DF8020069460648FEF758
:10373000A0FB012000F09AF8002000F0AFF8002074
:1037400000F0A0F808BD0000001C01402DE9F04188
:1037500004460E46174600F0C7F8002000F086F831
:10376000022000F049F8C4F3074000F045F8C4F324
:10377000072000F041F8E0B200F03EF8002504E038
:10378000705D00F039F8681C85B2BD42F8DB01209D
:1037900000F06CF800F08EF8BDE8F08110B54FF441
:1037A00000410248FEF7F0FB10BD0000001C014084
:1037B0002DE9F04104460E461746002000F056F869
:1037C000032000F019F8C4F3074000F015F8C4F323
:1037D000072000F011F8E0B200F00EF8002504E038
:1037E000FF2000F009F870556D1CBD42F8D3012090
:1037F00000F03CF8BDE8F08170B5054600260024D5
:1038000014E08021214101EA050000F03BF801208D
:1038100000F044F8FFF7C2FF012802D180202041C8
:103820000643002000F03AF8601CC4B2082CE8DB24
:10383000304670BD10B5044600F056F8002000F088
:1038400015F82020FFF7D8FFC4F30740FFF7D4FF97
:10385000C4F30720FFF7D0FFE0B2FFF7CDFF012050
:1038600000F004F800F026F810BD000010B5044682
:1038700022464FF480410248FEF793FB10BD000042
:10388000001C014010B5044622464FF40051024886
:10389000FEF787FB10BD0000001C014010B5044678
:1038A00022464FF480510248FEF77BFB10BD00001A
:1038B000001C014010B50020FFF7D8FF0520FFF7DE
:1038C0009BFF084C02E0641E04B906E0FF20FFF7EE
:1038D00093FF00F001000028F5D100BF0120FFF7A1
:1038E000C5FF10BDA086010010B50020FFF7BEFF88
:1038F0000620FFF781FF0120FFF7B8FF10BD490048
:1039000050EAC12018BF04204A0D18BF40F0010042
:1039100040F2FF72B2EB515F08BF40F00200012895
:1039200008BF0520704730380A2801D201207047AF
:10393000002070471CB5022000F026FE24490860D4
:103940000846006838B9FEF723FE22A308220021AA
:103950000846FEF730FF00221721052000F01EFE6A
:103960002249086000221721052000F017FE204997
:10397000086000220121084600F010FE1D49086081
:1039800000220121084600F009FE1B490860174883
:10399000006840B11648006828B11648006810B1A8
:1039A0000846006838B9FEF7F3FD14A30822002189
:1039B0000846FEF700FF1648012100238022CDE9CA
:1039C000001014A1164800F0ADFF00F059FD1CBD19
:1039D00060000020437265617465207175657565CE
:1039E000736574206572726F72210000640000209C
:1039F000680000206C0000207000002043726561A8
:103A00007465207175657565206572726F7221002D
:103A10004800002073746172745F7461736B0000FE
:103A20001D410008FEF7F0FAFEF724FBFEF76CFEDE
:103A3000FEF7ECF9FEF7C8FBFFF700FBFFF758FEB7
:103A4000FFF778FF00BFFEE72DE9F04105460E467F
:103A50001C4807681C480068001D00F0D5FB50B9E1
:103A60001948006890F82C1001208840174909680F
:103A7000814316480160681C38B936B112480168A4
:103A8000091D134800F0FEFB1AE07C190E4800687F
:103A90004460BC4207D20C480168091D0D4800680B
:103AA00000F0D6FB0CE008480168091D0A480068D0
:103AB00000F0CEFB09480068844201D20748046048
:103AC000BDE8F081900000207C00002094000020E0
:103AD000780600208400002080000020AC00002038
:103AE00010B5044600F0DAFB23480068401C224968
:103AF00008602248006840B9204804600846006811
:103B000001280DD100F074F90AE01D48006838B9A9
:103B10001A480068C06AE16A884201D81748046000
:103B200018480068401C1749086094F82C100120C0
:103B3000884015490968084313490860E16A01EBA8
:103B40008101124A02EB8100211D00F09BFB00F075
:103B5000B7FB0B48006868B108480068C06AE16AB2
:103B6000884207D24FF0805009490860BFF34F8F59
:103B7000BFF36F8F10BD00008C0000207C00002080
:103B800098000020A800002094000020C405002018
:103B900004ED00E070B523E000F0A4FC13480068D9
:103BA00008B9012000E00020054600F0BFFFBDB9C4
:103BB00000F074FB0D48C068C468201D00F024FBB1
:103BC0000B480068401E0A4908600A480068401E09
:103BD0000849086000F074FB204600F057F800BF69
:103BE000044800680028D7D170BD0000640600209A
:103BF0008C0000208800002070B504460D46206C23
:103C000070B1216CE0680844E0606168E068884257
:103C100001D32068E0602846226CE168FCF7CEFB07
:103C200070BD2DE9F04104460F4615464FF00008DF
:103C3000A66B206C28B37DB93946226CA068FCF7CE
:103C4000BDFB216CA0680844A060D4E90110884243
:103C500017D32068A06014E03946226CE068FCF7B6
:103C6000ADFB216CE068401AE0602168E0688842A2
:103C700003D2216C6068401AE060022D01D106B1C8
:103C8000761E701CA0634046BDE8F08110B5044666
:103C9000206B00F025FB204600F022FB10BD000049
:103CA00030B54FF48843174800F007042CB1C01D0D
:103CB00020F00700134C041B1B1B0246124C226011
:103CC0000024114D6C60D018083820F007000F4C0C
:103CD000206000240D4D2D686C600C4D2D682C600B
:103CE0001146441A4C60094C24680C60084D4C681D
:103CF0002C60084D4C682C604FF00044064D2C6041
:103D000030BD00008C060020BC000020C400002054
:103D1000CC000020C8000020D000002000BFFFF72A
:103D200039FF064800680128F9D94FF0805004494E
:103D30000860BFF34F8FBFF36F8FF0E7C40500201B
:103D400004ED00E02DE9F04106460D461746984681
:103D5000069C0DB9246000E02760E663256401211C
:103D6000204600F0D5FC0020A064BDE8F0812DE9DC
:103D7000FF5F80460E469146DDE90E7A109CA9F160
:103D80000100216B01EB800B2BF0070B002507E0F6
:103D9000715D04F134004155705D00B902E06D1CA5
:103DA000102DF5D300BF002143200155052F00D36E
:103DB0000427E762201D00F048FA04F1180000F023
:103DC00044FA2461C7F10500A061646200206064C8
:103DD00084F8480041465846039A00F08DF9206067
:103DE000BAF1000F01D0CAF80040BDE8FF9F000003
:103DF00010B5002407E004EB84010F4A02EB8100B8
:103E000000F016FA641C052CF5D30C4800F010FAEB
:103E10000B4800F00DFA0B4800F00AFA0A4800F0CF
:103E200007FA0A4800F004FA0448094908600448FF
:103E30000849086010BD0000C405002028060020C5
:103E40003C06002050060020640600207806002072
:103E5000800000208400002010B50146164800E0D4
:103E6000006803688B42FBD30246436813448B42CD
:103E700004D143684C682344436001460A464B68BA
:103E800013440468A34211D10C4C03682468A34274
:103E900008D04B680468646823444B6003681B685F
:103EA0000B6005E0054B1B680B6001E003680B60CD
:103EB000884200D0016010BDBC000020C40000207A
:103EC00070B5054600F0EAF9A86B08B9012400E0D6
:103ED000002400F0F5F9204670BD70B5054600F0ED
:103EE000DDF9A86BE96B884201D1012400E00024D0
:103EF00000F0E6F9204670BD2DE9F3410D4600982B
:103F0000846C0027A06BE16B88421BD294F945605A
:103F10002A4669462046FFF784FE0746701C60B9B2
:103F2000606A08B9012000E0002050B904F12400C3
:103F300000F0BCFD28B1012703E0701C40B284F8FA
:103F4000450000BF3846BDE8FC8100000A49096809
:103F5000096809B9012100E0002121B14FF0FF31CA
:103F6000064A116006E004490968C968C868034A3E
:103F7000416811607047000080000020AC00002004
:103F800000BFBF2080F31188BFF34F8FBFF36F8F47
:103F900000BF00BFFEE770B5044600F07FF994F95A
:103FA00045501AE0A06C38B100212046FFF7A4FF6D
:103FB00088B100F043FA0EE0606A08B9012000E021
:103FC000002038B904F1240000F070FD18B100F0B1
:103FD00035FA00E003E0681E45B2002DE2DC00BFC8
:103FE000FF2084F8450000F06BF900F057F994F9D0
:103FF000445010E0206908B9012000E0002048B9D1
:1040000004F1100000F052FD08B100F017FA681E2C
:1040100045B200E001E0002DECDC00BFFF2084F899
:10402000440000F04DF970BD2DE9F04105464FF018
:10403000000800F057FA2B48006808B9FFF730FE77
:10404000294800682840002847D145B1083505F0C7
:10405000070020B105F00700C0F108000544002D5D
:104060003BD022480068854237D8214E304604684C
:1040700001E0264624686068A84202D22068002831
:10408000F7D118480068844227D0306800F108084A
:10409000206830606068401B102807D96719606885
:1040A000401B786065603846FFF7D6FE0F496068B0
:1040B0000968081A0D490860084600680D49096832
:1040C000884203D2094800680A49086006496068C6
:1040D0000968084360600020206000F027FD40462A
:1040E000BDE8F081C4000020D0000020C8000020FE
:1040F000BC000020CC000020001F4FF08073036044
:10410000001F21F001030360001F034B03601438FC
:104110000260203870470000813F00081CB504464B
:1041200000F0BCF81C4802210023CA01CDE90010B0
:104130001AA11E4800F0F6FB1D48012100230A02C7
:10414000CDE900101BA11E4800F0ECFB1D48012129
:1041500000238022CDE900101BA11E4800F0E2FBE5
:104160001D48012100238022CDE900101BA11F481A
:1041700000F0D8FB1E48012100238022CDE9001069
:104180001CA11F4800F0CEFB1E48006800F0F0F8AC
:1041900000F096F81CBD00004C0000204E52463244
:1041A000344C30315F5441534B0000007D230008F4
:1041B000500000204F4C45445F5441534B000000D9
:1041C000712B000854000020424545505F54415374
:1041D0004B0000009D1D0008580000204D4F4E4927
:1041E000544F525F5441534B00000000D52000084B
:1041F0005C00002053455249414C5F5441534B00F1
:10420000812F00084800002001460A69D1E90130E9
:104210009860D1E9010358605068884201D18868EC
:104220005060002008611068401E106010687047E0
:1042300000F1080141604FF0FF31816000F1080199
:10424000C160016100210160704700210161704778
:1042500010B502460B685C1C0CB9106907E002F14E
:10426000080000E04068446824689C42FAD9446829
:104270004C604C68A160886041600A611468641CED
:10428000146010BD42684A6093688B6093685960FF
:104290009160086103685B1C0360704700BFBF202A
:1042A00080F31188BFF34F8FBFF36F8F00BF0348B8
:1042B0000068401C0149086070470000B8000020F9
:1042C00006480068401E054908600846006820B995
:1042D000002080F3118800BF00BF7047B8000020A5
:1042E00070B506463546D6B1083D2C460C49606887
:1042F0000968084098B1206888B909496068096868
:104300008843606000F0EEF8064960680968084478
:10431000044908602046FFF79FFD00F007FC70BDD0
:10432000D0000020C800002003484FF0E021486181
:1043300007200861704700003F19010070B504466E
:10434000002544B100F0CEF800212046FFF77CFBA9
:1043500000F0ECFB05463DB94FF080500349086082
:10436000BFF34F8FBFF36F8F70BD000004ED00E00F
:1043700070B50546FFF792FF15B92748006800E0C1
:1043800028460446201DFFF73FFF78B9E06A00EB9E
:104390008000224951F8200040B994F82C100120E7
:1043A00088401F49096881431D480160A06A18B10F
:1043B00004F11800FFF728FF1A480068401C19494B
:1043C000086015480068844209D1211D1648FFF78E
:1043D00059FF16480068401C1449086009E0144859
:1043E0000068401E124908602046FFF74FFCFFF7A7
:1043F000ADFDFFF765FF0F48006858B1064800683B
:10440000844207D14FF080500B490860BFF34F8FB3
:10441000BFF36F8F70BD00007C000020C40500203A
:1044200094000020A80000206406002088000020DE
:104430008C0000209800002004ED00E001200149DC
:1044400008607047A000002070B505460C4605487E
:10445000016818312846FFF7FBFE01212046FFF7CF
:10446000F3FA70BD7C00002003490968016003492C
:104470000968416070470000A400002090000020FF
:104480001CB5114800210B468022CDE900100FA178
:10449000104800F047FA0446012C14D100BFBF2099
:1044A00080F31188BFF34F8FBFF36F8F00BF4FF0C2
:1044B000FF300949086001200849086000200849C8
:1044C000086000F047F81CBDB000002049444C458E
:1044D000000000001D3D0008AC00002098000020F6
:1044E0009000002002480068401C014908607047A5
:1044F000B40000201248006818B10120114908607A
:104500001DE000200F4908600F480068B0FA80F0F5
:10451000C0F11F0101EB81020C4B03EB82004268EA
:104520005268426000F108024368934202D1426837
:10453000526842604268D268054B1A6000BF7047FB
:10454000B4000020A000002094000020C40500203A
:104550007C00002010B50A48006840F47F0008493C
:1045600008600846006840F07F400860FFF7DCFE06
:10457000002004490860FBF791FE002010BD0000F8
:1045800020ED00E0B800002070B5044600220421B0
:10459000204600F003F80546284670BD2DE9F84393
:1045A00007460D4690460DB9002601E007FB05F6CB
:1045B00006F14C00FFF738FD044644B104F14C0904
:1045C00043464A46294638460094FFF7BBFB20463F
:1045D000BDE8F8832DE9FF4782B0054689461E46AF
:1045E0004FF0000A2C4600BFFFF758FED4F8388081
:1045F000B8F1000F36D0E76849462046FFF7FCFACD
:10460000B6B9A8F10100A063206908B9012000E053
:10461000002008BB04F1100000F048FAE0B14FF0B0
:1046200080503A490860BFF34F8FBFF36F8F13E09C
:10463000E760606A08B9012000E0002060B904F179
:10464000240000F033FA38B14FF080502F49086051
:10465000BFF34F8FBFF36F8FFFF732FE012006B01D
:10466000BDE8F087049818B9FFF72AFE0020F6E7A6
:10467000BAF1000F04D16846FFF7F6FE4FF0010AC9
:10468000FFF71EFEFFF72EFFFFF708FE94F9440028
:10469000401C10B9002084F8440094F94500401CE7
:1046A00010B9002084F84500FFF70AFE04A9684607
:1046B00000F00AF9F0B92046FFF702FCA0B104F1BE
:1046C00024000499FFF7C0FE2046FFF764FC00F0C9
:1046D0002DFA002888D14FF080500C490860BFF3B4
:1046E0004F8FBFF36F8F7FE72046FFF754FC00F03A
:1046F0001DFA79E72046FFF74EFC00F017FA204636
:10470000FFF7DEFB0028EED00020A8E704ED00E074
:1047100070B505460E462C46FFF7C0FDD4E90F12D2
:10472000206801FB020060600020A0632068A06098
:10473000E06B401E226C216800FB0210E060FF204D
:1047400084F8440084F845009EB9206908B9012026
:1047500000E00020A8B904F1100000F0A7F980B132
:104760004FF0805009490860BFF34F8FBFF36F8F40
:1047700007E004F11000FFF75BFD04F12400FFF7F0
:1047800057FDFFF79DFD012070BD000004ED00E026
:104790002DE9FF4383B0074688461D464FF00009C8
:1047A0003C4600BFFFF77AFDA06BE16B884201D366
:1047B000022D38D12A4641462046FFF732FA0646F6
:1047C000A06C68B129462046FFF796FB28B34FF04E
:1047D00080503C490860BFF34F8FBFF36F8F1CE0E0
:1047E000606A08B9012000E0002068B904F12400E3
:1047F00000F05CF988B14FF0805032490860BFF397
:104800004F8FBFF36F8F08E03EB14FF080502D49BE
:104810000860BFF34F8FBFF36F8FFFF751FD01208B
:1048200007B0BDE8F083059818B9FFF749FD0020EF
:10483000F6E7B9F1000F04D101A8FFF715FE4FF01C
:104840000109FFF73DFDFFF74DFEFFF727FD94F946
:104850004400401C10B9002084F8440094F945003D
:10486000401C10B9002084F84500FFF729FD05A978
:1048700001A800F029F8F0B92046FFF72EFBA0B1FF
:1048800004F110000599FFF7DFFD2046FFF783FBD9
:1048900000F04CF9002885D14FF08050094908609C
:1048A000BFF34F8FBFF36F8F7CE72046FFF773FB9B
:1048B00000F03CF976E72046FFF76DFB00F036F993
:1048C0000020ADE704ED00E070B504460D46FFF7AB
:1048D000E5FC124802682868401C08B9002619E067
:1048E0000F4920680968884204D06068904201D866
:1048F00001260FE06068101A2968884209D22868EA
:104900006168511A401A28602046FFF7ADFD002665
:1049100000E00126FFF7D4FC304670BD9000002077
:10492000A40000202DE9FF4F85B080468946174638
:10493000DDE912ABB800FFF777FB064656B14C2015
:10494000FFF772FB04460CB1266304E03046FFF724
:10495000C7FC00E000247CB10020CDE900ABCDE92C
:1049600002403A4649464046089BFFF700FA204677
:10497000FFF7B6F8012501E04FF0FF35284609B0F2
:10498000BDE8F08F014908687047000090000020E2
:104990002DE9F04100273A480068002863D13948E2
:1049A0000068451C374805608DB93748D0F800804D
:1049B00036480068344908603448C0F800803448FC
:1049C0000068401C32490860FFF7C0FA00BF314858
:1049D000006885423BD300BF2B480068006808B9D7
:1049E000012000E0002020B14FF0FF30294908608D
:1049F0002CE025480068C068C4686668B54202D2E9
:104A00002448066022E0201DFFF7FEFBA06A18B1D3
:104A100004F11800FFF7F8FB94F82C1001208840EF
:104A20001D49096808431C490860E16A01EB8101DE
:104A30001A4A02EB8100211DFFF724FC1849E06AA5
:104A40000968C96A8842C7D30127C5E700BF14486F
:104A50000068C06A00EB8000104951F8200001286E
:104A600000D9012704E00F480068401C0D49086088
:104A70000D48006800B101273846BDE8F08100000C
:104A8000B40000209000002080000020840000205E
:104A9000A4000020AC00002094000020C4050020E9
:104AA0007C0000209C000020A000002070B506467D
:104AB000F068C46804F11800FFF7A6FB1548006809
:104AC000A8B9201DFFF7A0FB94F82C100120884006
:104AD00011490968084310490860E16A01EB810146
:104AE0000E4A02EB8100211DFFF7CCFB04E004F12C
:104AF00018010B48FFF7C6FB0A49E06A0968C96A52
:104B0000884204D9012501200749086000E00025FA
:104B1000284670BDB400002094000020C405002089
:104B2000500600207C000020A000002070B500246A
:104B30000026FFF7B3FB2E480068401E2C49086092
:104B40000846006800284FD12A48006800284BD04A
:104B500024E02948C068C46804F11800FFF754FB3A
:104B6000201DFFF751FB94F82C10012088402349A9
:104B70000968084321490860E16A01EB8101204A84
:104B800002EB8100211DFFF77DFB1E49E06A0968E9
:104B9000C96A884202D301201B4908601648006890
:104BA00008B9012000E000200028D2D00CB1FFF7A6
:104BB000CDF91648056865B100BFFFF7E9FE10B1F1
:104BC0000120114908606D1E002DF6D100200F490B
:104BD00008600D48006838B1012630070C490860AC
:104BE000BFF34F8FBFF36F8FFFF76AFB304670BD87
:104BF000B40000208C00002050060020940000200B
:104C0000C40500207C000020A00000209C000020A3
:104C100004ED00E010B500290AD00878002807D07C
:104C200005487844FBF732FC002801D0002010BD75
:104C30000248784410BD0000DE0A0000D60A0000D9
:104C400010B500290AD00878002807D00548784414
:104C5000FBF71CFC002801D0002010BD024878445E
:104C600010BD0000CE0A0000C60A0000FCF7D4B850
:104C7000FCF708BA0000000000000000000000007F
:104C800000000000000000F80000000000000033F9
:104C90003000000000160E00160E0000000000009C
:104CA0000000000040C07840C0784000043F040489
:104CB0003F040400007088FC08300000001820FF4A
:104CC000211E0000F008F000E018000000211C0385
:104CD0001E211E0000F00888700000001E21232401
:104CE00019272110000000160E000000000000002F
:104CF00000000000000000E01804020000000007AF
:104D00001820400000020418E000000000402018B5
:104D100007000000404080F0804040000202010F88
:104D200001020200000000F0000000000101011F6C
:104D300001010100000000000000000000B0700050
:104D40000000000000000000000000000001010160
:104D500001010101000000000000000000303000EF
:104D600000000000000000008060180400601806C9
:104D70000100000000E010080810E000000F102003
:104D800020100F00001010F8000000000020203F4D
:104D900020200000007008080888700000302824D7
:104DA0002221300000300888884830000018202078
:104DB00020110E000000C02010F80000000704249D
:104DC000243F240000F808888808080000192120E2
:104DD00020110E0000E0108888180000000F11203C
:104DE00020110E0000380808C83808000000003FF5
:104DF000000000000070880808887000001C222154
:104E000021221C0000E010080810E0000000312200
:104E100022110F00000000C0C000000000000030A0
:104E200030000000000000C0C0000000000080B0A2
:104E30007000000000008040201008000001020403
:104E4000081020004040404040404000040404045A
:104E50000404040000081020408000000020100816
:104E600004020100007048080808F000000000304B
:104E700036010000C030C828E810E00007182724D9
:104E800023140B000000C038E0000000203C230287
:104E90000227382008F8888888700000203F2020EA
:104EA00020110E00C030080808083800071820201C
:104EB0002010080008F808080810E000203F202013
:104EC00020100F0008F88888E8081000203F2020F4
:104ED0002320180008F88888E8081000203F2000E8
:104EE00003000000C0300808083800000718202020
:104EF000221E020008F808000008F808203F2101DF
:104F000001213F20000808F8080800000020203F89
:104F10002020000000000808F8080800C0808080F9
:104F20007F00000008F888C028180800203F2001F2
:104F30002638200008F8080000000000203F20204C
:104F40002020300008F8F800F8F80800203F003F63
:104F5000003F200008F830C00008F808203F20007B
:104F600007183F00E01008080810E0000F1020208C
:104F700020100F0008F808080808F000203F210161
:104F800001010000E01008080810E0000F182424B8
:104F900038504F0008F8888888887000203F20002B
:104FA000030C3020007088080808380000382021E1
:104FB00021221C00180808F8080818000000203FEB
:104FC0002000000008F808000008F808001F202052
:104FD00020201F000878880000C838080000073823
:104FE0000E010000F80800F80008F800033C070074
:104FF000073C0300081868808068180820302C03DC
:10500000032C30200838C800C83808000000203FB2
:105010002000000010080808C838080020382621A1
:1050200020201800000000FE020202000000007FA5
:1050300040404000000C30C00000000000000001B3
:105040000638C00000020202FE000000004040409E
:105050007F0000000020100804081020000000005D
:105060000000000000000000000000008080808040
:105070008080808000020408000000000000000022
:1050800000000000000080808080000000192422C1
:1050900022223F2008F8008080000000003F1120FD
:1050A00020110E000000008080800000000E112002
:1050B00020201100000000808088F800000E1120E0
:1050C00020103F200000808080800000001F2222EE
:1050D00022221300008080F0888888180020203F5A
:1050E000202000000000808080808000006B94946D
:1050F0009493600008F8008080800000203F210029
:1051000000203F2000809898000000000020203FF1
:1051100020200000000000809898000000C08080DF
:10512000807F000008F8000080808000203F24027B
:105130002D302000000808F8000000000020203F6B
:10514000202000008080808080808000203F200020
:105150003F20003F008080008080000000203F2131
:1051600000203F200000808080800000001F202061
:1051700020201F00808000808000000080FFA12090
:1051800020110E000000008080808000000E1120A1
:1051900020A0FF80808080008080800020203F2130
:1051A00020000100000080808080800000332424E3
:1051B00024241900008080E0808000000000001F8F
:1051C000202000008080000000808000001F202040
:1051D00020103F20808080000080808000010E3001
:1051E0000806010080800080008080800F300C0362
:1051F0000C300F0000808000808080000020312E65
:105200000E312000808080000080808080818E7040
:105210001806010000808080808080000021302CF2
:105220002221300000000000807C0202000000000B
:10523000003F404000000000FF00000000000000B0
:10524000FF0000000002027C800000000040403FA0
:10525000000000000080404080000080000000004E
:10526000000101000000000000000000002F00000D
:1052700000000700070000147F147F1400242A7F19
:105280002A12002313086462003649552250000098
:105290000007000000001C224100000041221C0009
:1052A0000014083E08140008083E0808000000A08A
:1052B0006000000808080808000060600000002086
:1052C00010080402003E5149453E0000427F400064
:1052D000004261514946002141454B3100181412EA
:1052E0007F10002745454539003C4A4949300001B7
:1052F0007109050300364949493600064949291E06
:105300000000363600000000563600000008142267
:105310004100001414141414000041221408000267
:1053200001510906003E4955592E007C1211127C8C
:10533000007F49494936003E41414122007F4141B9
:10534000221C007F49494941007F09090901003EAB
:105350004149497A007F0808087F0000417F4100E9
:10536000002040413F01007F08142241007F40405F
:105370004040007F020C027F007F0408107F003E47
:105380004141413E007F09090906003E4151215E2D
:10539000007F091929460046494949310001017F2A
:1053A0000101003F4040403F001F2040201F003FC0
:1053B0004038403F00631408146300070870080772
:1053C00000615149454300007F414100000204084B
:1053D0001020000041417F0000040201020400404F
:1053E0004040404000000102040000205454547822
:1053F000007F484444380038444444200038444442
:10540000487F00385454541800087E0901020018DF
:10541000A4A4A47C007F080404780000447D40001C
:10542000004080847D00007F102844000000417F00
:105430004000007C04180478007C080404780038DC
:105440004444443800FC242424180018242418FC64
:10545000007C0804040800485454542000043F44CD
:105460004020003C4040207C001C2040201C003C90
:105470004030403C004428102844001CA0A0A07CE0
:10548000004464544C440000087F41000000007F49
:1054900000000000417F0800000804081008EFBC6D
:1054A0008C00000000000000000000000000000070
:1054B000000000000058380000000000000000005C
:1054C000000000E3808200000000000000000000F7
:1054D0000000000000000000000018242418000054
:1054E0000000000000000000E4BDA000000080609B
:1054F000F8074020180F08C8080828180001000005
:10550000FF00100C0340807F0001061800E5A5BDD8
:1055100000001010F01F10F000808282E2928A8654
:105520008000402215081661000040807F000000C6
:105530000000E4B8960000202020FE2020FF20205C
:1055400020FF20202020000000007F4040474444EE
:1055500044474040400000E7958C0000000000FEFA
:10556000929292FE929292FE00000000080804843B
:10557000621E010001FE0204040808000000000091
:1055800000FF0101013109090909897101010101C6
:10559000FFFF8080808080809681808080808080F6
:1055A000FFFF01818181FD8991A1C1FD818181017F
:1055B000FFFF808080809F888482819F80808080A0
:1055C000FF00000000000000000000003031323316
:1055D0003435363738394142434445464030580027
:1055E0003031323334353637383961626364656659
:1055F00040307800040000080000000000000002B5
:10560000000100001030313233343536373839611B
:105610006263646566787000303132333435363712
:10562000383941424344454658500000024000008A
:10563000000000A00000000005400000000000C8BD
:10564000000000000C4000000000409C0000000032
:10565000194000000020BCBE0000000034400000E3
:10566000BFC91B8E00000004B5400000504BCFD0D6
:105670006607E2CF010000006C4100003E8251AAA3
:10568000DFEEA73401000000D9420000DCB5A0E243
:105690003A301F97FFFFFFFFB4450000FD25A0C86B
:1056A000E9A3C14FFFFFFFFFFF3F000000000080A4
:1056B00000000000FF3F000000000080000000002C
:1056C0004245443A000000004147453A00000000CE
:1056D0004E414D453A0000005345583A0000000045
:1056E0002C58000800000020D40000006C010008C5
:1056F00000590008D40000201C5000008801000858
:105700001C00000043000000F8FFFFFF0C00000039
:105710000E0000000F0000002E000000100100002D
:1057200043000000F8FFFFFF004040404040404081
:105730004040414141414140404040404040404064
:105740004040404040404040400502020202020208
:105750000202020202020202022020202020202057
:10576000202020020202020202029090909090906B
:105770001010101010101010101010101010101029
:10578000101010100202020202028888888888889D
:105790000808080808080808080808080808080889
:1057A0000808080802020202400000000000000091
:1057B00000000000000000000000000000000000E9
:1057C00000000000000000000000000000000000D9
:1057D00000000000000000000000000000000000C9
:1057E00000000000000000000000000000000000B9
:1057F00000000000000000000000000000000000A9
:105800000000000000000000000000000000000098
:105810000000000000000000000000000000000088
:105820000000000000000000000000000000000078
:105830000102030401020304060708090204060822
:10584000112233445500000011223344550000005A
:105850000000000000000000000000000000000048
:1058600000000000D0560008C8560008D8560008AE
:10587000C05600080000000000000000000000000A
:105880000000000000000000000000000000000018
:105890000000000000000000000000000000000008
:1058A00000000000000000000000000000000000F8
:1058B00000000000000000000000000000000000E8
:1058C00000000000000000000000000000000000D8
:1058D00000000000000000000000000000000000C8
:1058E00000000000AAAAAAAA000000000000000010
:1058F00000000000000000000000000000000000A8
:0400000508000131BD
:00000001FF
