:020000040800F2
:10000000485000201103000871200008211F00083B
:100010006D200008E11D00085B33000800000000AF
:10002000000000000000000000000000790200084D
:10003000E51D000800000000BD020008A12F000817
:100040002B0300082B0300082B0300082B030008D8
:100050002B0300082B0300082B0300082B030008C8
:100060002B0300082B0300082B0300082B030008B8
:100070002B0300082B0300082B0300082B030008A8
:100080002B0300082B0300082B0300082B03000898
:100090002B0300082B0300082B0300082B03000888
:1000A0002B0300082B0300082B0300082B03000878
:1000B0002B0300082B0300082B0300082B03000868
:1000C0002B0300082B0300082B0300082B03000858
:1000D0002B030008353000082B0300082B03000811
:1000E0002B0300082B0300082B0300082B03000838
:1000F0002B0300082B0300082B0300082B03000828
:100100002B0300082B0300082B0300082B03000817
:100110002B0300082B0300082B0300082B03000807
:100120002B0300082B0300082B0300082B030008F7
:1001300000F002F800F090F80AA090E8000C824469
:100140008344AAF10107DA4501D100F085F8AFF246
:10015000090EBAE80F0013F0010F18BFFB1A43F0A5
:1001600001031847C44E0000E44E0000103A24BFBB
:1001700078C878C1FAD8520724BF30C830C144BF0C
:1001800004680C607047000000230024002500264E
:10019000103A28BF78C1FBD8520728BF30C148BFEA
:1001A0000B6070476E2900F03182702900F0738374
:1001B000662904F00F82652904F00C82672904F097
:1001C0000982612904F0088203681B0A28BF41F0F4
:1001D0008001692900F0DE81642900F0DB81752946
:1001E00000F0D8816F2900F00083782900F03F8368
:1001F000E92900F09B82E42900F09882F52900F0BB
:100200009582EF2900F0FD82F82900F03E83036813
:10021000DB0928BF41F08001632901F07380732955
:1002200001F07880E32901F08380F32901F08880D0
:10023000002070471FB501F0D9F80400002000210C
:1002400004F0B2F9401C60600020002104F096F92F
:10025000E0601FBD10B510BD01F09AF81146FFF720
:10026000E9FF03F0E5F801F077F903B4FFF7F2FFD7
:1002700003BC01F07BF90000224B19680868B0E864
:10028000F00F80F30988BFF36F8F4FF0000080F309
:1002900011884EF00D0E70470000000006480068FF
:1002A000006880F3088862B661B6BFF34F8FBFF372
:1002B0006F8F00DF00BF00BF08ED00E0EFF30980A3
:1002C000BFF36F8F0F4B1A6820E9F00F106008B56D
:1002D0004FF0BF0080F31188BFF34F8FBFF36F8FD4
:1002E00003F0D6FD4FF0000080F31188BDE8084010
:1002F00019680868B0E8F00F80F30988BFF36F8FC2
:10030000704700BF54000020EFF3058070470000E5
:100310000948804709480047FEE7FEE7FEE7FEE799
:10032000FEE7FEE7FEE7FEE7FEE7FEE704480549D5
:10033000054A064B70470000D52F00083101000820
:10034000484A002048500020484C0020484C0020DB
:100350001CB50C46064B7B4469460090204600F0D5
:100360006EF904460020694600F07CF920461CBD69
:100370000B03000040EA0103024630B59B0710D191
:100380004FF0013400E008C208C91D1B9D4315EA67
:10039000C41FF8D013F0FF0102F8011B0DD01B0A97
:1003A000F8E711F8013B002B02F8013B05D011F8EA
:1003B000013B002B02F8013BF3D130BD032A40F290
:1003C000308010F0030C00F0158011F8013BBCF1F7
:1003D000020F624498BF11F801CB00F8013B38BF0F
:1003E00011F8013BA2F1040298BF00F801CB38BF1D
:1003F00000F8013B11F0030300F01C83083AC0F041
:10040000088051F8043B083A51F804CBA0E80810E2
:10041000F5E7121D5CBF51F8043B40F8043BAFF315
:100420000080D20724BF11F8013B11F801CB48BF6F
:1004300011F8012B24BF00F8013B00F801CB48BFA5
:1004400000F8012B704700004FF0013C50F8042BDE
:1004500051F8043B9A4221D1A2EB0C03934313EAD7
:10046000CC1317D150F8042B51F8043B9A4215D104
:10047000A2EB0C03934313EACC130BD150F8042BDB
:1004800051F8043B9A4209D1A2EB0C03934313EABF
:10049000CC13DBD04FF00000704700BFD01A01BA78
:1004A000B1FA81F101F0180122FA01F0CB40C1F15B
:1004B0002001DBB2C0B2C01A2CFA01F3D11A914369
:1004C00011EAC311E6D1704770477047704770B5A5
:1004D000044685690068C10601D5302600E0202663
:1004E000C00707D070BDD4E9012130469047206A8B
:1004F000401C20626D1EF6D570BD70B5044685693E
:100500000078C00707D170BDD4E9012120209047B1
:10051000206A401C20626D1EF6D570BD09684A0530
:1005200001D540B27047C905FCD500B270470968D3
:100530004A0501D5C0B27047C905FCD580B27047E5
:1005400070B50C460546012A05D02878800600D5EE
:10055000EA69002302E0012305E05B1C934202D21A
:10056000E05C0028F9D1A869E618C01AA861286AD9
:10057000184428622846FFF7AAFF04E0D5E90121C4
:1005800014F8010B9047B442F8D32846FFF7B5FFA3
:1005900070BD00002DE9F041064600241068752961
:1005A000314616A510D0FFF7B9FF002802DA404205
:1005B00013A507E031688A0701D512A502E04907B3
:1005C00004D511A5012401E0FFF7B1FF00210A22A3
:1005D00006F1240709E0B0FBF2FCB0FBF2F302FBEA
:1005E0001C00303078541846491C0028F3D12346AB
:1005F0002A463046BDE8F04100F093BA0000000002
:100600002D0000002B00000020000000116802688F
:10061000006A530501D508700AE0D30501D50880AA
:1006200006E0130603D5C217C1E9000200E0086026
:100630000120704701694A1C02610878704700B5C3
:100640008FB0CDE901310021059105497944CDE90B
:1006500003101146684600F029F90FB000BD0000F4
:10066000E5FFFFFF0A6802F8010B0A60704700000F
:100670002DE9FF5F15468A460446DFF8AC80F84452
:100680000027D8E900103E46CDE9001010E03AF806
:1006900016106A4602A800F057FE411C07D02178C8
:1006A000890603D5E269391891420DD80744761CB2
:1006B0002078800602D5E069B84205DDAE42E6DB6F
:1006C0003AF816000028E2D1A069C01BA0612046BC
:1006D000FFF7FDFED8E90010CDE90010002017E07B
:1006E0003AF818106A4602A800F02EFEB0F1FF3F5B
:1006F00081460BD000250DF1080B05E0D4E901215E
:100700001BF8050090476D1C4D45F7D308F101001B
:10071000B0428046E4DB206A384420622046FFF77E
:10072000ECFEBDE8FF9F0000AA4800002DE9F04163
:100730008046D21D22F007020025D2E90002F529E9
:1007400015A614D0011E72F1000106DA0023D0EBC9
:10075000030063EB020211A608E0D8F800108B0733
:1007600001D50FA602E0490701D50EA601251146C5
:10077000002408F1240704E000F08EF930323A55E5
:10078000641C50EA0102F7D12B463246214640460E
:10079000BDE8F04100F0C5B9000000002D000000E8
:1007A0002B0000002000000030B4002100F12404E0
:1007B00008E002F00705D208303542EA4372DB0850
:1007C0006554491C52EA0305F3D10468002310A2C2
:1007D000250707D5A40600D421B1C46901230DA2C1
:1007E000641EC46130BC00F09CB910B504462146BB
:1007F0001068FFF79CFE02462046BDE8104000232B
:10080000D2E7D21D22F00701D1E90023CCE7000096
:100810000000000030000000F0B40D46018809051A
:1008200002D5214C7C4402E01F4C7C440E34002154
:1008300000F1240608E002F00F071209E75D42EA22
:1008400003721B097754491C52EA0307F3D102785B
:100850000023120704D5702D06D009B102231134EC
:100860002246F0BC00F05DB901231034F8E770B502
:1008700004460D4621461068FFF759FE02462946F8
:100880002046BDE870400023C6E7D21D22F00703D2
:10089000D3E90023C0E70368126843F02003036034
:1008A0000823C3610023B7E70C4700002DE9F05F80
:1008B000894604464FF0000ADFF874B1FB44C0F8E3
:1008C00020A02046E1688847002874D0252806D05B
:1008D000D4E901219047206A401C2062F1E70026FC
:1008E0005F462046E16888472028054607DB312D12
:1008F00005D2781910F8200C08B10643F1E7B007CB
:1009000001D526F00406C4F81CA00027C4F818A0DE
:100910002A2D09D0284602F036FD38B304EB8708AB
:10092000303DC8F8185019E059F8041B204604EB74
:1009300087029161E1688847012F054618D1E06977
:10094000002820DA26F020061DE0D8F8180000EB79
:10095000800005EB40003038C8F818002046E168F8
:100960008847054602F00FFD0028EED1012F0AD07E
:100970002E2D08D12046E16888477F1C0546022FAE
:1009800046F02006C4DBA069002803DA404246F0A6
:100990000106A061F00701D026F010066C2D0BD0E7
:1009A000682D09D04C2D39D06A2D35D0742D35D015
:1009B0007A2D33D016E038E0E1682F46204688478C
:1009C000B842054609D16C2F26D04FF48060E1680B
:1009D000064320468847054604E06C2F1AD04FF4A2
:1009E000807006430DB3A5F14100192802D82035C7
:1009F00046F400664A462946204626604E46FFF7E2
:100A0000D1FB80B101280BD0F61D26F0070000F1C4
:100A1000080956E74020E4E78020D8E70020D6E721
:100A200006F104094DE7284652E7206ABDE8F09F29
:100A30009C46000010B5203AC0F00B80B1E8185079
:100A4000203AA0E81850B1E81850A0E81850BFF4B8
:100A5000F5AF5FEA027C24BFB1E81850A0E8185057
:100A600044BF18C918C0BDE810405FEA827C24BFAB
:100A700051F8043B40F8043B08BF7047D20728BF39
:100A800031F8023B48BF11F8012B28BF20F8023B88
:100A900048BF00F8012B704730B5B0F10A024FEAA9
:100AA000900E71F100034EEA817EB0EB0E0061EB17
:100AB00091014FEA101E4EEA017E10EB0E0041EB51
:100AC00011114FEA102E4EEA016E10EB0E0041EBB1
:100AD00011214FEA104E4EEA014E10EB0E0041EB91
:100AE0001141401841F100014FEAD00040EA417045
:100AF0004FEAD10110EB80054FEA810444EA90747B
:100B000044EB01046D1944EB0404521BA3414FF064
:100B1000000348BF0A3200D530BD401C41F100013E
:100B200030BD2DE9F0470D4699469246044600F146
:100B300024080168880604D5E06921F010012160CD
:100B400000E00120A84201DD471B00E00027A16969
:100B50007A1902EB0900081AA0612078C00602D4B5
:100B60002046FFF7B4FC002608E0D4E901211AF87A
:100B700006009047206A401C761C20624E45F4DB3C
:100B80002078C0060AD52046FFF7A1FC06E0D4E98C
:100B9000012130209047206A401C2062381EA7F1B6
:100BA0000107F4DC07E0D4E9012118F805009047BB
:100BB000206A401C2062281EA5F10105F3DC2046B6
:100BC000FFF79BFC2078000602D50220BDE8F087E5
:100BD0000120FBE770472DE9FF4F0C461E464FF002
:100BE000FF378BB0D2E90001DDF860800A908A46B9
:100BF000C1F30A5505B93D46002108464FF00000F3
:100C0000BAF1000F00F4400005DA00EB80004FF469
:100C1000400101EA50004FEA9059B9F1010F00DD9F
:100C2000B9460A9850EA4A000ED044F61050A5F290
:100C3000FF3545432F14B8F1000F1ED07542291E11
:100C40001EDDC9F100021CE0B8F1010F4FF00000F9
:100C500001D0302103E0F24305E02154401CB042B2
:100C6000FBDB30460022002121540B99C1F808809B
:100C7000C1E900200FB0BDE8F08FBD1B6D1CDEE7A1
:100C80004A4600DA694206A800F0F4FB06AB93E896
:100C9000070003AB83E8070050460A9900F06DFC9B
:100CA0008DE80700A0F500501F3800900398002D34
:100CB0000ADD42F21F014A460844002303A90390BB
:100CC000684600F0D6FE09E0A0F500504A461F38FD
:100CD000002303A90390684600F0E0FE8DE80700BA
:100CE0000004000C03D04FF0FF30410800E0104634
:100CF000B8F1000F03D00022009215461EE0751EC9
:100D000005D4FFF7C9FE303262556D1EF9D5B346E2
:100D10000122084302D000227F1C04E02078302802
:100D200001D100227F1E002A099784D01DE0112DD9
:100D300007DAFFF7B1FE303262556D1C50EA01024E
:100D4000F5D1084302D00098C8B10EE00021681E1A
:100D500005E0235C625C63542254401E491C8142BE
:100D6000F7DBAB46A81B401E0990002004F80B00DF
:100D70000B98099AC0F80880C0E9002B7AE7112681
:100D80004FF0000857E72DE9F04F88460446D21D82
:100D900022F0070191B0D1E90001CDE90A0102F08A
:100DA000DEFA02460B98C00F01D02D2007E0206824
:100DB000810701D52B2002E0202101EAC000032A8F
:100DC000099001D0072A05DB03464146204600F082
:100DD00011FB0BE12078800601D5E06900E00620D8
:100DE000B8F1650F814606D0B8F1660F18D0B8F19A
:100DF000670F70D131E00020B9F1110F009001DBD5
:100E0000112301E009F101030AAA01A90CA8FFF7C7
:100E1000E2FEDDE90C70002609F10105834647E09A
:100E200001204B4600904FF000470AAA01A90CA8E8
:100E3000FFF7D1FEDDE90DB00C995D46002610B933
:100E400009F101000D18B9EB050003D4C0F1FF361C
:100E500009F10105A5EB09002BE0B9F1010F01DA59
:100E60004FF001090020B9F1110F0090484601DD53
:100E7000112300E003460AAA01A90CA8FFF7ABFE64
:100E8000DDE90C704D4600268346207800070AD421
:100E9000AB4500DA5D4601A8012D04DD411911F8CA
:100EA000011C302907D04F4502DA17F1040F04DA8C
:100EB000012082460FE06D1EEEE7002F02DCED1BE5
:100EC0003E4403E0781CA84200DD7D1CB81B00F105
:100ED000010A4FF000472078000703D4AA4501DB40
:100EE0004FF0FF3A0021B7F1004F0DF143088DF8A4
:100EF000431024D002202B23002F01DA7F422D2320
:100F00000A21021EA0F1010000DC5FB197FBF1FC99
:100F100097FBF1F201FB1C7C17460CF1300C08F832
:100F200001CDEEE7A8F1010003702188090501D584
:100F3000452100E06521A0F1010800F8011C099895
:100F40000FA9A1EB0807FF1D00B10120411901EB1A
:100F5000EA70A1693844081A401EA0612078C006D2
:100F600002D42046FFF7B3FA099828B1D4E9012149
:100F70009047206A401C20622078C00622D5204677
:100F8000FFF7A5FA1EE0002E04DBB34502DD01A841
:100F9000805D00E03020D4E901219047206A401CA8
:100FA0002062761CAAF101005FEA000A0AD100F073
:100FB0001DFAC0680168405CD4E901219047206AAD
:100FC000401C2062281EA5F10105DCDC07E0D4E905
:100FD000012118F8010B9047206A401C2062381E3E
:100FE000A7F10107F3DC2046FFF787FA032011B0D1
:100FF00041E600002DE9F04F04460D46D21D22F0D7
:10100000070089B0D0E900974846394602F0A7F9B1
:101010000246F80F01D02D2307E02068810701D593
:101020002B2302E0202101EAC0038DF820300BB110
:10103000012000E00020032A824601D0072A04DBB9
:101040002946204600F0D6F93FE12078800601D4F9
:101050000D2500E0E569C7F30A560D2D49DA002198
:101060004FEA175B08464FF00000002F00F44000E5
:1010700007DA00EB80004FF4400100EBD07001EA8A
:1010800060008115012901DD4FF0FF3100224FEA98
:10109000850CBCF1180F06D31346ACF118004FF0C5
:1010A0008052C24003E04FF4801323FA0CF30CF19A
:1010B0000C0CBCF1200F04D3ACF1200C09FA0CF09D
:1010C00001E007FA0CF000294FF0004801DD18B9E3
:1010D0000FE00ED140450CD319EB02095F4121B955
:1010E000404502D19F4329EA0209BBEB175F00D0BC
:1010F000761C2088000502D57B48784402E07A48B7
:101100007844193808AA302302F80A30037C0AF11F
:101110000101002E0AF1020A53546A4602DC4FF024
:10112000300101E04FF031014FF001088DF800105F
:1011300002D0A6F2FF3603E059EA470100D06B4E19
:10114000002D02DC2178090704D54FF002082E217A
:101150008DF80110C44600210BE0C7F303433F01A3
:10116000C35C491C6D1E02F80830052908F101080E
:1011700001DA002DF1DC00210CE000EB1973491CB1
:101180001B786D1E082902F808304FEA091908F18A
:10119000010801DA002DF0DC21688B0602D516E08B
:1011A000A8F10108E04505DD02EB080313F8013C56
:1011B000302BF5D0B8F1000F09DD02EB080313F86E
:1011C000013C2E2B03D1090701D4A8F10108002D01
:1011D00005DD3E2102F808106D1E08F10108407C73
:1011E000002E02F8080008F1010804DA2D207642EA
:1011F00002F8080002E02B2002F808000A214FF450
:101200007A70864208F101080BDB96FBF0F330336D
:1012100002F8083096FBF0F308F1010800FB1366B2
:1012200001E0642E0CDB642096FBF0F3303302F80F
:10123000083096FBF0F308F1010800FB136601E0AB
:101240000A2E06DB96FBF1F0303002F8080008F1B8
:10125000010896FBF1F001FB1060303002F8080045
:10126000A16908F1010808EB050202EB0A00081A5F
:10127000A0612078C00602D42046FFF728F9216A31
:1012800008AE01EB0A00206204E0D4E9012116F85F
:10129000010B9047BAF1010AF7D22078C00602D5B7
:1012A0002046FFF714F96E4609E016F8010B3E28B8
:1012B0000FD0D4E901219047206A401C2062B8F188
:1012C0000108F2D22046FFF718F909B00320BDE863
:1012D000F08F206A2844206203E0D4E90121302005
:1012E00090476D1EEBD3F8E7823E000002FCFFFF43
:1012F00010B5436913B1AFF3008001E0FFF720F9A7
:10130000012010BD127800F124010A7000224A70F9
:101310000122EDE711684FF0FF32E9E710B54369AC
:1013200013B1AFF3008001E0FFF7A2F9012010BD77
:10133000128800F1240182840022C2840122EDE798
:1013400011684FF0FF32E9E770B516460C460546C6
:1013500000F044F8036893F80101012806D0FF2C3F
:101360000FD8185D68B101202C7070BDD3F807014B
:101370003246214603F2071303442846BDE8704075
:1013800018474FF0FF3070BD00487047E449002017
:101390007546FFF7F9FFAE4605006946534620F053
:1013A0000700854618B020B5FEF7C0FFBDE8204015
:1013B0004FF000064FF000074FF000084FF0000B11
:1013C00021F00701AC46ACE8C009ACE8C009ACE8C4
:1013D000C009ACE8C0098D467047000010B500F0A8
:1013E00005F8001D10BD00BFC13100000048704766
:1013F000044A00202DE9F0411F46044603260168F7
:10140000072A01F4006004DB08B116A505E016A563
:1014100003E008B115A500E015A521F0100020603B
:10142000A069C01EA0610FB1401EA0612046FFF759
:101430004EF84FB1D4E9012138469047206A401C4C
:101440002062C01C206206E0206AFAE7D4E901218C
:1014500015F8010B9047761EF8D22046FFF74DF89D
:10146000BDE8F0814E414E006E616E00494E46006F
:10147000696E66002DE9F047814616468AB0354808
:1014800078440DC88DE80D0032487844801C03ACC8
:101490000DC884E80D0041F69B300844372190FBCD
:1014A000F1F290FBF1F5A5F1800501FB12041B3C64
:1014B00002D56442012000E00020DFF898A08046B9
:1014C0000027FA44AAF1BE0A0EE0E0070AD032462D
:1014D000684607EB470101230AEB810100F0DEFAC1
:1014E0008DE8070064107F1C002CEED1194F7F445B
:1014F000AE3F19E0E80715D007EB04100DF1180A0C
:1015000090E80E008AE80E00C068F04201D19819F8
:1015100008903246012306A903A800F0BFFA03ABE6
:1015200083E807006D10641C002DE3D14FF0010328
:1015300032466946B8F1000F03A802D000F099FACC
:1015400001E000F0ABFAC9E90001C9F808200AB0CF
:10155000BDE8F0878C3B000010B50446AFF3008077
:101560002046BDE81040FEF780BE0000014918206B
:10157000ABBEFEE72600020070475FEA400C08BFE2
:1015800091F0000F4FEA8C234FEAC12243EA5151F8
:101590004FEA1C5018BF00F5F0404FEA300018BF6A
:1015A00041F000415FEA6C5C00F02980BCF1FF3F34
:1015B00008BF40F080407047130C06BF12044FF084
:1015C000100C4FF0000C130E04BF12020CF1080CAB
:1015D000130F04BF12010CF1040C930F04BF92000F
:1015E0000CF1020CD30F04BF52000CF1010C114698
:1015F0004FF00002A0F11F00A0EB0C00704711F0AB
:10160000004F08BF704731F000413FF4D5AF0B0CDD
:1016100006BF09044FF0100C4FF0000C0B0E04BF76
:1016200009020CF1080C0B0F04BF09010CF1040CAA
:101630008B0F04BF89000CF1020CCB0F04BF4900D3
:101640000CF1010CCCF12003A0EB0C0022FA03F307
:1016500002FA0CF241EA030100F10100704720F0A8
:101660007F4C80EA030023F07F47ACEB070303F5D0
:101670007C5300F0004003F1FF032DE980494FEA5D
:10168000154B09B44FEA144325EA0B4E24EA0348EC
:101690000FF2042606EB132749083E785FEA320270
:1016A00003FB0667C7F5000707FB06F64FEA54374A
:1016B0004FEAD64606F1020607FB066CCCF1005C49
:1016C0004FEA1C472CEA074C07FB06F40CFB06F517
:1016D00004EB15464FEA961634BF00204FF0004049
:1016E0004FEAD13706FB07FC4FEA1C4C0CFB0BF70B
:1016F000D21B03FB0CF761EB07010CFB0EF7B0EB01
:10170000074072EB17420CFB08F734BFA2EB07420D
:10171000B2EB074261EB17414FEA0C444FEA9107E5
:1017200006FB07FC4FEA1C4C0CFB0BF7B0EBC74069
:1017300072EB573203FB0CF734BFA2EBC742B2EB9C
:10174000C74261EB57310CFB0EF7B0EBC70072EBF1
:1017500057720CFB08F734BFA2EBC702B2EBC7020B
:1017600061EB5771039F4FEA816141EA921104EBEB
:10177000CC044FEAD1374FEA826206FB07FC42EA0B
:1017800090124FEA80604FEA1C4C0CFB0BF7D21B07
:1017900003FB0CF761EB07010CFB0EF7B0EB074006
:1017A00072EB17420CFB08F734BFA2EB0742B2EB17
:1017B000074261EB17414FEA8C554FEA910704EB62
:1017C0009C2406FB07FC4FEA1C4C0CFB0BF7B0EB10
:1017D000C74072EB573203FB0CF734BFA2EBC74292
:1017E000B2EBC74261EB57310CFB0EF7B0EBC70011
:1017F00072EB57720CFB08F734BFA2EBC702B2EBD7
:10180000C70261EB577115EB4C254FEA816141EA44
:1018100092114FEA82624FEAD13742EA901206FBF8
:1018200007FC44F100044FEA80604FEA1C4C0CFBBB
:101830000BF7D21B03FB0CF761EB07010CFB0EF758
:10184000B0EB074072EB17420CFB08F734BFA2EB7A
:101850000742B2EB074261EB174115EB1C154FEA4B
:10186000813141EA92414FEA823242EA90424FEAA4
:1018700080304FEA0C7644F1000448EA03434EEA14
:101880000B484FF0000EB2EB080C71EB030724BFBE
:10189000624639464EEB0E0E4FF0000B00185241D7
:1018A00049414BEB0B0BB2EB080C71EB03077BF1DF
:1018B000000B24BF624639464EEB0E0E4FF0000B74
:1018C0000018524149414BEB0B0BB2EB080C71EB8A
:1018D00003077BF1000B24BF624639464EEB0E0E28
:1018E00051EA020718BF46F0010616EB0E7655F1D5
:1018F000000254F1000103D5BDE88901BDE800886C
:10190000BDE88901BDE80048B619524141EB01012B
:10191000A3F10103704780807F7E7D7C7B7A79789C
:10192000777676757473727171706F6E6E6D6C6CA4
:101930006B6A6A6968686766666564646363626146
:101940006160605F5F5E5E5D5D5C5C5B5B5A5A59C7
:101950005958585757565655555554545353525233
:101960005251515050504F4F4F4E4E4D4D4D4C4C8B
:101970004C4B4B4B4A4A4A494949484848474747D4
:101980004746464645454544444444434343434211
:10199000424242414141002B9C4630D477002BD03B
:1019A0001CB54FEA370703B44FF010004FF0100199
:1019B000BAF1000F06D0BCF1000FDCBF40F0080008
:1019C00040F008014FF000000FBCBDE810400BF1E3
:1019D000010BBBF1010F08BF5FEA170722BF12F12D
:1019E000010211F101014FF0004143F1000300F049
:1019F000004043EA00007047F9D35708D0E746EAB1
:101A0000064613F1400F4FEA16461FDD13F1200F73
:101A1000DFBF16430A46002120335B42BED0C3F12C
:101A2000200746EA064602FA07F74FEA164646EA54
:101A30000706C3F1200722FA03F201FA07F721FA99
:101A400003F14FF0000342EA0702A7E746EA020665
:101A500046EA06464FEA164646EA0106BCBF46EA93
:101A60000646360C4FF000034FF000024FF0000125
:101A700094E72DE9804C9A46934670B491E838007B
:101A800007C831EA400C48BF34EA430C03D5FFF7DE
:101A9000E6FDFFF780FFF0BCBDE8008C2DE9804C2F
:101AA0009A46934670B491E8380007C810F0804F0A
:101AB00008BF13F0804F03D100F005F8FFF76BFF6C
:101AC000F0BCBDE8008C20F07F4780EA030023F0E3
:101AD0007F4C07EB0C03A3F57C5300F00040A3F10F
:101AE000FE0392F0000F00F0B38095F0000F00F0BD
:101AF00077802DE901494FEA11404FEA144621EA67
:101B0000004800FB06FC24EA064708FB06F607FB34
:101B100008F800FB07F718EB06484CEB164C4FEAA9
:101B2000124B18EB07484FEA15464CEB174022EAD8
:101B30000B4E0BFB06FC25EA06470EFB06F607FBE1
:101B40000EFE0BFB07F71EEB064E4CEB164C4FF050
:101B500000061EEB074E4CEB174B18EB0B0840F141
:101B6000000018EB0E0B58EB000840F100008F1A34
:101B70004FF000013CBFC943661B14BFB5EB040C1A
:101B800000213CBFC943F61B4FEA17444EEA8E0EB4
:101B900027EA04454FEA1C4704FB07622CEA074C7E
:101BA00005FB07F70CFB05F604FB0CFC16EB0746E0
:101BB00042EB174216EB0C4642EB1C421BEB0606AF
:101BC00058EB0202414146EA9E0601D5BDE8018973
:101BD000B619524141EB0101A3F10103BDE80189AE
:101BE0004FEA14454FEA114724EA054621EA074C1B
:101BF00005FB07F406FB07F70CFB06F105FB0CFCE5
:101C000011EB074144EB17444FEA124711EB0C412B
:101C100044EB1C4422EA074C05FB07F206FB07F7DE
:101C20000CFB06F605FB0CFC16EB074642EB1742D5
:101C300016EB0C4642EB1C456A1854F1000148BFF4
:101C40007047B619524141EB0101A3F101037047FE
:101C500095F0000F37D04FEA11424FEA144721EABE
:101C6000024624EA074C02FB07F106FB07F70CFBD0
:101C700006F402FB0CFC14EB074441EB17414FEA5E
:101C8000154714EB0C4441EB1C4125EA074C02FBC1
:101C900007F506FB07F70CFB06F602FB0CFC16EB40
:101CA000074645EB174516EB0C4645EB1C4212194F
:101CB00051F1000148BF7047B619524141EB010193
:101CC000A3F1010370474FEA14454FEA114724EA94
:101CD000054621EA074C05FB07F106FB07F70CFB5D
:101CE00006F24FF0000605FB0CFC12EB074241EB3D
:101CF000174112EB0C4251EB1C4148BF7047921840
:101D000041EB0101A3F101037047000008B534E085
:101D100000BF00BF30E00023642269461748006816
:101D200002F01CF9012827D19DF80000012823D1D9
:101D300002F0DCFA044616E000231A4669460F4812
:101D4000006802F00BF9012803D19DF8000000B9EA
:101D500010E000F03BF8C82001F0BEFF00F02CF8C6
:101D6000C82001F0B9FF02F0C1FA001B41F288312E
:101D70008842E1D300BF00BFCDE7C9E74C00002097
:101D800008B50121082000F083FF10208DF8030022
:101D90000001ADF8000003208DF8020069460548F7
:101DA00000F021F800224FF48071024800F0B3F8EF
:101DB00008BD0000000C014010B54FF480710248CE
:101DC00000F0A5F810BD0000000C014010B54FF464
:101DD0008071024800F09DF810BD0000000C014029
:101DE00000BFFEE770472DE9F041024600250026BE
:101DF000002000230024002791F803C00CF00F05F9
:101E000091F803C00CF0100CBCF1000F03D091F856
:101E100002C04CEA050591F800C0BCF1000F31D0BA
:101E2000146800202BE04FF0010C0CFA00F3B1F81D
:101E300000C00CEA03069E4220D183004FF00F0C35
:101E40000CFA03F7BC4305FA03FC4CEA040491F8CE
:101E500003C0BCF1280F06D14FF0010C0CFA00FCB6
:101E6000C2F814C00AE091F803C0BCF1480F05D1D4
:101E70004FF0010C0CFA00FCC2F810C0401C0828FE
:101E8000D1D31460B1F800C0BCF1FF0F34DD546849
:101E900000202EE000F1080C4FF0010808FA0CF3C6
:101EA000B1F800C00CEA03069E4221D183004FF036
:101EB0000F0C0CFA03F7BC4305FA03FC4CEA0404CC
:101EC00091F803C0BCF1280F05D100F1080C08FA05
:101ED0000CF8C2F8148091F803C0BCF1480F07D188
:101EE00000F1080C4FF0010808FA0CF8C2F8108055
:101EF000401C0828CED35460BDE8F0810246002083
:101F000093680B400BB1012000E000207047416155
:101F10007047016170470AB1016100E0416170479B
:101F200000BFFEE708B50121402000F0B1FE4820C7
:101F30008DF803001820ADF8000003208DF8020092
:101F400069460248FFF74FFF08BD00000018014036
:101F500010B520210148FFF7DCFF10BD000C014047
:101F600010B520210148FFF7D2FF10BD000C014041
:101F700010B520210148FFF7CCFF10BD001801402B
:101F800010B520210148FFF7C2FF10BD0018014025
:101F900008B50121082000F07BFE0121402000F05F
:101FA00077FE10208DF803002020ADF800000320FC
:101FB0008DF8020069460C48FFF715FF10208DF8D8
:101FC00003002020ADF8000003208DF802006946D0
:101FD0000648FFF708FF20210348FFF79AFF20215A
:101FE0000248FFF796FF08BD000C014000180140B1
:101FF0001FB5002400BF31E000235A1E694618486F
:10200000006801F0ABFF012828D19DF80C001549AC
:1020100008709DF80D00144908709DF80F00012804
:1020200002D0022812D108E0601CC4B2032C03DBEA
:10203000FFF796FFFFF79CFF0EE0601CC4B2032C75
:1020400003DBFFF79DFFFFF783FF05E00024FFF7A9
:102050008FFFFFF77DFF00BF00BF00BFCCE7000090
:1020600048000020290000202800002000BFFEE7D3
:10207000704710B5002000F08DF9E22000F0F8F86C
:10208000012000F087F910BD10B5002000F082F9A2
:10209000E12000F0EDF8012000F07CF910BD000017
:1020A00008B50121402000F0F3FD10208DF8030059
:1020B0004FF4F050ADF8000003208DF8020069469F
:1020C0000E48FFF790FE48208DF803004FF4807013
:1020D000ADF8000003208DF8020069460748FFF7BD
:1020E00082FE002000F04AF9012000F053F90020A0
:1020F00000F068F9002000F059F908BD001801400F
:1021000010B5FFF7CDFF0821002000F067F93F214F
:10211000012000F063F90121022000F05FF90321A2
:10212000084600F05BF90321042000F057F9022172
:10213000052000F053F90E21062000F04FF903218D
:10214000112000F04BF9052207490A2000F057F949
:10215000FFF79AFFFFF78DFF7021072000F03EF98F
:1021600000F070F810BD00001C00002010B54FF406
:1021700080710248FFF7C2FE10BD00000018014048
:1021800070B50446002000F005F9204600F070F814
:10219000FF2000F06DF80546012000F0FBF828460E
:1021A00070BD70B505460E46002000F0F3F86120C2
:1021B00000F05EF8002405E0FF2000F059F82855F3
:1021C000601CC4B2B442F7DB012000F0E3F870BD3C
:1021D00010B5002000F0DEF8FF2000F049F80446BA
:1021E000012000F0D7F8204610BD000070B5FFF7C1
:1021F000EFFF05460020FFF7C3FF064606F002008A
:1022000018B90324FFF77CFF18E005F030003028F0
:1022100003D10224FFF774FF10E005F040004028CE
:102220000BD1012403210648FFF7BBFF4021072003
:1022300000F0D4F8FFF71DFF00E00024204670BD39
:102240002100002010B5002000F098F80020FFF7D2
:1022500097FF0446FF2C00D110BD44F00304214633
:10226000002000F0BBF8012000F088F800BFF3E781
:1022700070B50446002518E004F0800018B1012074
:1022800000F094F802E0002000F090F86006040EE0
:10229000012000F097F8FFF769FF08B144F001044E
:1022A000002000F08FF8681CC5B2082DE4DB204642
:1022B00070BD000088B050E0FFF798FF012849D1B9
:1022C000264800788DF81C00244840788DF81D00C1
:1022D000224880788DF81E009DF81D00782803DDC7
:1022E00002208DF81F000AE09DF81D00142803DA73
:1022F00001208DF81F0002E000208DF81F00002350
:102300005A1E04A91648006801F006FF012814D0DF
:1023100014A308221121002000F0E1F900231A463D
:1023200069460F48006801F019FE00231A4604A907
:102330000B48006801F0F0FE00BF9DF81E00012868
:1023400008D1039000231A4603A90B48006801F046
:10235000E3FE00BF322001F0BFFCADE7210000200A
:102360004800002053656E642064617461206572CA
:10237000726F7221000000004C00002010B504466E
:1023800022464FF400610248FFF7C5FD10BD000072
:102390000018014010B5044622464FF4805102480F
:1023A000FFF7B9FD10BD00000018014010B504464C
:1023B00022464FF480610248FFF7ADFD10BD0000DA
:1023C0000018014010B5044622464FF4007102483F
:1023D000FFF7A1FD10BD00000018014070B50446D4
:1023E0000D460020FFF7D6FF44F02000FFF740FF26
:1023F0002846FFF73DFF0120FFF7CCFF70BD2DE918
:10240000F04105460E4617460020FFF7C3FF45F092
:102410002000FFF72DFF002404E0305DFFF728FFC8
:10242000601CC4B2BC42F8DB0120FFF7B3FFBDE87B
:10243000F081000070B5002100230F22C47804B39E
:10244000154C246804F4E064C4F5E064210AC1F189
:102450000403CA40447804FA03F184781440214309
:1024600009010E4C0678A155047804F01F050124DB
:10247000AC4005786D11AD0005F1E025C5F80041CF
:1024800009E0047804F01F050124AC40044D0678EF
:10249000761145F8264070BD0CED00E000E400E048
:1024A00080E100E002490143024A116070470000E8
:1024B0000000FA050CED00E000200CE0002106E031
:1024C0000022064B03EBC0135A544A1CD1B2802998
:1024D000F6DB421CD0B20828F0DB7047AC000020CD
:1024E0002DE9F04304460D4616461F46284638E0BF
:1024F000224631E0002A2DDB7F2A2BDC002829DB55
:102500003F2827DC4FEAE07C00EB5C7C4FEAEC0CD8
:10251000DFF8588008EBCC1C1CF802C003464FEAD9
:10252000E07800EB58784FEAE808A0EBC8094FF0D4
:10253000010808FA09F82CEA080C01464FEAE0788D
:1025400000EB58784FEAE808DFF8209009EBC8184C
:1025500008F802C0511C0AB2A1199142CADC411C00
:1025600008B2E9198142C3DCBDE8F083AC00002069
:1025700038B5002406E0002500E06D1CB5F57A7F33
:10258000FBD3641CB4F57A7FF5D30121402000F021
:102590007FFB14208DF8030003208DF80200062035
:1025A000ADF8000069460548FFF71DFC012000F06A
:1025B00033FB012000F03AFB38BD00000018014059
:1025C00070B50546002411E080212141294009B160
:1025D000012100E00021084600F028FB012000F066
:1025E0001BFB002000F018FB601CC4B2082CEBDBC6
:1025F000012000F011FB002000F00EFB70BD10B5B3
:10260000012000F013FB012000F006FB002000F089
:102610000DFB002000F000FB10BD10B5002000F005
:1026200005FB012000F0F8FA012000F0FFFA10BDD0
:1026300010B5FFF79DFFAE2000F002FBD52000F0A3
:10264000FFFA802000F0FCFAA82000F0F9FA3F2001
:1026500000F0F6FAD32000F0F3FA002000F0F0FAD0
:10266000402000F0EDFAA12000F0EAFAC82000F0C6
:10267000E7FADA2000F0E4FA122000F0E1FA812013
:1026800000F0DEFACF2000F0DBFAD92000F0D8FA13
:10269000F12000F0D5FADB2000F0D2FA302000F073
:1026A000CFFAA42000F0CCFAA62000F0C9FA8D20C1
:1026B00000F0C6FA142000F0C3FAAF2000F0C0FA10
:1026C000FFF7FAFE00F094FA10BD10B502460120A3
:1026D00000E050430B1EA1F10101FAD110BD0FB46F
:1026E00070B5C2B005460E4614464AA8019002A82D
:1026F000019A4999FDF72CFE00200190234602AA79
:102700003146284600F0E6F842B070BC5DF814FB94
:1027100070B505460C46A01CC4B245F0B00000F0F0
:102720008FFA102141EA141000F08AFA04F00F0029
:1027300000F086FA70BD0000F8B506460F46144654
:102740001D46082D0CD1A4F120000E4901EB00100C
:102750001023082239460090304600F017F80FE0A9
:10276000062D0DD1A4F1200000EB4000064901EB3D
:1027700040000823062239460090304600F006F853
:10278000F8BD0000DC450008CC4B00082DE9FF4FE8
:1027900080460E469146DDF834B0002500244A46B6
:1027A00031464046039BFFF79BFE00BF5EE00025DD
:1027B00058E008EB0500002852DB08EB05007F28F5
:1027C0004EDC3046F11706EB5171C9100FB2F1170C
:1027D00006EB5171C910A6EBC10A002E05DA781E6E
:1027E00007B20AF108000FFA80FA3819002817DB3F
:1027F0003819072814DC3819224901EBC01008EBFE
:102800000501405C04FB09511BF8011001FA0AF1B3
:10281000084339191B4A02EBC11108EB0502885421
:102820003819401C00281BDB3819401C072817DC0E
:102830003819401C134901EBC01008EB0501405C3E
:1028400004FB09511BF80110CAF1080211410843A9
:102850003919491C0B4A02EBC11108EB05028854D7
:10286000681CC5B24D45A4DB601CC4B20399481E68
:10287000C11700EB5171012202EBE101A14296DC8C
:10288000BDE8FF8FAC0000202DE9F04706468946E1
:1028900017461D46DDF82080002417E0281B411E46
:1028A0000A20FFF712FFB7FBF0F00A21B0FBF1F2AC
:1028B00001FB120000F1300A04FB086108B2434634
:1028C00052464946FFF738FF601CC4B2AC42E5DB14
:1028D000BDE8F0872DE9FE4F07468A461446984624
:1028E0000025AB460026CBE0605D00F0800058B9C3
:1028F0004FF0010B2846691C8DB2205C8DF8040056
:1029000000208DF805006BE0605D00F0E000C0285D
:1029100014D14FF0020B2846691C8DB2205C8DF853
:102920000400605D00B9AFE02846691C8DB2205CF0
:102930008DF8050000208DF8060051E0605D00F084
:10294000F000E0281DD14FF0030B2846691C8DB222
:10295000205C8DF80400605D00B995E02846691C94
:102960008DB2205C8DF80500605D00B98CE02846D2
:10297000691C8DB2205C8DF8060000208DF80700E0
:102980002EE0605D00F0F800F02826D14FF0040B37
:102990002846691C8DB2205C8DF80400605D00B98A
:1029A00072E02846691C8DB2205C8DF80500605DE0
:1029B00000B969E02846691C8DB2205C8DF80600DC
:1029C000605D00B960E02846691C8DB2205C8DF81E
:1029D000070000208DF8080002E0681C85B24FE077
:1029E000BBF1010F0BD19DF80420B91908B2434681
:1029F0005146FFF7A1FE06EB080086B23FE04FF01C
:102A000000090EE009EB890101EB4911204A881801
:102A100001A9FDF719FD00B90EE009F101001FFA47
:102A200080F909EB890101EB4911194A881819A1AC
:102A3000FDF70AFD0028E5D100BFB8F1080F12D15B
:102A400009EB890000EB491011490844401DB919F0
:102A5000009008B210231A465146FFF797FE06F180
:102A6000100086B20BE0B8F1060F08D1B91908B210
:102A700006233F225146FFF75FFEB01D86B200BF1E
:102A8000605D00287FF430AF00BFBDE8FE8F00001E
:102A9000064E00080000000086B0002400BF7DE064
:102AA00000F0A6F801F022FC001B642873D3002379
:102AB0005A1E02A93A48006801F050FA012829D1AB
:102AC00038A3062200210846FFF709FE37A3062295
:102AD0000A210020FFF703FE36A30622142100205E
:102AE000FFF7FDFD062302AA00213E20FFF7F2FEBC
:102AF000062000909DF8122002230A213E20FFF7B5
:102B0000C3FE062000909DF81320012314213E20CF
:102B1000FFF7BAFE00235A1E02A92848006801F0F8
:102B20001DFA012832D126A306221E210020FFF71C
:102B3000D6FD26A3062228210020FFF7D0FD06207F
:102B400000909DF8142001231E213E20FFF79CFEDB
:102B5000062000909DF81520032328213E20FFF732
:102B600093FE9DF81500782806DD1BA3062232216E
:102B70000020FFF7B4FD09E09DF81500142805DAE0
:102B800018A3062232210020FFF7A9FD00F030F83B
:102B900001F0ACFB0446322001F09EF880E7000013
:102BA000500000204E616D653A0000004167653AB3
:102BB000000000005365783A000000004800002043
:102BC000426564206E756D3A0000000044726970C1
:102BD00020526174653A0000414C41524D3A204800
:102BE00049474800414C41524D3A204C4F57000054
:102BF00010B500240BE000212046FFF789FD0549B0
:102C000001EBC410802100F02BF8601CC4B2082C2A
:102C1000F1DB10BDAC00002010B5044622460221B5
:102C20000148FFF778F910BD0018014010B50446BF
:102C3000224604210148FFF76EF910BD001801403B
:102C400010B50446FFF7DBFC7820FFF7B9FC002045
:102C5000FFF7B6FC2046FFF7B3FCFFF7DEFC10BD24
:102C600070B505460E46FFF7CAFC7820FFF7A8FCB2
:102C70004020FFF7A5FC002404E0285DFFF7A0FC3E
:102C8000601CC4B2B442F8DBFFF7C7FC70BD0000A3
:102C900029B1064A92690243044B9A6104E0034A4F
:102CA00092698243014B9A61704700000010024014
:102CB00030B500210022002400232D4D6D6805F061
:102CC0000C0121B1042905D0082923D105E0294DA3
:102CD000056022E0274D05601FE0254D6D6805F475
:102CE0007012234D6D6805F48034022505EB924285
:102CF0001CB9214D554305600BE01D4D6D6805F471
:102D000000351DB11C4D5543056002E0194D55437A
:102D1000056002E0174D056000BF00BF144D6D68EF
:102D200005F0F0010909154D6B5C0568DD40456053
:102D30000F4D6D6805F4E061090A104D6B5C456844
:102D4000DD4085600A4D6D6805F46051C90A0B4D80
:102D50006B5C4568DD40C560054D6D6805F440411C
:102D6000890B074D6B5CC568B5FBF3F5056130BD9C
:102D70000010024000127A0000093D00000000200F
:102D8000100000201FB52AE015480078012823D143
:102D900014496846FDF7EEFA134814490978405C77
:102DA0008DF80A00124811490978405C8DF80B0033
:102DB00000235A1E69460F48006801F0ADF901284A
:102DC00007D0FFF779FB0CA3062200210846FFF786
:102DD00086FC002002490870322000F07DFFD3E716
:102DE00024000020100500202B0000202E000020D1
:102DF0002C000020500000204572726F72210000EC
:102E000000B587B001218803FFF742FF01210420AC
:102E1000FFF73EFF18208DF81B004FF40070ADF84F
:102E2000180003208DF81A0006A92148FEF7DBFFE1
:102E300048208DF81B004FF48060ADF81800032087
:102E40008DF81A0006A91A48FEF7CDFF4FF4165068
:102E500002900020ADF814000C20ADF81200002004
:102E6000ADF81000ADF80E00ADF80C0002A9114845
:102E700000F002FA012240F225510E4800F0D7F985
:102E80004FF4A060FFF70EFB25208DF80400012011
:102E90008DF807008DF805008DF8060001A8FFF7F2
:102EA000C9FA0121034800F08CF907B000BD000009
:102EB000000801400038014010B500F001F810BDD5
:102EC0000CB50020019000903348006840F4803039
:102ED0003149086000BF3048006800F400300090BD
:102EE0000198401C0190009818B90198B0F5A06FA6
:102EF000F1D12948006800F4003010B101200090A1
:102F000001E0002000900098012843D12348006888
:102F100040F01000214908600846006820F00300D6
:102F200008600846006840F0020008601A484068DF
:102F3000194948600846406848600846406840F4BF
:102F4000806048600846406820F47C10486008466D
:102F5000406840F4E81048600846006840F080701F
:102F6000086000BF0C48006800F000700028F9D02D
:102F70000948406820F00300074948600846406857
:102F800040F00200486000BF0348406800F00C00B9
:102F90000828F9D10CBD00000010024000200240BA
:102FA00010B500BFBF2080F31188BFF34F8FBFF370
:102FB0006F8F00BF01F0A0F918B14FF080500449A5
:102FC000086000BF002080F3118800BF10BD000022
:102FD00004ED00E010B51348006840F0010011490D
:102FE000086008464068104908400E494860084695
:102FF00000680E4908400B4908600846006820F444
:10300000802008600846406820F4FE0048604FF4C5
:103010001F008860FFF750FF4FF000600449086010
:1030200010BD0000001002400000FFF8FFFFF6FE98
:1030300008ED00E010B540F225514E4800F0CDF803
:10304000012874D14B4800F083F9C4B24A48007893
:1030500000283AD149A14B48FDF7F6F908B90120FB
:1030600000E00020A04208D14748007828B901209C
:103070004149087000204549087045A14148FDF7C5
:10308000E3F908B9012000E00020A04208D13E4841
:10309000007828B902203849087000203B490870A0
:1030A0003CA13848FDF7D0F908B9012000E0002024
:1030B000A04258D134480078002854D103202E492A
:1030C00008700020314908704DE02B480078012835
:1030D0000FD10D2C03D104202749087043E02E485E
:1030E0002A490978445429480078401C2749087027
:1030F00039E02148007802280FD10D2C03D104209B
:103100001D4908702FE025482049097844541F487C
:103110000078401C1D49087025E0174800780328F6
:1031200010D10D2C04D10420134908701BE020E0BD
:103130001B4816490978445414480078401C134928
:10314000087010E00C48007804280CD10A2C0AD131
:1031500000200949087000210A480C4A127881545D
:1031600001200949087040F22551024800F01AF880
:1031700000BF10BD003801402D0000204E414D45DC
:1031800000000000AC040020240000202E000020DD
:103190004147450053455800100500202B000020F2
:1031A0002C00002010B50022002340F66A14A14232
:1031B00000D100BF0A1201249440A3B2DC43048072
:1031C00010BD21B1828942F40052828104E08289DB
:1031D0004DF6FF731A408281704770B50246002495
:1031E00000230025002040F66A16B14200D100BF3E
:1031F000C1F3421501F01F03012606FA03F3012D66
:1032000002D19689334006E0022D02D1168A33405E
:1032100001E0968A33400C12012606FA04F416885F
:10322000344013B10CB1012000E0002070BDF0B5B6
:103230000346002400260025002040F66A17B94204
:1032400000D100BF1846C1F3421401F01F06012748
:1032500007FA06F5012C01D10C3004E0022C01D153
:10326000103000E014301AB107682F43076002E005
:103270000768AF430760F0BD2DE9F04786B005460B
:103280000E460024A24600BFA1460027B08900B127
:1032900000BF2F462C8A4CF6FF700440F088044390
:1032A0002C82AC894EF6F3100440B0883189084373
:1032B000718908430443AC81AC8A4FF6FF40044057
:1032C000B0890443AC8201A8FFF7F2FC1F48874293
:1032D00002D1DDF810A001E0DDF80CA0A88900F40F
:1032E000004040B10AEBCA0000EB0A103168490007
:1032F000B0FBF1F807E00AEBCA0000EB0A103168F6
:103300008900B0FBF1F86420B8FBF0F0040120095B
:10331000642101FB1089A88900F4004040B13220EB
:1033200000EBC900B0FBF1F000F00700044308E037
:10333000322000EB09106421B0FBF1F000F00F0027
:1033400004432C8106B0BDE8F0870000003801403E
:1033500001468888C0F30800704700BFFEE74900B7
:1033600050EAC12018BF04204A0D18BF40F00100E8
:1033700040F2FF72B2EB515F08BF40F0020001283B
:1033800008BF0520704730380A2801D20120704755
:10339000002070471CB500221021052000F0C2FD5E
:1033A0001649086000220121084600F0BBFD1449BF
:1033B000086000221021052000F0B4FD11490860CA
:1033C0000E48006828B10E48006810B10846006831
:1033D00038B9FFF771F80CA3082200210846FFF75F
:1033E0007EF90E48012100238022CDE900100CA1B6
:1033F0000E4800F04BFF00F011FD1CBD48000020FE
:103400004C000020500000204372656174652071FB
:1034100075657565206572726F722100300000203D
:1034200073746172745F7461736B0000B93A000861
:10343000FEF778FDFEF7ACFDFFF7FAF8FEF7A0FC0B
:10344000FEF75EFEFFF7DCFCFFF7A4FF00BFFEE720
:103450002DE9F04105460E461C4807681C480068E7
:10346000001D00F09FFB50B91948006890F82C101F
:103470000120884017490968814316480160681C8B
:1034800038B936B112480168091D134800F0C8FB6D
:103490001AE07C190E4800684460BC4207D20C4810
:1034A0000168091D0D48006800F0A0FB0CE0084809
:1034B0000168091D0A48006800F098FB0948006887
:1034C000844201D207480460BDE8F0816800002012
:1034D000540000206C000020D00500205C0000207B
:1034E000580000208400002010B5044600F0A4FB22
:1034F00023480068401C224908602248006840B9FF
:10350000204804600846006801280DD100F072F9D7
:103510000AE01D48006838B91A480068C06AE16AC4
:10352000884201D81748046018480068401C1749B1
:10353000086094F82C100120884015490968084358
:1035400013490860E16A01EB8101124A02EB810034
:10355000211D00F065FB00F081FB0B48006868B19D
:1035600008480068C06AE16A884207D24FF080507C
:1035700009490860BFF34F8FBFF36F8F10BD000084
:103580006400002054000020700000208000002013
:103590006C0000201C05002004ED00E070B523E065
:1035A00000F06EFC1348006808B9012000E000201C
:1035B000054600F06FFFBDB900F03EFB0D48C06846
:1035C000C468201D00F0EEFA0B480068401E0A494E
:1035D00008600A480068401E0849086000F03EFB89
:1035E000204600F057F800BF044800680028D7D1F3
:1035F00070BD0000BC0500206400002060000020B9
:1036000070B504460D46206C70B1216CE06808442A
:10361000E0606168E068884201D32068E060284685
:10362000226CE168FCF7CAFE70BD2DE9F04104464A
:103630000F4615464FF00008A66B206C28B37DB9E5
:103640003946226CA068FCF7B9FE216CA0680844DA
:10365000A060D4E90110884217D32068A06014E06C
:103660003946226CE068FCF7A9FE216CE068401A3C
:10367000E0602168E068884203D2216C6068401AEB
:10368000E060022D01D106B1761E701CA063404699
:10369000BDE8F08110B50446206B00F0EFFA20463B
:1036A00000F0ECFA10BD000030B54FF48843174825
:1036B00000F007042CB1C01D20F00700134C041BC0
:1036C0001B1B0246124C22600024114D6C60D01866
:1036D000083820F007000F4C206000240D4D2D68A5
:1036E0006C600C4D2D682C601146441A4C60094CDE
:1036F00024680C60084D4C682C60084D4C682C60A8
:103700004FF00044064D2C6030BD0000E405002061
:10371000940000209C000020A4000020A0000020B5
:10372000A800002000BFFFF739FF06480068012805
:10373000F9D94FF0805004490860BFF34F8FBFF3B1
:103740006F8FF0E71C05002004ED00E02DE9F0414B
:1037500006460D4617469846069C0DB9246000E0C3
:103760002760E66325640121204600F095FCBDE852
:10377000F0812DE9FF5F80460E469146DDE90E7A25
:10378000109CA9F10100216B01EB800B2BF0070BC2
:10379000002507E0715D04F134004155705D00B90A
:1037A00002E06D1C102DF5D300BF00214320015510
:1037B000052F00D30427E762201D00F014FA04F15E
:1037C000180000F010FA2461C7F10500A0616462DE
:1037D0000020606484F8480041465846039A00F08F
:1037E00059F92060BAF1000F01D0CAF80040BDE8D5
:1037F000FF9F000010B5002407E004EB84010F4A8E
:1038000002EB810000F0E2F9641C052CF5D30C48B2
:1038100000F0DCF90B4800F0D9F90B4800F0D6F9BC
:103820000A4800F0D3F90A4800F0D0F904480949E1
:10383000086004480849086010BD00001C0500200D
:103840008005002094050020A8050020BC0500206C
:10385000D0050020580000205C00002010B5014673
:10386000164800E0006803688B42FBD302464368B9
:1038700013448B4204D143684C682344436001469F
:103880000A464B6813440468A34211D10C4C0368E8
:103890002468A34208D04B680468646823444B60E2
:1038A00003681B680B6005E0054B1B680B6001E0BB
:1038B00003680B60884200D0016010BD94000020B6
:1038C0009C00002070B5054600F0B6F9A86B08B959
:1038D000012400E0002400F0C1F9204670BD70B55D
:1038E000054600F0A9F9A86BE96B884201D10124D3
:1038F00000E0002400F0B2F9204670BD0A490968D2
:10390000096809B9012100E0002121B14FF0FF3120
:10391000064A116006E004490968C968C868034A94
:1039200041681160704700005800002084000020AA
:1039300000BFBF2080F31188BFF34F8FBFF36F8F9D
:1039400000BF00BFFEE770B5044600F075F994F9BA
:10395000455010E0606A08B9012000E0002038B945
:1039600004F1240000F056FD18B100F035FA00E033
:1039700003E0681E45B2002DECDC00BFFF2084F898
:10398000450000F06BF900F057F994F9445010E04D
:10399000206908B9012000E0002048B904F11000B6
:1039A00000F038FD08B100F017FA681E45B200E0DB
:1039B00001E0002DECDC00BFFF2084F8440000F0A3
:1039C0004DF970BD2DE9F04105464FF0000800F0BB
:1039D00057FA2B48006808B9FFF766FE29480068C7
:1039E0002840002847D145B1083505F0070020B12F
:1039F00005F00700C0F108000544002D3BD0224827
:103A00000068854237D8214E3046046801E02646DA
:103A100024686068A84202D220680028F7D11848BC
:103A20000068844227D0306800F1080820683060C0
:103A30006068401B102807D967196068401B7860D0
:103A400065603846FFF70AFF0F4960680968081A81
:103A50000D490860084600680D490968884203D28C
:103A6000094800680A49086006496068096808430F
:103A700060600020206000F00DFD4046BDE8F08150
:103A80009C000020A8000020A0000020940000203E
:103A9000A4000020001F4FF080730360001F21F07E
:103AA00001030360001F034B0360143802602038D9
:103AB00070470000313900081CB5044600F0BCF81E
:103AC0001C4802210023CA01CDE900101AA11E489A
:103AD00000F0DCFB1D48012100230A02CDE90010A3
:103AE0001BA11E4800F0D2FB1D48012100238022AB
:103AF000CDE900101BA11E4800F0C8FB1D480121A4
:103B000000238022CDE900101BA11F4800F0BEFB5E
:103B10001E48012100238022CDE900101CA11F486E
:103B200000F0B4FB1E48006800F0F0F800F096F8D2
:103B30001CBD0000340000204E524632344C30315F
:103B40005F5441534B000000B522000838000020AC
:103B50004F4C45445F5441534B000000992A0008E4
:103B60003C000020424545505F5441534B0000004B
:103B70000D1D0008400000204D4F4E49544F525F2C
:103B80005441534B00000000F11F00084400002086
:103B900053455249414C5F5441534B00852D000819
:103BA0003000002001460A69D1E901309860D1E96E
:103BB000010358605068884201D188685060002035
:103BC00008611068401E10601068704700F108011D
:103BD00041604FF0FF31816000F10801C160016177
:103BE00000210160704700210161704710B5024655
:103BF0000B685C1C0CB9106907E002F1080000E0DA
:103C00004068446824689C42FAD944684C604C6817
:103C1000A160886041600A611468641C146010BD72
:103C200042684A6093688B6093685960916008614C
:103C300003685B1C0360704700BFBF2080F31188DE
:103C4000BFF34F8FBFF36F8F00BF03480068401C66
:103C50000149086070470000900000200648006895
:103C6000401E054908600846006820B9002080F31E
:103C7000118800BF00BF70479000002070B5064655
:103C80003546D6B1083D2C460C49606809680840A5
:103C900098B1206888B909496068096888436060FC
:103CA00000F0EEF8064960680968084404490860B5
:103CB0002046FFF7D3FD00F0EDFB70BDA80000200B
:103CC000A000002003484FF0E02148610720086170
:103CD000704700003F19010070B50446002544B14B
:103CE00000F0CEF800212046FFF7B2FB00F0D2FB37
:103CF00005463DB94FF0805003490860BFF34F8F30
:103D0000BFF36F8F70BD000004ED00E070B5054695
:103D1000FFF792FF15B92748006800E028460446DF
:103D2000201DFFF73FFF78B9E06A00EB80002249D1
:103D300051F8200040B994F82C10012088401F4908
:103D4000096881431D480160A06A18B104F1180098
:103D5000FFF728FF1A480068401C194908601548F9
:103D60000068844209D1211D1648FFF759FF164803
:103D70000068401C1449086009E014480068401EAF
:103D8000124908602046FFF785FCFFF7B7FDFFF7F3
:103D900065FF0F48006858B106480068844207D1A3
:103DA0004FF080500B490860BFF34F8FBFF36F8F08
:103DB00070BD0000540000201C0500206C00002095
:103DC00080000020BC05002060000020640000206E
:103DD0007000002004ED00E00120014908607047F8
:103DE0007800002070B505460C460548016818317A
:103DF0002846FFF7FBFE01212046FFF729FB70BD97
:103E000054000020034909680160034909684160C2
:103E1000704700007C000020680000201CB511489D
:103E200000210B468022CDE900100FA1104800F0C0
:103E30002DFA0446012C14D100BFBF2080F3118855
:103E4000BFF34F8FBFF36F8F00BF4FF0FF300949B3
:103E5000086001200849086000200849086000F057
:103E600047F81CBD8800002049444C450000000074
:103E70002537000884000020700000206800002022
:103E800002480068401C0149086070478C0000200F
:103E90001248006818B10120114908601DE0002097
:103EA0000F4908600F480068B0FA80F0C0F11F01A8
:103EB00001EB81020C4B03EB8200426852684260C6
:103EC00000F108024368934202D14268526842609E
:103ED0004268D268054B1A6000BF70478C00002012
:103EE000780000206C0000201C05002054000020F9
:103EF00010B50A48006840F47F0008490860084689
:103F0000006840F07F400860FFF7DCFE00200449B5
:103F10000860FCF7C3F9002010BD000020ED00E0B0
:103F2000900000202DE9F84307460D4690460DB954
:103F3000002601E007FB05F606F14800FFF742FD09
:103F4000044644B104F1480943464A4629463846E6
:103F50000094FFF7FBFB2046BDE8F8832DE9FF47FF
:103F600082B0054689461E464FF0000A2C4600BF27
:103F7000FFF762FED4F83880B8F1000F36D0E7685A
:103F800049462046FFF73CFBB6B9A8F10100A06303
:103F9000206908B9012000E0002008BB04F11000EE
:103FA00000F038FAE0B14FF080503A490860BFF3B2
:103FB0004F8FBFF36F8F13E0E760606A08B901208D
:103FC00000E0002060B904F1240000F023FA38B1C9
:103FD0004FF080502F490860BFF34F8FBFF36F8FB2
:103FE000FFF73CFE012006B0BDE8F087049818B941
:103FF000FFF734FE0020F6E7BAF1000F04D168465F
:10400000FFF700FF4FF0010AFFF728FEFFF738FF28
:10401000FFF712FE94F94400401C10B9002084F808
:10402000440094F94500401C10B9002084F8450074
:10403000FFF714FE04A9684600F0FAF8F0B920462C
:10404000FFF740FCA0B104F124000499FFF7CAFE79
:104050002046FFF778FC00F01DFA002888D14FF0C9
:1040600080500C490860BFF34F8FBFF36F8F7FE71D
:104070002046FFF768FC00F00DFA79E72046FFF7CD
:1040800062FC00F007FA2046FFF71CFC0028EED087
:104090000020A8E704ED00E070B505460E462C466A
:1040A000FFF7CAFDD4E90F12206801FB020060602F
:1040B0000020A0632068A060E06B401E226C216895
:1040C00000FB0210E060FF2084F8440084F8450003
:1040D0009EB9206908B9012000E00020A8B904F1C8
:1040E000100000F097F980B14FF080500949086046
:1040F000BFF34F8FBFF36F8F07E004F11000FFF79E
:1041000065FD04F12400FFF761FDFFF7A7FD012025
:1041100070BD000004ED00E02DE9FF4383B00746C9
:1041200088461D464FF000093C4600BFFFF784FD5E
:10413000A06BE16B884201D3022D28D12A4641466B
:104140002046FFF772FA0646606A08B9012000E0CF
:10415000002068B904F1240000F05CF988B14FF048
:10416000805032490860BFF34F8FBFF36F8F08E074
:104170003EB14FF080502D490860BFF34F8FBFF321
:104180006F8FFFF76BFD012007B0BDE8F083059846
:1041900018B9FFF763FD0020F6E7B9F1000F04D16D
:1041A00001A8FFF72FFE4FF00109FFF757FDFFF7BA
:1041B00067FEFFF741FD94F94400401C10B9002050
:1041C00084F8440094F94500401C10B9002084F89C
:1041D0004500FFF743FD05A901A800F029F8F0B953
:1041E0002046FFF77CFBA0B104F110000599FFF712
:1041F000F9FD2046FFF7A7FB00F04CF9002895D108
:104200004FF0805009490860BFF34F8FBFF36F8FA5
:104210008CE72046FFF797FB00F03CF986E7204645
:10422000FFF791FB00F036F90020ADE704ED00E068
:1042300070B504460D46FFF7FFFC12480268286877
:10424000401C08B9002619E00F4920680968884217
:1042500004D06068904201D801260FE06068101A0F
:104260002968884209D228686168511A401A286072
:104270002046FFF7C7FD002600E00126FFF7EEFC11
:10428000304670BD680000207C0000202DE9FF4F03
:1042900085B0804689461746DDE912ABB800FFF7C6
:1042A00091FB064656B14C20FFF78CFB04460CB13F
:1042B000266304E03046FFF7E1FC00E000247CB117
:1042C0000020CDE900ABCDE902403A4649464046E0
:1042D000089BFFF74EFA2046FFF706F9012501E09B
:1042E0004FF0FF35284609B0BDE8F08F0149086856
:1042F00070470000680000202DE9F04100273A488F
:104300000068002863D139480068451C37480560BB
:104310008DB93748D0F800803648006834490860C5
:104320003448C0F8008034480068401C32490860B6
:10433000FFF7E4FA00BF3148006885423BD300BF75
:104340002B480068006808B9012000E0002020B177
:104350004FF0FF30294908602CE025480068C0680C
:10436000C4686668B54202D22448066022E0201D77
:10437000FFF718FCA06A18B104F11800FFF712FC4F
:1043800094F82C10012088401D49096808431C49F5
:104390000860E16A01EB81011A4A02EB8100211DEC
:1043A000FFF73EFC1849E06A0968C96A8842C7D32A
:1043B0000127C5E700BF14480068C06A00EB800011
:1043C000104951F82000012800D9012704E00F48C6
:1043D0000068401C0D4908600D48006800B10127C5
:1043E0003846BDE8F08100008C0000206800002005
:1043F000580000205C0000207C0000208400002089
:104400006C0000201C0500205400002074000020D7
:104410007800002070B50646F068C46804F1180002
:10442000FFF7C0FB15480068A8B9201DFFF7BAFBCD
:1044300094F82C100120884011490968084310495C
:104440000860E16A01EB81010E4A02EB8100211D47
:10445000FFF7E6FB04E004F118010B48FFF7E0FB6F
:104460000A49E06A0968C96A884204D9012501201D
:104470000749086000E00025284670BD8C00002038
:104480006C0000201C050020A8050020540000201E
:104490007800002070B500240026FFF7CDFB2E48E1
:1044A0000068401E2C4908600846006800284FD16B
:1044B0002A48006800284BD024E02948C068C46816
:1044C00004F11800FFF76EFB201DFFF76BFB94F85B
:1044D0002C100120884023490968084321490860BD
:1044E000E16A01EB8101204A02EB8100211DFFF707
:1044F00097FB1E49E06A0968C96A884202D3012015
:104500001B4908601648006808B9012000E0002037
:104510000028D2D00CB1FFF7F1F91648056865B153
:1045200000BFFFF7E9FE10B10120114908606D1EC0
:10453000002DF6D100200F4908600D48006838B101
:10454000012630070C490860BFF34F8FBFF36F8F10
:10455000FFF784FB304670BD8C0000206400002013
:10456000A80500206C0000201C050020540000203D
:10457000780000207400002004ED00E010B5002950
:104580000AD00878002807D005487844FBF75CFF7C
:10459000002801D0002010BD0248784410BD000062
:1045A000BE0A0000B60A000010B500290AD008783B
:1045B000002807D005487844FBF746FF002801D0C3
:1045C000002010BD0248784410BD0000AE0A000073
:1045D000A60A0000FCF7D7BBFCF70CBD00000000EA
:1045E000000000000000000000000000000000F8D3
:1045F00000000000000000333000000000160E0034
:10460000160E0000000000000000000040C07840CE
:10461000C0784000043F04043F040400007088FC9C
:1046200008300000001820FF211E0000F008F000F4
:10463000E018000000211C031E211E0000F0088865
:10464000700000001E2123241927211000000016ED
:104650000E0000000000000000000000000000E06C
:10466000180402000000000718204000000204188F
:10467000E00000000040201807000000404080F0EB
:10468000804040000202010F01020200000000F021
:10469000000000000101011F0101010000000000F5
:1046A0000000000000B070000000000000000000EA
:1046B00000000000000101010101010100000000F3
:1046C000000000000030300000000000000000008A
:1046D00080601804006018060100000000E0100867
:1046E0000810E000000F102020100F00001010F83C
:1046F000000000000020203F20200000007008087B
:1047000008887000003028242221300000300888FA
:10471000884830000018202020110E000000C02022
:1047200010F8000000070424243F240000F8088843
:10473000880808000019212020110E0000E01088D0
:1047400088180000000F112020110E000038080802
:10475000C83808000000003F000000000070880812
:1047600008887000001C222121221C0000E0100893
:104770000810E0000000312222110F00000000C0EC
:10478000C00000000000003030000000000000C049
:10479000C0000000000080B07000000000008040F9
:1047A0002010080000010204081020004040404092
:1047B00040404000040404040404040000081020E5
:1047C000408000000020100804020100007048082A
:1047D0000808F0000000003036010000C030C82892
:1047E000E810E0000718272423140B000000C0384D
:1047F000E0000000203C23020227382008F88888C7
:1048000088700000203F202020110E00C0300808D2
:1048100008083800071820202010080008F80808A9
:104820000810E000203F202020100F0008F88888A2
:10483000E8081000203F20202320180008F888886E
:10484000E8081000203F200003000000C0300808E6
:104850000838000007182020221E020008F808006F
:104860000008F808203F210101213F20000808F836
:10487000080800000020203F202000000000080859
:10488000F8080800C08080807F00000008F888C019
:1048900028180800203F20012638200008F80800CA
:1048A00000000000203F20202020300008F8F80001
:1048B000F8F80800203F003F003F200008F830C013
:1048C0000008F808203F200007183F00E010080803
:1048D0000810E0000F10202020100F0008F8080832
:1048E0000808F000203F210101010000E010080845
:1048F0000810E0000F18242438504F0008F888886A
:1049000088887000203F2000030C30200070880849
:10491000080838000038202121221C00180808F857
:10492000080818000000203F2000000008F80800D8
:104930000008F808001F202020201F0008788800A9
:1049400000C83808000007380E010000F80800F819
:104950000008F800033C0700073C030008186880C3
:104960008068180820302C03032C30200838C80039
:10497000C83808000000203F200000001008080888
:10498000C83808002038262120201800000000FE2A
:10499000020202000000007F40404000000C30C0D6
:1049A00000000000000000010638C0000002020202
:1049B000FE000000004040407F0000000020100882
:1049C00004081020000000000000000000000000AB
:1049D00000000000808080808080808000020408C9
:1049E00000000000000000000000000000008080C7
:1049F000808000000019242222223F2008F8008035
:104A000080000000003F112020110E0000000080F7
:104A100080800000000E1120202011000000008086
:104A20008088F800000E112020103F2000008080B8
:104A300080800000001F222222221300008080F0CC
:104A4000888888180020203F2020000000008080F7
:104A500080808000006B94949493600008F800803C
:104A600080800000203F210000203F200080989897
:104A7000000000000020203F2020000000000080F7
:104A80009898000000C08080807F000008F8000037
:104A900080808000203F24022D302000000808F88C
:104AA000000000000020203F202000008080808047
:104AB00080808000203F20003F20003F0080800059
:104AC0008080000000203F2100203F2000008080E7
:104AD00080800000001F202020201F008080008098
:104AE0008000000080FFA12020110E000000008047
:104AF00080808000000E112020A0FF808080800038
:104B00008080800020203F21200001000000808064
:104B1000808080000033242424241900008080E059
:104B2000808000000000001F202000008080000026
:104B300000808000001F202020103F208080800007
:104B40000080808000010E30080601008080008017
:104B5000008080800F300C030C300F00008080003C
:104B6000808080000020312E0E3120008080800067
:104B70000080808080818E70180601000080808017
:104B8000808080000021302C2221300000000000B5
:104B9000807C020200000000003F40400000000056
:104BA000FF00000000000000FF0000000002027C87
:104BB000800000000040403F0000000000804040B6
:104BC00080000080000000000001010000000000E3
:104BD00000000000002F0000000007000700001484
:104BE0007F147F1400242A7F2A1200231308646292
:104BF00000364955225000000007000000001C222A
:104C00004100000041221C000014083E0814000866
:104C1000083E0808000000A0600000080808080816
:104C2000000060600000002010080402003E5149AE
:104C3000453E0000427F400000426151494600214C
:104C400041454B31001814127F1000274545453966
:104C5000003C4A49493000017109050300364949C1
:104C6000493600064949291E00003636000000007A
:104C700056360000000814224100001414141414C5
:104C8000000041221408000201510906003E495566
:104C9000592E007C1211127C007F49494936003E92
:104CA00041414122007F4141221C007F4949494145
:104CB000007F09090901003E4149497A007F08083F
:104CC000087F0000417F4100002040413F01007FFC
:104CD00008142241007F40404040007F020C027FC8
:104CE000007F0408107F003E4141413E007F0909DA
:104CF0000906003E4151215E007F09192946004600
:104D0000494949310001017F0101003F4040403FD6
:104D1000001F2040201F003F4038403F0063140820
:104D200014630007087008070061514945430000FB
:104D30007F414100000204081020000041417F0033
:104D40000004020102040040404040400000010213
:104D50000400002054545478007F484444380038FC
:104D60004444442000384444487F00385454541884
:104D700000087E0901020018A4A4A47C007F080496
:104D800004780000447D4000004080847D00007F66
:104D9000102844000000417F4000007C0418047883
:104DA000007C0804047800384444443800FC24247F
:104DB00024180018242418FC007C08040408004867
:104DC0005454542000043F444020003C4040207C88
:104DD000001C2040201C003C4030403C0044281077
:104DE0002844001CA0A0A07C004464544C44000053
:104DF000087F41000000007F00000000417F0800A4
:104E0000000804081008EFBC8C000000000000003F
:104E10000000000000000000000000000058380002
:104E20000000000000000000000000E3808200009D
:104E30000000000000000000000000000000000072
:104E400000001824241800000000000000000000EA
:104E5000E4BDA00000008060F8074020180F08C8DB
:104E60000808281800010000FF00100C0340807F94
:104E70000001061800E5A5BD00001010F01F10F09D
:104E800000808282E2928A868000402215081661A4
:104E9000000040807F0000000000E4B89600002081
:104EA0002020FE2020FF202020FF202020200000A6
:104EB00000007F404047444444474040400000E7F2
:104EC000958C0000000000FE929292FE929292FE5B
:104ED0000000000008080484621E010001FE0204B4
:104EE000040808000000000000FF01010131090969
:104EF0000909897101010101FFFF808080808080A4
:104F00009681808080808080FFFF01818181FD8982
:104F100091A1C1FD81818101FFFF808080809F88F8
:104F20008482819F80808080FF000000000000005C
:104F300000000000303132333435363738394142E1
:104F400043444546403058003031323334353637EB
:104F50003839616263646566403078000400000897
:104F6000000000000000000200010000103031329B
:104F7000333435363738396162636465667870007A
:104F8000303132333435363738394142434445467F
:104F90005850000002400000000000A00000000087
:104FA00005400000000000C8000000000C400000A8
:104FB0000000409C00000000194000000020BCBE22
:104FC0000000000034400000BFC91B8E0000000438
:104FD000B5400000504BCFD06607E2CF0100000083
:104FE0006C4100003E8251AADFEEA73401000000B0
:104FF000D9420000DCB5A0E23A301F97FFFFFFFF67
:10500000B4450000FD25A0C8E9A3C14FFFFFFFFF85
:10501000FF3F00000000008000000000FF3F000094
:105020000000008000000000745100080000002013
:10503000AC0000006C01000820520008AC00002009
:105040009C4F0000880100081C0000004300000085
:10505000F8FFFFFF0C0000000E0000000F00000032
:105060002E0000001001000043000000F8FFFFFFC9
:10507000004040404040404040404141414141406B
:105080004040404040404040404040404040404020
:1050900040050202020202020202020202020202AF
:1050A00002202020202020202020200202020202B4
:1050B000020290909090909010101010101010100C
:1050C0001010101010101010101010100202020218
:1050D000020288888888888808080808080808085C
:1050E0000808080808080808080808080202020258
:1050F0004000000000000000000000000000000070
:10510000000000000000000000000000000000009F
:10511000000000000000000000000000000000008F
:10512000000000000000000000000000000000007F
:10513000000000000000000000000000000000006F
:10514000000000000000000000000000000000005F
:10515000000000000000000000000000000000004F
:10516000000000000000000000000000000000003F
:10517000000000000000000001020304010203041B
:1051800006070809020406081122334455000000EE
:105190001122334455000000000000000000000010
:1051A00000000000000000000000000000000000FF
:1051B00000000000000000000000000000000000EF
:1051C00000000000000000000000000000000000DF
:1051D00000000000000000000000000000000000CF
:1051E00000000000000000000000000000000000BF
:1051F00000000000000000000000000000000000AF
:1052000000000000AAAAAAAA0000000000000000F6
:10521000000000000000000000000000000000008E
:0400000508000131BD
:00000001FF
